:020000040800F2
:10000000400800204501000895400008853A000896
:100010009140000825080008255100080000000054
:100020000000000000000000000000009D420008E9
:10003000250900080000000097400008D54200088C
:100040005F0100085F0100085F0100085F01000810
:100050005F0100085F0100085F0100085F01000800
:100060005F0100085F0100085F010008E90800085F
:100070005F0100085F0100085F0100085F010008E0
:100080005F0100085F0100085F0100085F010008D0
:100090005F0100085F0100085F0100085F010008C0
:1000A0005F0100085F0100085F0100085F010008B0
:1000B0005F0100085F0100085F0100085F010008A0
:1000C0005F0100085F0100085F0100085F01000890
:1000D0005F010008015100085F0100081551000888
:1000E0005F0100085F0100085F0100085F01000870
:1000F0005F0100085F0100085F0100085F01000860
:100100005F0100085F0100085F0100085F0100084F
:100110005F0100085F0100086D430008914300087B
:100120005F0100085F0100085F0100085F0100082F
:10013000DFF80CD000F0BAFA00480047D9510008A7
:10014000400800200648804706480047FEE7FEE7D3
:10015000FEE7FEE7FEE7FEE7FEE7FEE7FEE7FEE777
:100160006B43000831010008202A04DB203A21FA01
:1001700002F00021704721FA02F3D040C2F12002C0
:100180009140084319467047D2B201E000F8012BB4
:10019000491EFBD270470022F6E710B513460A4607
:1001A00004461946FFF7F0FF204610BD80EA010221
:1001B00010B502F00043400022D04A001FD0010ECB
:1001C00001EB1261C0F35600C2F3560240F4000086
:1001D00042F40002A0FB022000047F39140400D086
:1001E000401C50EA124001D44000491EC2B20C0625
:1001F00004EBD010401C4008802A02D003E000200D
:1002000010BD20F00100002900DA0020184310BDC5
:100210002DE9FE4F804681EA0300C00F0C46009096
:1002200021F0004123F00045B8EB0200A94105D2BE
:100230004046214690461C460B46024623F00040AD
:10024000104347D0270DC7F30A00C3F30A510290A9
:10025000401A019040286BDAC3F3130040F4801B6E
:100260000098924620B10023D2EB030A63EB0B0BFC
:1002700001985946C0F14002504600F062F9064626
:100280000D4650465946019A00F06AF910EB0800F5
:100290006141002487EA115284EAE7731A4340D08F
:1002A000009A62B3019A012A4FEA075215DC001B3B
:1002B00061EB02014FF0004202EA0752CDE9004231
:1002C000001C41F5801132462B4600F0A1F903B025
:1002D000BDE8F08F40462146F9E7001B61EB0201C3
:1002E000001C41F5801300185B412018A2F500178F
:1002F00047EB030140EAD570B6196D4111E06D0876
:100300004FEA360645EAC0754FEA0752001B61EB1B
:100310000201001C41F5801149084FEA3000001924
:10032000514132462B4603B0BDE8F04F00F061B9B1
:100330000098012240000023D0EB020263EBE0733F
:10034000009821464FEAE074B8EB000061EB04012D
:10035000E9E783F000435BE781F0004158E72DE9CE
:10036000FE4F81EA030404F0004421F000410094B0
:100370004FF0000B23F0004350EA01045ED052EA34
:1003800003045BD0C3F30A54C1F30A552C44A4F20E
:10039000F3340194A0FB0254C1F3130141F4801122
:1003A000C3F3130343F4801301FB024400FB034E29
:1003B000840A970A44EA815447EA8357A4FB0768F2
:1003C00002958D0A05FB07854FEA932C04FB0C541C
:1003D0002705029D4FEA065847EA1637B5EB080590
:1003E0006EEB070C870E920E47EA811742EA8312E2
:1003F000A7FB0201B6EB0B0164EB00042B0D43EAF3
:100400000C335E1844EB1C50DA465146E7FB020100
:10041000C5F313044FEA0B3343EA14534FEA043293
:10042000019C43EA0603A4F10C040294009CCDE96C
:1004300000B400F0EDF803B0BDE8F08F00200146F5
:10044000F9E7C10F80EAE0700844CA07962300214B
:1004500000F0A1B896230022114600F09CB80EB51A
:10046000C10F80EAE0700844CA07002140F233431C
:100470008DE80E000A460B4600F0CAF803B000BD36
:1004800000F0004220F00040C10DC0F3160040F41F
:1004900000007F2901DA00207047962903DCC1F1B2
:1004A0009601C84001E096398840002AF4D04042C5
:1004B0007047C1F30A5210B5C1F3130140F2FF3384
:1004C00041F480119A4201DA002010BD40F233431A
:1004D0009A42A2F2334203DC5242FFF745FE10BDBE
:1004E000904010BD00F0004230F000400AD0C10D35
:1004F00001F56071C0F3160042EA0151C2084007DD
:100500001143704700200146704701F0004330B4AA
:1005100021F0004150EA010206D00A0DA2F56072F6
:10052000C1F31301002A02DC30BC00207047440FE5
:1005300044EAC104C100E01830BC00EBC25000F036
:1005400021B8202A04DB203A00FA02F1002070478B
:100550009140C2F1200320FA03F319439040704701
:10056000202A06DBCB17203A41FA02F043EAE07377
:1005700006E041FA02F3D040C2F120029140084364
:10058000194670470029A8BF7047401C490008BFA2
:1005900020F00100704710B4B0FA80FC00FA0CF0B3
:1005A00050EA010404BF10BC704749B1CCF12004EB
:1005B00021FA04F411FA0CF118BF01212143084378
:1005C000A3EB0C01CB1D4FEA00614FEA102042BFA4
:1005D000002010BC704700EBC35010440029A4BF9A
:1005E00010BC7047401C490008BF20F0010010BC3F
:1005F000704710B5141E73F1000408DA401C41F175
:10060000000192185B411A4301D120F0010010BD96
:100610002DE9F04D92469B4611B1B1FA81F202E00C
:10062000B0FA80F220329046FFF78BFF04460F4667
:1006300040EA0A0041EA0B0153465A46084313D0E8
:10064000114653EA010019D0C8F140025046FFF7A5
:100650008BFD05460E46504659464246FFF771FF50
:10066000084305D0012004E020463946BDE8F08D5E
:100670000020054346EAE0762C4337430A98630599
:10068000E40AA0EB08000022FD0A44EA47540A30BD
:1006900002D500200146E9E7010510196941DDE9AD
:1006A000084500196941BDE8F04DA2E7064C074D29
:1006B00006E0E06840F0010394E807009847103432
:1006C000AC42F6D3FFF738FDBC5E0008DC5E0008E4
:1006D00070B5044600252068806800F00100F0B184
:1006E0002068806820F001002168886001F024FC07
:1006F00005460EE001F020FC401B022809D9A06A43
:1007000040F01000A062E06A40F00100E0620120C9
:1007100070BD2068806800F001000028EAD1002048
:10072000F6E770B505466C6AA06A00F05000E0B9C3
:10073000A06A40F40070A0622068806800F4602025
:10074000B0F5602F0DD1207B58B9A06A20F48070DD
:10075000A062A06A00F4805018B9A06A40F00100BD
:10076000A062204600F0C4FA03E0206A016B28462C
:10077000884770BD70B505466C6AA06A40F04000BD
:10078000A062E06A40F00400E062204600F0B2FAA5
:1007900070BD70B50446656A284600F0AAFA70BDBF
:1007A00038B504460025002000902068806800F0DD
:1007B000010080BB2068806840F0010021688860EB
:1007C000164800681649B0FBF1F0009002E000986E
:1007D000401E009000980028F9D101F0ADFB0546BD
:1007E00013E001F0A9FB401B02280ED9A06A40F0DB
:1007F0001000A062E06A40F00100E06200BF00204B
:1008000084F8240000BF012038BD2068806800F013
:1008100001000028E5D00020F6E700003C000020A1
:1008200040420F0000BFFEE72DE9F04F89B00746B8
:1008300046254B2648E0284850F82500B84203D208
:100840002E46681FC5B23FE0234850F82600B84244
:1008500003D93546701DC6B236E02C4630E01E493D
:10086000601C51F82000B84228D2084650F82400F5
:10087000C01B1A4951F82410B0FBF1FB5846FFF792
:10088000E9FD8246A4F132085046FFF72BFE144AD8
:10089000144BCDE90001FFF762FDCDE904014046AC
:1008A000FFF7DDFDCDE90201DDE90423FFF7B0FC30
:1008B000CDE90601FFF729FE814603E0601CC4B2C2
:1008C000B442CCDD00BF01E0B542B4DB00BF484616
:1008D00009B0BDE8F08F0000B85900083C5C000882
:1008E0009A9999999999B93F10B5024800F026FE56
:1008F00010BD00007000002030B590F84050012479
:10090000AC40C56B6C60046863604468102C04D113
:100910000468A2600468E16003E00468A160046800
:10092000E26030BD704770470021074AD161074936
:10093000096941F00401054A11611146096941F054
:100940004001116170470000200400200020024097
:100950000021074AD1610749096941F00201054AAE
:10096000116111464861096941F040011161704708
:1009700020040020002002400022054BDA61054AD5
:10098000126942F00102034B1A61018070470000B6
:10099000200400200020024000201E49C96801F008
:1009A000100139B11C49C96941F002011A4AD161EB
:1009B00040F010001749C96801F0040139B1164927
:1009C000C96941F00101144AD16140F004001149A4
:1009D000C96901F0010169B10F49C96941F0040118
:1009E0000D4AD16100BF0B49C96921F00101094AD3
:1009F000D16100BF00BF40F20111884206D1054914
:100A0000C96921F00101034AD16101E00149C860CF
:100A100000BF7047002002402004002070B504464B
:100A200001F08AFA054609E0601C38B124B101F0F2
:100A300083FA401BA04201D9032070BD1248C06850
:100A400000F001000028EFD10F48C06800F020003E
:100A500020B100BF20200C49C86000BF0A48C06810
:100A600000F0100048B90848C06900F0010020B942
:100A70000548C06800F0040018B1FFF78DFF0120A1
:100A8000DBE70020D9E7000000200240F8B504466B
:100A900000260020009000BF94F82400012801D116
:100AA0000220F8BD012084F8240000BF2046FFF793
:100AB0000FFE0646002E62D1A06A20F4885040F056
:100AC0000200A062022001F015FB30490968B1FB69
:100AD000F0F04000009002E00098401E0090009866
:100AE0000028F9D12046FFF75BFE2068806840F0BF
:100AF00008002168886001F01FFA054611E001F046
:100B00001BFA401B0A280CD9A06A20F0020040F012
:100B10001000A06200BF002084F8240000BF012064
:100B2000BFE72068806800F008000028E7D120684F
:100B3000806840F004002168886001F0FDF90546F6
:100B400011E001F0F9F9401B0A280CD9A06A20F045
:100B5000020040F01000A06200BF002084F82400D2
:100B600000BF01209DE72068806800F00400002895
:100B7000E7D1A06A20F0020040F00100A06200BFAF
:100B8000002084F8240000BF30468AE73C000020A3
:100B900038B5024600230020009000BF92F82400E0
:100BA000012801D1022038BD012082F8240000BFB5
:100BB0004868072812D21068406B0C79641E04EB59
:100BC00084051F24AC40A0430D796D1E05EB8505FF
:100BD0000C68AC4020431468606327E048680D2827
:100BE00012D21068006B0C79E41F04EB84051F24FB
:100BF000AC40A0430D79ED1F05EB85050C68AC40BA
:100C000020431468206311E01068C06A0C790D3C21
:100C100004EB84051F24AC40A0430D790D3D05EB8A
:100C200085050C68AC4020431468E06208680A2817
:100C300012D31068C0680C780A3C04EB4405072402
:100C4000AC40A0430D780A3D05EB45058C68AC40EF
:100C500020431468E0600FE0106800690C7804EB32
:100C600044050724AC40A0430D7805EB45058C688E
:100C7000AC402043146820610868102802D008683E
:100C8000112827D1174C1068A0421ED11068806827
:100C900000F40000F0B91068806840F400001468A7
:100CA000A0600868102815D10F4800680F4CB0FBF1
:100CB000F4F000EB80004000009002E00098401E3D
:100CC000009000980028F9D104E0906A40F02000DC
:100CD0009062012300BF002082F8240000BF184664
:100CE00061E70000002401403C00002040420F006A
:100CF00070477047704700002DE9F0410446002717
:100D000000250026A84614B90120BDE8F081A0689E
:100D100010B1207D00B100BFA06A30B90020E062B0
:100D200084F82400204600F097F82046FFF7D0FC16
:100D30000746A06A00F01000002873D1002F7ED172
:100D4000A06A20F4885040F00200A0623F4AD4E933
:100D50000001904208D1E069B0F5402F02D14FF474
:100D6000002002E0E06900E0E0690143207B41EA05
:100D700040000643A068B0F5807F02D0A06801283B
:100D800002D14FF4807000E000200543207D01284F
:100D900011D1207B38B9A069401E4FF4006141EAAF
:100DA0004030054307E0A06A40F02000A062E06AFE
:100DB00040F00100E0622068406820F46940284368
:100DC00021684860206880682149084030432168D4
:100DD0008860A068B0F5807F02D0A068012802D1A9
:100DE0004FF4807000E00020B0F5807F03D1208AAE
:100DF000401E4FEA00582068C06A20F4700040EAA4
:100E000008002168C8622068806812490840B04222
:100E100009D10020E062A06A20F0020040F0010049
:100E2000A06211E00BE0A06A20F0020040F0100088
:100E3000A062E06A40F00100E062012704E0A06ADD
:100E400040F01000A062012738465EE7003C0140F8
:100E5000FDF7E1FFFE0E1FFF10B586B0044600202F
:100E600002900390049005902C492068884253D149
:100E700000BF2B48806940F400702949886108460A
:100E8000806900F40070019000BF00BF00BF0846F9
:100E9000806940F0100088610846806900F0100009
:100EA000019000BF00BF00BF0846806940F0040009
:100EB00088610846806900F00400019000BF00BF0F
:100EC0000F2002900320039002A9164800F07CFE38
:100ED000CF2002900320039002A9134800F074FE73
:100EE00012481349086000204860002110488160C2
:100EF0008021C16049000161890041612021816137
:100F00000021C16100F0E6FC08B1FFF70CFD00BF55
:100F100007482062446200BF06B010BD00240140B3
:100F2000001002400010014000080140080002408B
:100F30007000002070B50446002500BF94F824001E
:100F4000012801D1022070BD012084F8240000BFD7
:100F50002046FFF725FC0546002D77D1A06A40F218
:100F60000121884340F48070A0623C492068884297
:100F700008D13B48006800F4702008B9012002E065
:100F8000002000E0012078B1A06A20F48010A06267
:100F90002068406800F4806000B3A06A20F400502C
:100FA00040F48050A06219E0A06A40F48010A06272
:100FB0002B49091F2068884203D0284920688842AD
:100FC00004D12748006800F4806000E0002028B1C8
:100FD000A06A20F4005040F48050A062A06A00F49F
:100FE000805020B1E06A20F00600E06201E00020BD
:100FF000E06200BF002084F8240000BFC01E21680A
:1010000008602068806800F46020B0F5602F16D179
:1010100012492068884208D11148006800F4702005
:1010200008B9012002E0002000E0012038B120686A
:10103000806840F4A000216888600CE006E0206829
:10104000806840F480102168886004E000BF0020C0
:1010500084F8240000BF284675E7000000280140FE
:10106000042401402DE9F04104460D4616460027B0
:1010700057492068884203D056492068884205D1E4
:101080005348001D006800F4702000E00020002894
:101090007ED100BF94F82400012802D10220BDE8CF
:1010A000F081012084F8240000BF2046FFF778FB80
:1010B0000746002F6DD1A06A40F60161884340F4D5
:1010C0008070A06243492068884209D14048001DD1
:1010D000006800F4702008B9012002E0002000E060
:1010E000012078B1A06A20F48010A06220684068D6
:1010F00000F4806000B3A06A20F4005040F48050F7
:10110000A06219E0A06A40F48010A0623049206813
:10111000884203D02F492068884205D12C48001D01
:10112000006800F4806000E0002028B1A06A20F48C
:10113000005040F48050A062A06A00F4805020B1BA
:10114000E06A20F00600E06201E00020E06200BFFB
:10115000002084F8240000BF1F48216A88621F48CD
:10116000216AC8621E48216A08636FF00200216884
:1011700008602068806840F4807021688860226878
:1011800002F14C0133462A46206A00F0E9FB01E0F7
:101190001AE014E02068806800F46020B0F5602F49
:1011A00006D12068806840F4A000216888600CE0C7
:1011B0002068806840F480102168886005E000BFE6
:1011C000002084F8240000E00127384667E700008B
:1011D000002401400028014023070008930700086D
:1011E00075070008F0B5034600BF5879012801D102
:1011F0000220F0BD0120587100BF0220187118684C
:10120000046802F0100640F6FE70B0408443D1E955
:10121000000640EA060502F0100005FA00F004435B
:10122000186804601868006802F01007C026BE4005
:10123000B0431E6830601868006802F01007C026CE
:10124000BE40B0431E6830600120187100BF00200E
:10125000587100BF00BFCCE710B504460CB901209F
:1012600010BD207920B900206071204600F008F8F8
:101270000220207100202061012020710020EFE772
:1012800010B586B0044600200290039004900590AB
:1012900014492068884222D100BF1348C06940F039
:1012A00000501149C8610846C06900F00050019023
:1012B00000BF00BF00BF0846806940F0040088619D
:1012C0000846806900F00400019000BF00BF302094
:1012D00002900320039002A9044800F075FC06B0B8
:1012E00010BD0000007400400010024000080140E2
:1012F00038B50446002000902068009029B902F11A
:101300000800009D2844009004E002F11400009DB4
:101310002844009000980360002038BD10B50246B4
:1013200000BF5079012801D1022010BD0120507169
:1013300000BF022010711068006801F01004012342
:10134000A34018431368186061B91068006800F082
:101350003C003C2816D11068406840F0010013683A
:1013600058600FE01068006800F4701301F010047A
:101370003C20A040834205D11068406840F0020044
:10138000136858600120107100BF0020507100BF29
:1013900000BFCAE770B50446002594F82100022872
:1013A00003D00420A0630125C1E02068006820F07C
:1013B0000E00216808602068006820F001002168A4
:1013C00008605C492068884252D95A4978392068B7
:1013D000884201D1012047E056496439206888429B
:1013E00001D1102040E0534950392068884201D192
:1013F000801539E04F493C392068884201D180147A
:1014000032E04C4928392068884202D14FF48030BC
:101410002AE0484914392068884202D14FF48010EC
:1014200022E044492068884201D140041CE042493E
:101430002068884201D1012016E03F49143120681C
:10144000884201D110200FE03B49283120688842B2
:1014500001D1801508E038493C312068884201D12B
:10146000801401E04FF480303349091F086051E0D7
:10147000304978392068884201D1012047E02D4960
:1014800064392068884201D1102040E02949503950
:101490002068884201D1801539E026493C3920680E
:1014A000884201D1801432E02249283920688842DC
:1014B00002D14FF480302AE01E4914392068884256
:1014C00002D14FF4801022E01A492068884201D1ED
:1014D00040041CE018492068884201D1012016E030
:1014E000154914312068884201D110200FE01249BB
:1014F00028312068884201D1801508E00E493C312E
:101500002068884201D1801401E04FF480300949FD
:1015100080394860012084F8210000BF002084F851
:10152000200000BF606B10B12046616B88472846E1
:1015300070BD0000800002400804024070B50446FF
:10154000E06B05682068066894F840100420884025
:101550002840002875D006F004000028FAD0206842
:10156000006800F0200028B92068006820F004001E
:1015700021680860D5492068884254D9D349783910
:101580002068884201D1042049E0D04964392068AC
:10159000884201D1402042E0CC495039206888423D
:1015A00001D100153BE0C9493C392068884202D18D
:1015B0004FF4804033E0C54928392068884202D181
:1015C0004FF480202BE0C14914392068884202D1B1
:1015D0004FF4800023E0BD492068884201D1C00457
:1015E0001DE0BB492068884201D1042017E0B849BA
:1015F00014312068884201D1402010E0B4492831DC
:101600002068884201D1001509E0B1493C312068C9
:10161000884202D14FF4804001E04FF48020AC4971
:10162000091F086054E0A94978392068884201D12F
:1016300004204AE0A54964392068884202D140204C
:1016400043E04CE0A14950392068884201D100159F
:101650003BE09E493C392068884202D14FF48040EB
:1016600033E09A4928392068884202D14FF480201B
:101670002BE0964914392068884202D14FF480004B
:1016800023E092492068884201D1C0041DE09049BE
:101690002068884201D1042017E08D491431206868
:1016A000884201D1402010E08949283120688842D1
:1016B00001D1001509E086493C312068884202D1F9
:1016C0004FF4804001E04FF4802080498039486029
:1016D000E06A002802D02046E16A8847F4E094F8E6
:1016E0004010022088402840002871D006F00200F7
:1016F0000028FAD02068006800F0200040B9206877
:10170000006820F00A0021680860012084F82100A8
:101710006E492068884254D96C49783920688842DB
:1017200001D1022049E0694964392068884201D129
:10173000202042E0654950392068884201D1401597
:101740003BE062493C392068884202D14FF40050A6
:1017500033E05E4928392068884202D14FF40030D6
:101760002BE05A4914392068884202D14FF4001006
:1017700023E056492068884201D180041DE0544985
:101780002068884201D1022017E0514914312068B5
:10179000884201D1202010E04D492831206888423C
:1017A00001D1401509E04A493C312068884202D104
:1017B0004FF4005001E04FF400304549091F086024
:1017C00054E0424978392068884202D102204AE038
:1017D00057E03E4964392068884201D1202042E028
:1017E0003A4950392068884201D140153BE03749D9
:1017F0003C392068884202D14FF4005033E033492D
:1018000028392068884202D14FF400302BE02F495C
:1018100014392068884202D14FF4001023E02B498C
:101820002068884201D180041DE02949206888424F
:1018300001D1022017E0264914312068884201D1E5
:10184000202010E0224928312068884201D140152B
:1018500009E01F493C312068884202D14FF4005012
:1018600001E04FF4003019498039486000BF002082
:1018700084F8200000BFA06A30B32046A16A8847E0
:1018800022E094F84010082088402840E0B106F09B
:101890000800C8B12068006820F00E0021680860C8
:1018A00094F8401001208840E16B48600120A0635B
:1018B00084F8210000BF002084F8200000BF206BC6
:1018C00010B12046216B884770BD000080000240A7
:1018D000080402400146002209B9012070471E4B4E
:1018E000086898420BD21D4B0868C01A1423B0FB3D
:1018F000F3F08000086419480838C8630AE0164B02
:101900000868C01A1423B0FBF3F080000864124882
:101910000838C863022081F821000868026843F68D
:10192000F0708243D1E901031843CB6818430B6977
:1019300018434B6918438B691843CB69184302431A
:101940000868026000208863012081F821000020DF
:1019500081F8200000BFC1E70804024008000240EF
:101960002DE9F04104460D4616461F464FF000088B
:1019700000BF94F82000012802D10220BDE8F081C8
:10198000012084F8200000BF94F8210001282CD108
:10199000022084F821000020A0632068006820F065
:1019A0000100216808603B46324629462046FEF782
:1019B000A3FFE06A30B12068006840F00E002168A3
:1019C00008600BE02068006820F0040021680860CF
:1019D0002068006840F00A002168086020680068FC
:1019E00040F001002168086006E000BF002084F894
:1019F000200000BF4FF002084046BFE770B5044624
:101A000000F09AFA06462546681C10B10448007892
:101A1000054400BF00F090FA801BA842FAD370BDC5
:101A2000380000202DE9F04104460E46012700252C
:101A300000BF2648007E012802D10220BDE8F081C7
:101A400001202249087600BF2068022813D14CF2F9
:101A50005030FEF7E3FF90BB0120FEF765FF4CF22C
:101A60005030FEF7DBFF07461948006920F00400FC
:101A70001749086123E04CF25030FEF7CFFFF0B970
:101A80004FF0FF303060A56812E02846FEF760FF97
:101A90004CF25030FEF7C2FF07460D48006920F0B7
:101AA00002000B4908610FB1356007E005F50065DC
:101AB000D4E9021001EBC020A842E6D800BF00BF65
:101AC00000200249087600BF3846B7E7200400200E
:101AD000002002400348006940F08000014908618D
:101AE00000207047002002402DE9FE4F05468B463E
:101AF00017469846012600240020029000BF244883
:101B0000007E012802D10220BDE8FE8F012020497D
:101B1000087600BF4CF25030FEF780FF064686BBC9
:101B2000012D02D10120029006E0022D02D10220F7
:101B3000029001E00420029000241EE02201B94638
:101B4000C24648465146FEF70FFB80B20190022084
:101B500000FB04B000900199FEF70EFF4CF25030EC
:101B6000FEF75CFF06460B48006920F001000949BA
:101B7000086106B104E0601CC4B202988442DDDB57
:101B800000BF00BF00200249087600BF3046BBE717
:101B9000200400200020024000200849096901F0CB
:101BA000800151B10649054A51600649516011460C
:101BB000096901F0800101B1012070470020024055
:101BC00023016745AB89EFCD2DE9F8470246002395
:101BD0009C467BE14FF0010808FA03F4D1F800803D
:101BE00008EA0400A0427DD1DFF8F4A2D1F8048015
:101BF000A8EB0A09D0453AD014DCB8F1030F50D055
:101C000009DCB8F1000F31D0B8F1010F1CD0B8F1E8
:101C1000020F49D120E0B8F1110F18D0B8F1120F1E
:101C200042D11EE0B9F5881F25D006DCB9F5803F0A
:101C300020D0B9F5801F37D11AE0B9F5001F18D0B0
:101C4000B9F5041F30D117E0D1F80CC02DE0D1F860
:101C50000C8008F1040C28E0D1F80C8008F1080C85
:101C600023E0D1F80C8008F10C0C1EE000BF00BF8F
:101C700000BF00BF00BF00BFD1F80880B8F1000F5F
:101C800002D14FF0040C0BE0D1F80880B8F1010F3D
:101C900003D14FF0080C146102E04FF0080C5461BE
:101CA00003E04FF0000C00E000BF00BFFF2801D8A8
:101CB000904601E002F104084646FF2802D84FEAA8
:101CC000830803E0A3F108084FEA88084746D6F8DE
:101CD00000804FF00F0909FA07F928EA09080CFA01
:101CE00007F900E07AE048EA0908C6F80080D1F870
:101CF000048008F08058B8F1805F6FD100BFDFF832
:101D0000E481D8F8188048F00108DFF8D891C9F8C4
:101D10001880C846D8F8188008F00108CDF800806F
:101D200000BF00BF4FEAB9384FEA930958F829506D
:101D30004FEA83784FEA18794FF00F0808FA09F84C
:101D400025EA0805DFF8A081424502D14FF00008DE
:101D500024E0DFF89881424502D14FF001081DE0F0
:101D6000DFF88C81424502D14FF0020816E0DFF81F
:101D70008481424502D14FF003080FE0DFF87881FB
:101D8000424502D14FF0040808E0DFF87081424577
:101D900002D14FF0050801E04FF006084FEA8379C1
:101DA0004FEA197908FA09F848EA0505DFF8508181
:101DB0004FEA930948F82950D1F8048008F4803894
:101DC000B8F5803F0BD1DFF83C81D8F8008048EAB5
:101DD0000008DFF83091C9F800800AE075E0DFF80C
:101DE0002481D8F8008028EA0008DFF81891C9F8A3
:101DF0000080D1F8048008F40038B8F5003F0ED117
:101E0000DFF8008108F10408D8F8008048EA0008EB
:101E1000DFF8F09009F10409C9F800800DE0DFF85F
:101E2000E48008F10408D8F8008028EA0008DFF808
:101E3000D49009F10409C9F80080D1F8048008F4AD
:101E40008018B8F5801F0ED1DFF8B88008F10808B7
:101E5000D8F8008048EA0008DFF8A89009F10809DE
:101E6000C9F800800DE0DFF89C8008F10808D8F878
:101E7000008028EA0008DFF88C9009F10809C9F809
:101E80000080D1F8048008F40018B8F5001F0ED1C6
:101E9000DFF8708008F10C08D8F8008048EA0008E4
:101EA000DFF8609009F10C09C9F800800DE0DFF857
:101EB000548008F10C08D8F8008028EA0008DFF800
:101EC000449009F10C09C9F800805B1CD1F800802E
:101ED00028FA03F8B8F1000F7FF47CAEBDE8F8876C
:101EE000000011100010024000080140000C0140E9
:101EF000001001400014014000180140001C014086
:101F00000800014000040140024693680B400BB1F9
:101F1000012000E00020704710B5C26821EA0203EA
:101F200002EA010443EA0443036110BD0AB10161FE
:101F300001E00B040361704701480068704700002E
:101F4000300000200348006803490978084401492B
:101F500008607047300000203800002010B50848A5
:101F6000006840F0100006490860032000F0A8F85F
:101F7000002000F007F800F02BF8002010BD000052
:101F80000020024070B504460E4800784FF47A7184
:101F9000B1FBF0F00C490968B1FBF0F5284600F000
:101FA00079FF08B1012070BD102C07D20022214614
:101FB000501E00F047F80548046001E00120F2E7F8
:101FC0000020F0E7380000203C0000203400002012
:101FD00008B500BF1148806940F001000F498861D1
:101FE0000846806900F00100009000BF00BF00BFFC
:101FF0000846C06940F08050C8610846C06900F0DA
:102000008050009000BF00BF00BF0549486820F025
:10201000E06040F00070486000BF08BD0010024062
:102020000000014001460846002809DB00F01F03BC
:1020300001229A4043099B0003F1E023C3F80021E9
:1020400000BF70472DE9F05F80460D461646002719
:1020500003F096F8074639462A46334601F0070052
:10206000C0F1070ABAF1040F02D94FF0040A01E0E7
:10207000C0F1070AD14600F1040ABAF1070F02D2F3
:102080004FF0000A01E0A0F1030AD4464FF0010A24
:102090000AFA09FAAAF1010A0AEA020A0AFA0CFA89
:1020A0004FF0010B0BFA0CFBABF1010B0BEA030B2E
:1020B0004AEA0B042146404603F06AF8BDE8F09F67
:1020C00000BF00F00702064B19684FF6FF031940E6
:1020D000044B0B4343EA0221014B196000BF7047D8
:1020E0000CED00E00000FA0501200149086270478C
:1020F00000000E422DE9F04385B0064642A30FCB07
:1021000001AC0FC444A0006800904FF00008002507
:1021100000270024A146042E36D004DC012E3BD03B
:10212000022E6BD15FE0082E32D0102E66D13B48D4
:102130004468006800F0807000B301A8C4F38341D4
:10214000475C04F4803070B134484068C0F34040CC
:102150001DF8008004F4803040B13148B0FBF8F045
:1021600000FB07F502E02F4807FB00F52B4840680D
:1021700000F48000B0F5800F01D1A94603E06800AB
:102180000321B0FBF1F93AE000F0D2F9814636E0E4
:1021900000F0CEF9814632E02048046A04F4407031
:1021A000B0F5807F05D104F0020010B14FF4004972
:1021B00018E004F44070B0F5007F07D11748406A7A
:1021C00000F0020010B149F640490BE004F4407001
:1021D000B0F5407F06D11148006800F4003008B126
:1021E0004FF224490BE000F093F90C494968C1F320
:1021F0008131491C4900B0FBF1F900E000BF00BF8C
:10220000484605B0BDE8F083020304050607080947
:102210000A0B0C0D0E0F10100102000000100240FE
:1022200000127A0000093D00F8B50446002600259A
:10223000207800F0010000286BD000274348C069D7
:1022400000F0805070B900BF4048C06940F0805035
:102250003E49C8610846C06900F08050009000BF48
:1022600000BF01273A48006800F48070B0B93848D0
:10227000006840F4807036490860FFF75DFE06464E
:1022800006E0FFF759FE801B642801D90320F8BD42
:102290002F48006800F480700028F2D02B48006AB4
:1022A00000F440752DB3A08800F44070A84220D0FF
:1022B0002648006A20F44075012026490860002065
:1022C00008602248056205F0010090B1FFF734FE76
:1022D000064608E0FFF730FE801B41F28831884255
:1022E00001D90320D3E71948006A00F00200002852
:1022F000F0D01648006A20F4407061680843134922
:102300000862012F04D10846C06920F08050C861DE
:1023100000BF207800F00200022807D10B48406877
:1023200020F44040A168084308494860207800F044
:102330001000102807D10548406820F4800061692A
:102340000843024948600020A1E700000010024055
:10235000007000404004424270B504460D460CB97E
:10236000012070BD5A48006800F00700A8420ED254
:102370005748006820F00700284355490860084680
:10238000006800F00700A84201D00120E9E72078AA
:1023900000F0020002281DD1207800F0040004287B
:1023A00005D14C48406840F4E0604A4948602078D4
:1023B00000F00800082805D14648406840F4605005
:1023C000444948604348406820F0F000A168084351
:1023D00040494860207800F0010078B36068012827
:1023E00006D13C48006800F4003090B90120B8E7FD
:1023F0006068022806D13748006800F0007040B9D4
:102400000120AEE73348006800F0020008B901205F
:10241000A7E73048406820F00300616808432D4971
:102420004860FFF789FD064609E0FFF785FD801B40
:1024300041F28831884202D9032092E707E025481B
:10244000406800F00C006168B0EB810FEDD12048CE
:10245000006800F00700A8420ED91D48006820F06F
:10246000070028431A4908600846006800F0070082
:10247000A84201D0012074E7207800F0040004286D
:1024800007D11448406820F4E060E168084311492E
:102490004860207800F00800082808D10D484068FE
:1024A00020F46050216940EAC1000A49486000F008
:1024B0003FF808494968C1F30311074A515CC84015
:1024C0000649086006480068FFF75CFD002048E701
:1024D0000020024000100240A05900083C000020EB
:1024E0003400002001480068704700003C000020D4
:1024F00000B5FFF7F7FF04494968C1F30221034A19
:10250000515CC84000BD000000100240B0590008F6
:1025100000B5FFF7E7FF04494968C1F3C221034A48
:10252000515CC84000BD000000100240B0590008D6
:10253000F0B585B00FF26C0C9CE8E01001A8A0E8A3
:10254000E0101CA52D680095002100220023002426
:102550000020194D696801F00C05F5B1042D02D079
:10256000082D19D101E0154819E001ADC1F38346EA
:10257000AC5D01F4803555B10F4D6D68C5F3404534
:102580001DF805200D4D6543B5FBF2F302E00C4D3F
:1025900004FB05F3184602E000BF084800BF00BF77
:1025A00005B0F0BD02030405060708090A0B0C0D6F
:1025B0000E0F1010010200000010024000127A00FD
:1025C00000093D00F8B504460CB90120F8BD20789B
:1025D00000F00100002878D0F848406800F00C00B6
:1025E00004280CD0F548406800F00C00082811D1F0
:1025F000F248406800F48030B0F5803F0AD1EF48DF
:10260000006800F4003000285FD0606800285CD1CA
:102610000120DBE700BF6068B0F5803F06D1E748E6
:10262000006840F48030E549086028E0606858B9E7
:10263000E248006820F48030E049086008460068FD
:1026400020F4802008601AE06068B0F5A02F0BD15C
:10265000DA48006840F48020D849086008460068DD
:1026600040F4803008600AE0D448006820F48030EC
:10267000D24908600846006820F48020086000BF46
:10268000606888B1FFF758FC054606E0FFF754FC88
:10269000401B642801D9032098E7C848006800F46B
:1026A00000300028F2D010E0FFF746FC054606E0B7
:1026B000FFF742FC401B642801D9032086E7BF488E
:1026C000006800F400300028F2D1207800F0020009
:1026D000022857D1B948406800F00C0050B1B74803
:1026E000406800F00C00082818D1B448406800F495
:1026F000803098B9B148006800F0020020B120692C
:10270000012801D0012061E7AC48006820F0F80002
:10271000616940EAC100A949086033E02069E8B175
:102720000120A7490860FFF707FC054606E0FFF710
:1027300003FC401B022801D9032047E79F4800689B
:1027400000F002000028F2D09C48006820F0F80059
:10275000616940EAC1009949086013E00020984986
:102760000860FFF7E9FB054606E0FFF7E5FB401BC5
:10277000022801D9032029E79048006800F00200F0
:102780000028F2D1207800F0080008282DD1A06997
:10279000B8B101208B490860FFF7CEFB054606E083
:1027A000FFF7CAFB401B022801D903200EE783482C
:1027B000406A00F002000028F2D0012001F06CFC19
:1027C00013E000207F490860FFF7B6FB054606E0EE
:1027D000FFF7B2FB401B022801D90320F6E6774839
:1027E000406A00F002000028F2D1207800F00400D6
:1027F000042873D100277148C06900F0805070B977
:1028000000BF6E48C06940F080506C49C8610846FE
:10281000C06900F08050009000BF00BF01276A48E7
:10282000006800F48070B0B96748006840F48070B8
:1028300065490860FFF780FB054606E0FFF77CFB73
:10284000401B642801D90320C0E65F48006800F4FB
:1028500080700028F2D000BFE068012806D15748F8
:10286000006A40F001005549086227E0E06858B965
:102870005248006A20F00100504908620846006A88
:1028800020F00400086219E0E06805280BD14B48ED
:10289000006A40F00400494908620846006A40F0B6
:1028A000010008620AE04548006A20F0010043493F
:1028B00008620846006A20F00400086200BFE06871
:1028C000A0B1FFF739FB054609E0FFF735FB401BD8
:1028D00041F28831884202D9032077E622E0374866
:1028E000006A00F002000028EFD012E0FFF724FB9E
:1028F000054608E0FFF720FB401B41F28831884283
:1029000001D9032062E62D48006A00F00200002889
:10291000F0D1012F05D12948C06920F08050274906
:10292000C86100BFE069C8B32448406800F00C00EB
:10293000082860D0E069022848D1002020490866B4
:10294000FFF7FAFA054606E0FFF7F6FA401B022801
:1029500001D903203AE61948006800F00070002809
:10296000F2D1206AB0F5803F07D11448406820F4C6
:102970000030A168084311494860D4E908010843C0
:102980000E49496821F4741108430C49486001203C
:102990000B490866FFF7D0FA054607E03DE0FFF770
:1029A000CBFA401B022801D903200FE60348006838
:1029B00000F000700028F2D02FE00000001002406C
:1029C000000042428004424200700040002014494E
:1029D0000866FFF7B1FA054606E0FFF7ADFA401BBF
:1029E000022801D90320F1E50E48006800F00070CC
:1029F0000028F2D111E0E069012800D1E6E509489C
:102A0000466806F48031206A814204D106F47011D0
:102A1000606A814201D00120D8E50020D6E500009F
:102A2000000042420010024070B5044600250CB977
:102A3000012070BD607C20B900202074204600F089
:102A40005BF802206074204600F060F918B10420A1
:102A500060740120EDE7204601F03DFB18B1042031
:102A600060740120E5E72068406820F007002168D5
:102A70004860A06828B11F48006820F001001D4987
:102A800008601C48001F006820F46070A1680843BB
:102A90001849091F08606068401C08B1656809E0B2
:102AA0000120FFF727FB05461DB9042060740120B3
:102AB000BFE76D1E2068806820F00F0040EA1540D7
:102AC000216888602068C06865F30F002168C860CD
:102AD000204601F01DFB18B1042060740120A8E716
:102AE0000021E17301216173A17301206074002052
:102AF0009FE70000306C004038B504460B49206861
:102B0000884212D1FFF7F0FA00BF0948C06940F0CF
:102B100000600749C8610846C06900F00060009085
:102B200000BF00BF01200349086038BD00280040F5
:102B3000001002403C0442422DE9F04704460D4695
:102B4000904600260027B14604B115B90120BDE822
:102B5000F08700BF207C012801D10220F7E7012087
:102B6000207400BF02206074B8F1000F06D1E9782C
:102B7000E17369786173A978A1730BE0E87801F0DB
:102B80009FFAE073687801F09BFA6073A87801F00F
:102B900097FAA073A27B617BE07B01F0FCFA2073C3
:102BA000207B2870204601F0DCFA06464FF4616075
:102BB000B6FBF0F9B9F1180F2FD91820B9FBF0F0D6
:102BC00000EB4000C000C0EB4011C1EB0020A6EBC1
:102BD00000163146204601F037FB38B104206074FE
:102BE00000BF0020207400BF0120B0E7204601F0A4
:102BF000ACFA0746781C80B1B7420ED20B480744A6
:102C00003946204601F009FB38B10420607400BF4A
:102C10000020207400BF012099E70120607400BFEC
:102C20000020207400BF00BF91E700008051010028
:102C30002DE9F04704460D4690460026002704B1D2
:102C400015B90120BDE8F08700BF207C012801D123
:102C50000220F7E70120207400BF02206074B8F161
:102C6000000F0BD128784FF4616148436978C1EBBC
:102C7000011100EB8100A978461812E0287801F0D4
:102C80001FFA4FF4616100FB01F9687801F018FA4E
:102C9000C0EB001009EB8009A87801F011FA09EBEC
:102CA00000063146204601F0CFFA38B104206074A6
:102CB00000BF0020207400BF0120C3E720684068E7
:102CC00020F0050021684860204601F03EFA0746E2
:102CD000781C80B1B7420ED20B48074439462046D3
:102CE00001F09BFA38B10420607400BF002020740A
:102CF00000BF0120A6E70120607400BF00202074FF
:102D000000BF00BF9EE700008051010070B504467F
:102D100000250CB9012070BD2068406820F0080033
:102D200021684860FFF708F9054607E0FFF704F956
:102D3000401BB0F57A7F01D90320ECE7206840689A
:102D400000F008000028F1D00020E4E710B50446A8
:102D50000CB9012010BD606A38B96068B0F5827F97
:102D600000D105E00021E16102E000212161616103
:102D70000021A16294F8510028B9002084F8500085
:102D8000204600F043F8022084F8510020680068D3
:102D900020F0400021680860A08800F4827021893A
:102DA00001F404410843A18901F400610843217C36
:102DB00001F002010843217D01F001010843218B4C
:102DC00001F400710843217F01F0380108432021FC
:102DD000095D01F080010843218D01F40051084391
:102DE000216808600421A06901EA10402168486058
:102DF0002068C06920F400602168C8610020606517
:102E0000012084F851000020A4E7000010B586B02E
:102E10000446002002900390049005901A4920680F
:102E200088422FD100BF1948C06940F4804017493B
:102E3000C8610846C06900F48040019000BF00BF2F
:102E400000BF0846806940F0080088610846806934
:102E500000F00800019000BF00BF4FF42040029036
:102E6000022003900320059002A90948FEF7ACFE5A
:102E70004FF48040029000200390049002A904487F
:102E8000FEF7A2FE06B010BD003800400010024060
:102E9000000C014070B504462546681EB0F1807FE5
:102EA00001D301200FE0681E4FF0E02148610F219F
:102EB0004FF0FF3002F06CF900204FF0E021886104
:102EC00007200861002070BD7047704710B50346A9
:102ED000002200BF93F83C00012801D1022010BD60
:102EE000012083F83C0000BF22F0FF00CC6840EADC
:102EF000040222F440708C6840EA040222F48060EC
:102F00004C6840EA040222F400600C6840EA0402C3
:102F100022F480500C6940EA040222F400504C690B
:102F200040EA040222F48040CC6940EA04021868B6
:102F3000426400BF002083F83C0000BF00BFCEE722
:102F400030B502460B4600BF92F83C00012801D183
:102F5000022030BD012082F83C0000BF022082F830
:102F60003D00106844681068816824F07004186897
:102F7000044310684460144D1068A84213D0134DE8
:102F80001068A8420FD01068B0F1804F0BD0104DE0
:102F90001068A84207D00F4D1068A84203D00E4D0C
:102FA0001068A84205D121F08001586801431068DB
:102FB0008160012082F83D0000BF002082F83C00C3
:102FC00000BF00BFC5E70000002C014000340140F5
:102FD0000004004000080040000C004010B504460A
:102FE0000CB9012010BD94F83D0028B9002084F8E8
:102FF0003C00204600F026F8022084F83D00211D08
:10300000206801F0D7F9012084F8460000BF84F859
:103010003E0001213F20015540200155412001552E
:1030200000BF00BF012084F8420043200155442026
:1030300001554520015500BF012084F83D000020C6
:10304000D0E7000038B5044624492068884216D1EC
:1030500000BF2348C06940F010002149C8610846FC
:10306000C06900F01000009000BF00BF00221146B0
:103070003620FEF7E7FF3620FEF7D4FF2CE0194993
:103080002068884216D100BF1548C06940F0200072
:103090001349C8610846C06900F02000009000BFD5
:1030A00000BF002211463720FEF7CCFF3720FEF785
:1030B000B9FF11E00C49206888420DD100BF0848D3
:1030C000806940F40050064988610846806900F430
:1030D0000050009000BF00BF38BD0000001000404D
:1030E000001002400014004000340140014691F8F5
:1030F0003D00012801D001207047022081F83D00E9
:103100000868C06840F001000B68D860164B08687A
:10311000984213D0154B086898420FD00868B0F158
:10312000804F0BD0124B0868984207D0114B0868AB
:10313000984203D0104B086898420CD10868806808
:1031400000F00702062A0CD00868006840F0010071
:103150000B68186005E00868006840F001000B6823
:1031600018600020C8E70000002C01400034014036
:103170000004004000080040000C00402DE9F04130
:1031800004460D4600BF94F83C00012802D10220FD
:10319000BDE8F081012084F83C0000BF022084F8E3
:1031A0003D002068866826F0770626F47F46206872
:1031B00086602868502833D00CDC202850D004DCEE
:1031C00000284BD0102851D149E0302849D0402860
:1031D0004CD139E060282DD0702807D0B0F5805F41
:1031E00003D0B0F5005F41D10DE040E0D5E9021316
:1031F0006A68206801F03DF92068866846F0770625
:103200002068866033E0D5E902136A68206801F01F
:1032100030F92068806840F480402168886026E0AA
:10322000EA686968206801F015FA5021206801F009
:103230002BF91CE0EA686968206801F01EFA602139
:10324000206801F021F912E0EA686968206801F05D
:1032500001FA4021206801F017F908E000BF00BF23
:1032600000BF2968206801F00FF900E000BF00BF2F
:10327000012084F83D0000BF002084F83C0000BF1E
:1032800000BF85E7704710B5044620680069C0F3A9
:103290004000D8B12068C068C0F34000B0B16FF002
:1032A000020021680861012020772068806900F011
:1032B000030018B12046FFF7E5FF05E0204600F0C7
:1032C000D9F8204600F089F90020207720680069AD
:1032D000C0F38000D8B12068C068C0F38000B0B1EE
:1032E0006FF004002168086102202077206880695F
:1032F00000F4407018B12046FFF7C4FF05E02046F7
:1033000000F0B8F8204600F068F900202077206827
:103310000069C0F3C000D8B12068C068C0F3C00025
:10332000B0B16FF0080021680861042020772068A0
:10333000C06900F0030018B12046FFF7A3FF05E0C5
:10334000204600F097F8204600F047F9002020774B
:1033500020680069C0F30010D8B12068C068C0F3CD
:103360000010B0B16FF010002168086108202077CC
:103370002068C06900F4407018B12046FFF782FF52
:1033800005E0204600F076F8204600F026F90020FF
:1033900020772068006900F0010058B12068C068FB
:1033A00000F0010030B16FF0010021680861204693
:1033B00000F08EF920680069C0F3C01058B1206891
:1033C000C068C0F3C01030B16FF0800021680861A0
:1033D0002046FFF779FD20680069C0F3801058B1DE
:1033E0002068C068C0F3801030B16FF040002168E1
:1033F0000861204600F06DF920680069C0F34010B4
:1034000058B12068C068C0F3401030B16FF02000A0
:10341000216808612046FFF758FD10BD10B586B041
:103420000446002002900390049005900E49206805
:10343000884217D100BF0D48806940F010000B4949
:1034400088610846806900F01000019000BF00BF4D
:103450004FF47070029002200390059002A9044876
:10346000FEF7B2FB06B010BD003401400010024070
:1034700000100140704770B504460D46164600BF67
:1034800094F83C00012801D1022070BD012084F88D
:103490003C0000BF36B1042E1BD0082E31D00C2EBC
:1034A0005ED145E02946206800F0F8FF2068806979
:1034B00040F00800216888612068806920F00400DD
:1034C00021688861206880692969084321688861CA
:1034D00047E02946206801F019F82068806940F427
:1034E0000060216888612068806920F4806021681C
:1034F000886120688069296940EA01202168886123
:103500002FE02946206801F03FF82068C06940F0AC
:1035100008002168C8612068C06920F004002168A3
:10352000C8612068C069296908432168C86118E03A
:103530002946206801F064F82068C06940F4006002
:103540002168C8612068C06920F480602168C86172
:103550002068C069296940EA01202168C86100E04B
:1035600000BF00BF00BF002084F83C0000BF00BFC8
:103570008BE710B504460CB9012010BD94F83D004E
:1035800028B9002084F83C00204600F025F80220ED
:1035900084F83D00211D206800F00CFF012084F814
:1035A000460000BF84F83E0001213F200155402025
:1035B00001554120015500BF00BF012084F84200A1
:1035C00043200155442001554520015500BF0120ED
:1035D00084F83D000020D0E77047704770B504467E
:1035E0000D4615B994F83E000BE0042D02D13F20A2
:1035F000005D06E0082D02D14020005D01E0412081
:10360000005D012801D0012070BD1DB9022084F8A1
:103610003E000EE0042D03D102213F20015508E0B9
:10362000082D03D102214020015502E00221412052
:10363000015501222946206800F00AFF1F49206831
:10364000884203D01E492068884201D1012000E051
:10365000002028B12068406C40F400402168486494
:1036600016492068884213D01549206888420FD037
:103670002068B0F1804F0BD012492068884207D0F3
:1036800011492068884203D01049206888420CD133
:103690002068806800F00706062E0CD020680068BD
:1036A00040F001002168086005E02068006840F0F3
:1036B0000100216808600020A6E70000002C0140FE
:1036C000003401400004004000080040000C0040AD
:1036D00070477047704700002DE9F04704462068A6
:1036E00005682068C668206847694FF00008C14631
:1036F00005F00F08B8F1000F0AD105F0200038B12D
:1037000006F0200020B1204601F0FCFBBDE8F08768
:10371000B8F1000F71D007F0010018B906F49070ED
:1037200000286AD005F0010030B106F4807018B1AD
:10373000E06B40F00100E06305F0040030B107F0F9
:10374000010018B1E06B40F00200E06305F00200F8
:1037500030B107F0010018B1E06B40F00400E06305
:1037600005F0080048B106F0200010B907F001008C
:1037700018B1E06B40F00800E063E06B68B305F05F
:10378000200028B106F0200010B1204601F0BAFB5D
:1037900020684069C0F38019E06B00F0080010B9A0
:1037A000B9F1000F22D0204600F085FF2068406963
:1037B00000F04000B0B12068406920F0400021686E
:1037C0004861606B50B11848616B4863606BFDF7EE
:1037D000E1FD10B1606B416B88470CE02046FFF7BC
:1037E00079FF08E02046FFF775FF04E02046FFF769
:1037F00071FF0020E06389E7FFE705F0800030B14A
:1038000006F0800018B1204601F04AFC7EE705F082
:10381000400030B106F0400018B1204600F05BFFD8
:1038200074E700BF72E70000A346000810B5044625
:103830000CB9012010BDA06900B100E000BF94F8F0
:10384000390028B9002084F83800204600F028F814
:10385000242084F839002068C06820F400502168D2
:10386000C860204601F09EFB2068006920F490406B
:10387000216808612068406920F02A0021684861B9
:103880002068C06840F400502168C8600020E063F0
:10389000202084F8390084F83A000020CAE70000AC
:1038A00010B586B004460020029003900490059065
:1038B0003C492068884237D100BF3B48806940F4CA
:1038C0008040394988610846806900F48040019051
:1038D00000BF00BF00BF0846806940F00400886157
:1038E0000846806900F00400019000BF00BF481541
:1038F0000290022003900320059002A92B48FEF7B6
:1039000063F94FF48060029000200390049002A9B4
:103910002648FEF759F9002211462520FEF792FBB2
:103920002520FEF77FFB3AE021492068884236D106
:1039300000BF1D48C06940F480201B49C86108468B
:10394000C06900F48020019000BF00BF00BF08469E
:10395000806940F0080088610846806900F008002E
:10396000019000BF00BF08150290022003900320C1
:10397000059002A90F48FEF727F94FF40060029066
:1039800000200390049002A90A48FEF71DF90022C6
:1039900011462720FEF756FB2720FEF743FB06B013
:1039A00010BD000000380140001002400008014036
:1039B00000480040000C014010B5034693F83A005F
:1039C00020282FD101B10AB9012010BD00BF93F802
:1039D0003800012801D10220F7E7012083F83800E0
:1039E00000BF99629A85DA850020D863222083F887
:1039F0003A0000BF002083F8380000BF1868C06894
:103A000040F480701C68E0601868406940F0010074
:103A10001C6860611868C06840F020001C68E060A5
:103A20000020D2E70220D0E7704710B5034693F894
:103A30003900202823D101B10AB9012010BD00BFEF
:103A400093F83800012801D10220F7E7012083F81C
:103A5000380000BF19629A84DA840020D8632120DC
:103A600083F8390000BF002083F8380000BF1868D1
:103A7000C06840F080001C68E0600020DEE70220A3
:103A8000DCE7704700BFFEE70EB500200090019014
:103A900002904448444908608115434881600121EF
:103AA0000173002101754FF46021C16100203E497E
:103AB00048600A213C480161FDF71EF908B1FCF796
:103AC00032FF0A20009001200190032002906946F5
:103AD0003548FDF75DF808B1FCF725FF0B20009095
:103AE0000220019069463048FDF752F808B1FCF712
:103AF0001AFF0C2000900320019069462A48FDF728
:103B000047F808B1FCF70FFF0D200090042001904A
:103B100069462548FDF73CF808B1FCF704FF002092
:103B200000900520019069461F48FDF731F808B163
:103B3000FCF7F9FE012000900620019069461A4822
:103B4000FDF726F808B1FCF7EEFE022000900720F2
:103B5000019069461448FDF71BF808B1FCF7E3FE35
:103B6000032000900820019069460F48FDF710F8E7
:103B700008B1FCF7D8FE06200090092001906946A4
:103B80000948FDF705F808B1FCF7CDFE07200090C5
:103B90000A20019069460448FCF7FAFF08B1FCF7D7
:103BA000C2FE0EBD00240140400000201CB50020D4
:103BB000009001900E480F4908600846FDF74CFB45
:103BC00008B1FCF7B0FE0020009002200190002216
:103BD00069460848FDF706FB08B1FCF7A4FE102271
:103BE00069460448FDF7FEFA08B1FCF79CFE1CBDCF
:103BF00000740040B400002008B500BF0A484069C6
:103C000040F00100084948610846406900F00100A1
:103C1000009000BF00BF002211460B20FEF712FAF1
:103C20000B20FEF7FFF908BD0010024000B585B07B
:103C30000020019002900390049000BF54488069D6
:103C400040F01000524988610846806900F0100079
:103C5000009000BF00BF00BF0846806940F0200010
:103C600088610846806900F02000009000BF00BF16
:103C700000BF0846806940F00400886108468069FA
:103C800000F00400009000BF00BF00BF084680693C
:103C900040F0080088610846806900F00800009044
:103CA00000BF00BF002242F620413A48FEF73EF92D
:103CB000002241F204013848FEF738F900224FF49F
:103CC00019413648FEF732F901224FF4407132486B
:103CD000FEF72CF942F620400190012002900020CE
:103CE00003900220049001A92A48FDF76DFF1020DF
:103CF000019000200290039001A92648FDF764FF7F
:103D000041F2040001900120029000200390022063
:103D1000049001A92048FDF757FF4FF41940019086
:103D200001200290002003900220049001A91B486A
:103D3000FDF74AFF4FF480500190002002900120CF
:103D4000039001A91348FDF73FFF042001900020D4
:103D500002900120039001A91148FDF735FFF820DA
:103D60000190002002900120039001A90A48FDF76C
:103D70002BFF4FF44070019011200290002003901F
:103D80000220049001A90448FDF71EFF05B000BD04
:103D90000010024000100140000C014000080140EA
:103DA000001401401CB500200190009021482249D8
:103DB00008604FF0FF3048604FF480711E4881600A
:103DC000FEF732FE08B1FCF7AEFD1A481A4908604A
:103DD0004FF0FF304860002117488160FEF724FE55
:103DE00008B1FCF7A0FD17208DF8040005208DF820
:103DF000050000208DF80600012201A90E48FEF7FB
:103E000017FF08B1FCF78FFD01208DF8000012208C
:103E10008DF8010016208DF8020020208DF8030097
:103E2000012269460448FEF787FE08B1FCF77BFDD6
:103E30001CBD000000280040C800002010B50E483E
:103E40000E4908604FF48270486000210B48816081
:103E5000C160016141614FF4007181610021C16164
:103E60000162416281620A21C162FEF76FFF08B1FF
:103E7000FCF759FD10BD000000380040DC000020B8
:103E80001CB50020009001900E480F49086041F6D3
:103E90001F40486000210C4881606321C1600021FF
:103EA0008161FFF79BF808B1FCF73DFD0020009011
:103EB000019069460448FFF743F808B1FCF733FD69
:103EC0001CBD000000100040340100201CB5002083
:103ED000009001900E480F49086041F61F4048606D
:103EE00000210C48816042F20F71C16000218161A4
:103EF000FFF774F808B1FCF716FD00200090019060
:103F000069460448FFF71CF808B1FCF70CFD1CBD1E
:103F1000001400407C01002000B595B000201190F5
:103F20001290139014900F9010901C2108A8FCF789
:103F300032F920216846FCF72EF9374837490860E6
:103F40000120486000213548816040F61601C160BB
:103F500000210161416180218161FFF73FF808B1D3
:103F6000FCF7E1FC4FF48050119011A92B48FFF7AA
:103F700005F908B1FCF7D7FC2848FFF7FAFA08B1B1
:103F8000FCF7D1FC00200F9010900FA92348FEF7FA
:103F9000D7FF08B1FCF7C7FC60200890002009900B
:103FA0000A900B900C900D900E90002208A91B48CF
:103FB000FFF761FA08B1FCF7B6FC042208A917481C
:103FC000FFF759FA08B1FCF7AEFC082208A913481C
:103FD000FFF751FA08B1FCF7A6FC0C2208A90F481C
:103FE000FFF749FA08B1FCF79EFC00200090019011
:103FF0000290039004904FF4005005900020079029
:1040000069460648FEF762FF08B1FCF78CFC0348DE
:10401000FFF704FA15B000BD00340140C4010020D0
:1040200010B50B480B4908604FF41640486000215A
:1040300008488160C16001610C21416100218161FA
:10404000C161FFF7F3FB08B1FCF76DFC10BD000088
:10405000003801400C02002010B50B480B490860E5
:104060004FF416404860002108488160C16001613A
:104070000C21416100218161C161FFF7D7FB08B1CB
:10408000FCF751FC10BD0000004800404C0200202D
:1040900000BFFEE77047704708B508490968C908BE
:1040A0004FF47A72B1FBF2F14143009100BF00BFBF
:1040B00000994A1E00920029F9D108BD3C00002059
:1040C000014600BF080900EB8000420001F00F002C
:1040D0001044C0B2704770B504460025FDF72CFFB0
:1040E000054607E0FDF728FF401BB0F57A7F01D9B0
:1040F000032070BD2068406800F020000028F1D047
:104100002068406840F01000216848600020F0E717
:1041100070B5044600252068406820F01000216832
:104120004860FDF709FF054607E0FDF705FF401B66
:10413000B0F57A7F01D9032070BD2068406800F097
:1041400020000028F1D00020F6E7014600220023DD
:104150000868006A82B20868406A83B243EA024093
:10416000704730B5014600220023002400200D686E
:10417000AD69AAB20D68ED69ACB20D68AD69ABB2BC
:104180009A4205D00D68ED6963F31F45284601E0AA
:1041900044EA024030BDF0B504460B46002100253C
:1041A00004F5FA61032B1BD2C3EBC30000EB031031
:1041B0000926B0FBF6F01044001D4618481E06EB19
:1041C00090066427B0FBF7F0361A481EBF00B0FB1C
:1041D000F7F030440726B0FBF6F706FB17051AE0A8
:1041E000C3EBC30000EB03100926B0FBF6F010444C
:1041F000001D084400EB91006426B1FBF6F6801B1D
:104200004FF4C876B1FBF6F63044801E0726B0FBAB
:10421000F6F706FB1705E8B2F0BD70B504460D468B
:1042200000262046FFF757FF08B101260AE0280CB8
:1042300021680862A8B2216848622046FFF768FF3B
:1042400000B10126304670BD70B504460D4600260B
:104250002046FFF740FF08B101260AE0280C21683C
:104260008861A8B22168C8612046FFF751FF00B1FC
:104270000126304670BD000030B503460020064DD3
:104280005C1900BF05E0256841F82050241D451C3D
:10429000A8B29042F7D330BD00F803087047000081
:1042A0002DE9F041044609486043C4F5805190FB74
:1042B000F1F52846FCF7B8FA07460549FBF776FF03
:1042C0000646FCF7DDF8BDE8F0810000A08601009D
:1042D0000000204110B5FDF735FE10BD00B595B0CA
:1042E00028210BA8FBF757FF142106A8FBF753FF63
:1042F00018216846FBF74FFF05200B904FF48030E4
:104300000C9000200D9001200E900F900220129032
:10431000C10313914FF4E01114910BA8FEF752F969
:1043200008B1FCF700FB0F20069002200790002048
:1043300008904FF48060099000200A90022106A89E
:10434000FEF70AF808B1FCF7EEFA032000904FF4EC
:10435000807001904FF4404002906846FDF764FF82
:1043600008B1FCF7E0FA15B000BD704710B500F0D9
:1043700007F80248FEF787FF10BD00003401002057
:1043800002480088401C0149088070471000002046
:1043900010B500F007F80248FEF775FF10BD0000E9
:1043A0007C01002002480088401C014908807047B9
:1043B0001200002010B50268204B98420ED0204B0E
:1043C00098420BD0B0F1804F08D01E4B984205D0D8
:1043D0001D4B984202D01D4B984203D122F070022F
:1043E0004B681A43154B98420ED0154B98420BD090
:1043F000B0F1804F08D0134B984205D0124B984231
:1044000002D0124B984203D122F44072CB681A4377
:1044100022F080034C6943EA040202608B68C362A5
:104420000B688362054B984202D0054B984201D13C
:104430000B6903630123436110BD0000002C0140A0
:10444000003401400004004000080040000C00401F
:1044500030B501F01F05012404FA05F3046A9C43FA
:104460000462046A01F01F0502FA05F52C43046298
:1044700030BD30B50C46816821F47F4142EA032506
:1044800025432943816030BD0A46816821F07001CF
:1044900042F00703194381607047000030B5056A98
:1044A00025F001050562026A4368846924F07004FE
:1044B00024F003040D682C4322F002028D682A4385
:1044C000104DA84200D103E00F4DA84206D100BF15
:1044D00022F00802CD682A4322F00402094DA842C6
:1044E00002D0094DA84207D123F4807323F400734E
:1044F0004D692B438D692B43436084614D6845634F
:10450000026230BD002C01400034014030B5056A24
:1045100025F010050562026A4368846924F4E044CA
:1045200024F440740D6844EA052422F020028D68CA
:1045300042EA0512124DA84200D103E0114DA842F3
:1045400007D100BF22F08002CD6842EA051222F0B6
:1045500040020B4DA84202D00A4DA84209D123F4D3
:10456000806323F400634D6943EA85038D6943EA60
:104570008503436084614D688563026230BD00003D
:10458000002C01400034014030B5056A25F48075E7
:104590000562026A4368C46924F0700424F00304CD
:1045A0000D682C4322F400728D6842EA0522124DF8
:1045B000A84200D103E0114DA84207D100BF22F468
:1045C0000062CD6842EA052222F480620A4DA842C8
:1045D00002D00A4DA84209D123F4805323F400539A
:1045E0004D6943EA05138D6943EA05134360C461CD
:1045F0004D68C563026230BD002C014000340140AB
:1046000030B5056A25F480550562036A4468C269BD
:1046100022F4E04222F440720D6842EA052223F4BB
:1046200000538D6843EA0533084DA84202D0084D77
:10463000A84204D124F480444D6944EA85144460BE
:10464000C2614D680564036230BD0000002C01406A
:104650000034014030B50B461446026A056A25F065
:1046600001050562816921F0F00141EA041122F09F
:104670000A021A438161026230BD30B50B4614460E
:10468000056A25F0100505628169026A21F470410E
:1046900041EA043122F0A00242EA0312816102627F
:1046A00030BD70B505466C6A0020E085E084204688
:1046B000FFF710F870BD0168C96821F490710268B5
:1046C000D1600168496921F001010268516120212E
:1046D00080F83A10704710B504462068C06820F092
:1046E00040002168C860202084F839002046FFF788
:1046F000C8F9002010BD00002DE9F0470024FE4855
:104700000078401CFC490870FC48006800F020005C
:1047100000286ED0FA480078401CF9490870F74824
:10472000001D0068F7490870F748007800286FD12D
:1047300008460078F54908700846007831382A287C
:1047400067D2DFE800F08797A7B7C7D7F2F0EF6628
:10475000666666666666EE486666202E1577EDEC40
:10476000EBEA666666576666E967E8E76666663C92
:104770004F20E74908700122E648FFF756F93F202D
:10478000E549087080E10120E44908804520E049BE
:1047900008700122DF48FFF748F93F20DE49087022
:1047A00072E10020DD4908804620D94908700122C5
:1047B000D848FFF73AF93F20D749087064E1D84854
:1047C0000078D34908700122D248FFF72EF93F2024
:1047D000D149087058E10120D24908804220CC49D3
:1047E00008700122CB48FFF720F93F20CA49087022
:1047F0004AE159E30020CB4908805020C4490870A1
:104800000122C448FFF711F93F20C34908703BE17A
:104810003BE132E1C4480088000ABD490870C24843
:10482000008848700222BB48FFF7FFF83F20BA49D2
:10483000087029E1BD480088000AB5490870BB48E6
:10484000007848700222B348FFF7EFF83F20B249E2
:10485000087019E1B6488088000AAD490870B4486C
:10486000007948700222AB48FFF7DFF83F20AA49E1
:10487000087009E1AF48008A000AA5490870AD48F0
:10488000007C48700222A348FFF7CFF83F20A249DE
:104890000870F9E0A748808A000A9D490870A54879
:1048A000007D487002229B48FFF7BFF83F209A49DD
:1048B0000870E9E09F480089000A954908709D4802
:1048C000007A487002229348FFF7AFF83F209249E0
:1048D0000870D9E097488089000A8D49087095488A
:1048E000007B487002228B48FFF79FF83F208A49DF
:1048F0000870C9E08E48008B000A854908708C4812
:10490000007E487002228348FFF78FF83F208249DB
:104910000870B9E09DE098E093E0AAE0A5E0A0E08F
:104920009BE034E022E010E0FFE78148808B000A42
:10493000774908707E48007F487002227548FFF76B
:1049400074F83F20744908709EE07948008C000A92
:104950006F490870764890F82000487002226D4830
:10496000FFF763F83F206C4908708DE07048808C39
:10497000000A674908706E4890F8240048700222C7
:104980006448FFF752F83F20634908707CE0FF203D
:104990005F49087080216848FDF7B6FA28B95C487D
:1049A000007800F0FE005A49087040216248FDF787
:1049B000ABFA28B95648007800F0FD005449087059
:1049C00020215D48FDF7A0FA28B95148007800F091
:1049D000FB004F49087010215748FDF795FA28B998
:1049E0004B48007800F0F700494908700821524808
:1049F000FDF78AFA28B94648007800F0EF004449EC
:104A0000087004214D48FDF77FFA28B94048007826
:104A100000F0DF003E4908704FF480514848FDF730
:104A200073FA28B93A48007800F0BF003849087096
:104A3000012237493748FEF7F8FF3F203649087012
:104A400022E00120304908701EE001202E49087044
:104A50001AE001202C49087016E001202A4908704C
:104A600012E00120284908700EE001202649087054
:104A70000AE001202449087000BF00202249087084
:104A80003F202549087000BF09E21F48007801282F
:104A90007DD11C4800782B4908701C4800784C28B0
:104AA00076D006DC492874D04A2873D04B2872D1BE
:104AB000BEE0532804D055286ED056286BD1B4E000
:104AC0002048007800F0010028B10122D1021C48E2
:104AD000FDF72CFA05E000224FF400611848FDF7BD
:104AE00025FA1848007800F0020068B3012291020C
:104AF0001348FDF71BFA2EE02B0000200038014080
:104B00002C00002021000020220000202300002093
:104B1000260000200C0200202000002014000020AD
:104B20000200002000000020160000201C000020D1
:104B3000CC030020F4030020000C014000140140CD
:104B40000010014024000020FFE700224FF48061A4
:104B5000D648FDF7EBF9D648007800F0040028B1FC
:104B60000122D103D348FDF7E1F905E000224FF41B
:104B70000041D048FDF7DAF9CD48007800F0080090
:104B800058B101221103CB48FDF7D0F90BE05CE0EE
:104B90004FE04BE04BE050E046E000224FF4805104
:104BA000C448FDF7C3F9C248007800F0100028B1EE
:104BB0000122D102BF48FDF7B9F905E000224FF408
:104BC0000061BC48FDF7B2F9B948007800F0200058
:104BD00028B101221102B748FDF7A8F905E000222B
:104BE0004FF48071B348FDF7A1F9B148007800F0A7
:104BF000400028B101220421AF48FDF797F904E0F5
:104C000000220421AC48FDF791F94F20AB49087010
:104C10000020AB4908703F20AA4908700122A7492B
:104C2000A948FEF702FF0FE000BF00BF00BF00BFB2
:104C300000BF0220A249087006E00020A0490870C9
:104C40003F20A049087000BF29E19D480078022854
:104C5000FAD19E4800789E4908709E4800784C28FA
:104C60007ED006DC49287CD04A287BD04B2840D116
:104C7000CAE0552802D05628F9D13BE08C4800788C
:104C80009349097801EB002084B2B4F57A7F03DD03
:104C900045208A49087021E08F4804600A220146B5
:104CA000002000F041FA8C490868FBF7CAFB8146F6
:104CB000FBF718FC0746894A894BFBF750FB054672
:104CC000FBF7F7FB87490880084603880022114656
:104CD0008548FCF70DFB4F20784908700020784983
:104CE00008703F2077490870012274497648FEF722
:104CF0009CFED3E06E4800787549097801EB0020EE
:104D000084B2B4F57A7F03DD45206C49087021E058
:104D1000714844600A220146002000F005FA6E49FD
:104D20004868FBF78EFB8146FBF7DCFB07466B4AC6
:104D30006B4BFBF714FB0546FBF7BBFB694908808F
:104D400008460388002210216748FCF7D1FA4F205B
:104D50005A49087000205A4908703F20594902E01A
:104D600077E007E02BE00870012254495648FEF72F
:104D70005CFE93E04E4800785549097801EB00202D
:104D80005A49088008460088B0F5FA6F03DD4520CF
:104D90004A49087007E05548008855490968486342
:104DA0004F20464908700020454908703F2045497A
:104DB0000870012241494448FEF737FE6EE03C4846
:104DC00000784349097801EB00204A4908800846E9
:104DD0000088B0F5FA6F03DD45203849087007E018
:104DE000444800884249096888634F203349087065
:104DF0000020334908703F203249087001222F49B2
:104E00003148FEF712FE49E0294800783049097818
:104E100001EB00203849088008460088B0F5FA6F99
:104E200003DD45202549087007E0334800883049F4
:104E30000968C8634F202149087000202049087084
:104E40003F202049087001221C491F48FEF7EDFD54
:104E500024E0174800781E49097801EB0020274913
:104E6000088008460088B0F5FA6F03DD4520134935
:104E7000087007E0214800881D49096808644F2030
:104E80000E49087000200E4908703F200D49087037
:104E900001220A490C48FEF7C8FD00BF00BF0122ED
:104EA00008491748FEF788FDBDE8F087001001406B
:104EB0002400002000080140000C014026000020D2
:104EC00022000020200000200C02002021000020F1
:104ED0002500002023000020F4030020E17A14AE16
:104EE0004761104004000020B400002008000020AA
:104EF000C40100200A0000200C0000200E00002049
:104F00004C02002070B5044694F83A00222847D19C
:104F1000A068B0F5805F0CD1206950B90025A66A61
:104F200020684068C0F308003080A06A801CA0623E
:104F300015E0A56A0026A068B0F5805F03D0A068E0
:104F400028B9206918B920684068287004E02068F2
:104F5000406800F07F002870A06A401CA062E08DCD
:104F6000401E80B2E085C8B92068C06820F02000EB
:104F70002168C8602068C06820F480702168C8601B
:104F80002068406920F0010021684861202084F8F1
:104F90003A002046FEF748FD002070BD0020FCE7E7
:104FA0000220FAE770B504462168096921F44051EE
:104FB000E2681143226811612269A16811436269A4
:104FC00041EA02052168C96841F20C629143294314
:104FD0002268D1602168496921F44071A2691143B6
:104FE000226851612D4A2168914202D1FDF790FA61
:104FF00001E0FDF77DFA00EBC00101EB00116268F2
:105000009200B1FBF2F100EBC00202EB0012636808
:105010009B00B2FBF3F26423B2FBF3F202EBC20398
:1050200003EB0212A1EB8201322202EB0111642296
:10503000B1FBF2F101F0F00100EBC00202EB001253
:1050400063689B00B2FBF3F26423B2FBF3F201EB63
:10505000021200EBC00101EB001163689B00B1FB81
:10506000F3F100EBC00303EB00136668B600B3FB7B
:10507000F6F36426B3FBF6F303EBC30606EB031368
:10508000A1EB8301322303EB01116423B1FBF3F1A4
:1050900001F00F0111442268916070BD0038014099
:1050A000014691F83900212828D18868B0F5805F41
:1050B0000BD1086948B90A6A1088C0F308000B6868
:1050C0005860086A801C086205E00B6A581C086278
:1050D00018780B685860C88C401E80B2C88458B9D4
:1050E0000868C06820F080000B68D8600868C06855
:1050F00040F040000B68D860002070470220FCE7B9
:1051000010B5FFF7F9FA0248FEF7E6FA10BD000005
:105110000C02002010B50248FEF7DEFA10BD0000B8
:105120004C02002000BFFEE72DE9F04786B006469E
:105130008946924611483518FCF72EFD0020029052
:105140000495012005900020019001A902A8FCF718
:1051500069FC00240BE059F82400C31707463A46BF
:1051600029460220FCF7C0FC2D1D601C84B254456A
:10517000F1D3FCF7AFFC06B0BDE8F08700F80308F8
:1051800002480068C0F30220704700000CED00E008
:1051900010B5002804DB0A07130E054A135406E075
:1051A0000A07140E034A00F00F031B1FD45410BD4E
:1051B00000E400E018ED00E002E008C8121F08C19A
:1051C000002AFAD170477047002001E001C1121F88
:1051D000002AFBD1704700001FB500BF4FF0000947
:1051E000FCF7BCFEFFF77AF8FEF720FDFEF704FDA2
:1051F000FEF74AFCFEF71AFDFEF746FCFEF7D6FC6A
:10520000FEF71CFEFEF788FEFEF70AFFFEF724FFFE
:10521000FEF7F2FCFEF7C6FDFEF732FEFEF756FE85
:10522000FE48FDF763FFFE48FDF760FF0021FD48E3
:10523000FEF7D4F90421FB48FEF7D0F90821F9481C
:10524000FEF7CCF90C21F748FEF7C8F900224FF41D
:105250000051F548FCF76AFE00224FF40061F24865
:10526000FCF764FE00224FF48061EF48FCF75EFE1D
:1052700000224FF40041ED48FCF758FE00224FF4A5
:105280008051EA48FCF752FE00224FF40061E748E3
:10529000FCF74CFE00224FF48071E448FCF746FE18
:1052A00000220421E248FCF741FE0122E149E248E4
:1052B000FEF782FBE148FBF73DFEE048FBF7E6FB2B
:1052C0001420FCF79BFBA022DD49DC48FBF7CAFE5B
:1052D0000A20FCF793FB0021DA48FCF71FF81021A5
:1052E000D848FCF71BF80A22D7490020FEF7C4FF74
:1052F000D548006864280DDBD3480068B0F5617FAD
:1053000008DCD1484068642804DBCF484068B0F529
:10531000617F14DD4FF44870CB4908604FF425706D
:105320004860002088614FF4C87088614FF47A703B
:105330008861400088610A220020FFF7F5FE0A22FA
:10534000C1490020FEF798FF00224FF40041B74802
:10535000FCF7ECFD00224FF40061B348FCF7E6FDDA
:1053600000224FF48061B048FCF7E0FDB6490868C0
:10537000FBF775F80746B54AB54BFAF7F0FF054657
:10538000FBF797F8B3490880AF494868FBF767F81F
:105390000746AE4AAE4BFAF7E2FF0546FBF789F83F
:1053A000AD490880AB48038800221146A548FBF7A9
:1053B0009FFFA948038800221021A248FBF798FF0D
:1053C000A14880699749096848639F48C069954921
:1053D000096888639C48006A92490968C8639A48CA
:1053E000406A90490968086400208E49096848634A
:1053F0004FF4C8708B49096888634FF47A70894903
:105400000968C86340008749096808641420FCF7EC
:10541000F5FA0020914908808146002404E000202C
:105420004DF82400601C84B2042CF8DB00208C4969
:1054300008809DE2894800880C280DD2DFE800F042
:10544000060D48587B989CEC0C0CEBEA85480088CC
:10545000012801D1814908803DE10122D10373482F
:10546000FCF764FD78490868FAF7F9FF0746774AC0
:10547000774BFAF774FF0546FBF71BF87549088070
:1054800071494868FAF7EBFF0746704A704BFAF724
:1054900066FF0546FBF70DF86F4908806D480388E5
:1054A000002211466748FBF723FF6B480388002260
:1054B00010216448FBF71CFF0122D1025A48FCF777
:1054C00035FD00206849088002206449088002E117
:1054D000654800881E2800DAFDE061480088012840
:1054E00002D103205D49088032205F490880F2E044
:1054F000554881680068C838814215DD5248816886
:105500000068C83081420FDA4F48C1684068C83827
:10551000814209DD4C48C1684068C830814203DAE5
:1055200004204E49088005E000204F4908800720EC
:105530004A490880CFE044480069B0F5617F13DD37
:105540004148006940F24C4188420DDA3E484069CA
:10555000B0F5527F08DD3C484069B0F55C7F03DA66
:1055600005203E49088002E006203C490880B2E060
:1055700003203A490880AEE033484069B0F5527FD5
:105580001EDA31484068B0F5AF7F04DD2E48406830
:1055900014382D4948602C494868FAF760FF0746DF
:1055A0002A4A2B4BFAF7DBFE0546FAF782FF2A4917
:1055B000088008460388002210212248FBF798FE45
:1055C00021484069B0F55C7F1FDD1F4840681E49D7
:1055D0000968884204DA1C48406814301A49486057
:1055E00019494868FAF73BFF0546184A184BFAF77D
:1055F000B6FE0746FAF75DFF17490880084603889C
:10560000002210210F48FBF773FE00201649088086
:1056100007202BE042E035E02BE0000034010020C1
:105620007C010020C401002000100140000801405E
:10563000000C0140200000200C020020400000204F
:105640008C020020B4000020F4030020E17A14AEA4
:1056500047611040040000200600002002000020E6
:10566000140000200000002012000020C149088022
:1056700031E0C1480088042800DA2CE00320BD494D
:10568000088028E001229102BC48FCF74FFC002072
:10569000B94908800B20B74908801CE0B64800884B
:1056A0000F2800DA17E000224FF40041B448FCF75D
:1056B0003DFC00224FF40061B048FCF737FC0022AB
:1056C0004FF48061AD48FCF731FC0020A949088007
:1056D000AC49088000BF00BF8021AB48FCF714FC38
:1056E00090B91420FCF78AF98021A748FCF70CFC3C
:1056F00050B91420FCF782F98021A348FCF704FC80
:1057000010B901209F49088040219F48FCF7FCFB0D
:1057100090B91420FCF772F940219B48FCF7F4FB88
:1057200050B91420FCF76AF940219748FCF7ECFBCC
:1057300010B90020934908809248008850B98D48DC
:105740000088002806DD8B4800880A2802DA0A2033
:10575000884908808D48008850B98648008801280B
:1057600006DD844800880A2802DA02208149088080
:10577000002405E00020864941F82400601C84B222
:105780000A2CF7DB002483E08148006804EB8401E5
:10579000002202EB41017F4A32F8111008447C4993
:1057A00008600846406804EB8401012202EB4101D5
:1057B000784A32F8111008447549486008468068F4
:1057C00004EB8401022202EB4101724A32F811100B
:1057D00008446F4988600846C06804EB84010322CE
:1057E00002EB41016B4A32F8111008446849C86065
:1057F0000846006904EB8401042202EB4101654A7A
:1058000032F811100844624908610846406904EB07
:105810008401052202EB41015E4A32F8111008446E
:105820005B4948610846806904EB8401062202EB6B
:105830004101584A32F81110084455498861084618
:10584000C06904EB8401072202EB4101514A32F89E
:10585000111008444E49C8610846006A04EB8401EF
:10586000082202EB41014B4A32F811100844484922
:1058700008620846406A04EB8401092202EB4101F8
:10588000444A32F81110084441494862601C84B20D
:10589000102CFFF679AF002408E03D4850F82400B2
:1058A00000093B4941F82400601C84B20A2CF4DB57
:1058B000374800694FF47A714843000B36498860D5
:1058C000334840694FF47A714843000B3249C8604D
:1058D0002F4900980969084400902D4901984969A9
:1058E000084401902A49029889680844029028498E
:1058F0000398C9680844039009F101001FFA80F970
:10590000B9F1140F24DB002407E05DF82400B0FB9C
:10591000F9F04DF82400601C84B2042CF5DB40F64D
:10592000980102984843000B1B49086140F6980112
:1059300003984843000B18494861002404E0002004
:105940004DF82400601C84B2042CF8DB4FF00009F1
:105950000F49098888B2FEF7A3FC00B20F490880FE
:105960006420FCF74BF84FF400510448FCF7D4FADC
:1059700060E500000200002012000020001001403D
:105980000008014000000020000C0140140000202D
:10599000CC0300208C020020F4030020160000201D
:1059A00000000000000000000102030406070809CF
:1059B00000000000010203041847320088702F0025
:1059C000D8C82C00204C2A0060FA2700C8CB25003C
:1059D00058C0230028D421003807200088591E0011
:1059E00048C31C00A83C1B0090C91900D0711800C6
:1059F000982D1700E8FC1500D8DB140050CE1300DA
:105A000068D0120038DE1100A8FB1000E82010005A
:105A1000C8550F0040930E0070DC0D002C300D00B7
:105A2000488D0C00C4F30B0074620B0058D90A00B7
:105A300044570A0043DA0900E863090030F408001B
:105A4000548A08005426080067C70700906D0700B5
:105A5000681807008CC70600FC7A0600C4300600F0
:105A600074EA0500A8A7050060680500382C050049
:105A700030F30400E4BC040054890400805804009E
:105A8000A0290400B4FC0300BCD103001BA903003F
:105A900070820300545D03002C3A0300F8180300E1
:105AA000F0F8020078DA020090BD02006FA1020057
:105AB000E0860200186D0200E0540200D43D0200AE
:105AC000902702007812020028FE0100A0EA0100DF
:105AD00044D801004CC6010080B5010018A50100A2
