:020000040800F2
:10000000501900204501000839520008B94B00087A
:1000100035520008B514000805690008000000000A
:10002000000000000000000000000000655400080F
:10003000B5150008000000003B520008915500086B
:100040005F0100085F0100085F0100085F01000810
:100050005F0100085F0100085F0100085F01000800
:100060005F0100085F0100085F01000879150008C2
:100070005F0100085F0100085F0100085F010008E0
:100080005F0100085F0100085F0100085F010008D0
:100090005F0100085F0100085F0100085F010008C0
:1000A0005F0100085F0100085F0100085F010008B0
:1000B000295600085F0100085F0100085F01000881
:1000C0005F0100085F0100085F0100085F01000890
:1000D0005F0100081D6600085F0100082D6600082A
:1000E0005F0100085F0100085F0100085F01000870
:1000F0005F0100085F0100085F0100085F01000860
:100100005F0100085F0100085F0100085F0100084F
:100110005F0100085F010008395600085D560008BD
:100120005F0100085F0100085F0100085F0100082F
:10013000DFF80CD000F052FF00480047397C00087F
:10014000501900200648804706480047FEE7FEE7B2
:10015000FEE7FEE7FEE7FEE7FEE7FEE7FEE7FEE777
:100160002756000831010008202A04DB203A21FA32
:1001700002F00021704721FA02F3D040C2F12002C0
:100180009140084319467047A0F14101192900D850
:100190002030704740EA01039B0703D009E008C9FB
:1001A000121F08C0042AFAD203E011F8013B00F83C
:1001B000013B521EF9D27047D2B201E000F8012B88
:1001C000491EFBD270470022F6E710B513460A46D7
:1001D00004461946FFF7F0FF204610BD421C10F8F8
:1001E000011B0029FBD1801A704710B5002200E0E6
:1001F000521C835C8C5CA34201D1002BF8D1D8B295
:10020000E1B2401A10BD034611F8012B00F8012B92
:10021000002AF9D11846704730B50546002003463C
:1002200000E05B1C934205D2EC5CC85C201A01D153
:10023000002CF6D130BD000070B50F4D00B9286814
:10024000002412E00A4602E09E4203D0521C1378BA
:10025000002BF9D1DAB2224305D02BB124B1002111
:1002600000F8011B04E00446401C0678002EE9D18A
:100270002860204670BD0000A40000200FB400B527
:100280008DB010A909900B9000914FF0FF300A90AB
:1002900000200C9005480690054807906A4609A87A
:1002A0000F9900F067FD0DB05DF814FB910D00088B
:1002B000AF0D00082DE9FF5F1D464FF0FF3BD5E96C
:1002C000014691465F464FF00008A9697F1C0198DE
:1002D0008847296A824688470028F6D1BAF1FF3F4D
:1002E0000CD024F4C064002E19DD600614D5BAF1D8
:1002F0002B0F09D0BAF12D0F0ED103E0584604B0F0
:10030000BDE8F09F44F48064A9697F1C0198884788
:10031000761E8246002E02DDBAF1300F03D0B9F10D
:10032000000F26D032E0A969761E44F400747F1CC9
:10033000019888478246002E05DDBAF1780F06D075
:10034000BAF1580F03D0B9F1000F10D01EE0B9F187
:10035000000F02D0B9F1100F18D1A969761E24F44C
:1003600000747F1C019888478246102002E0082014
:1003700000E00A20814609E008FB0908A969761E09
:1003800044F400747F1C019888478246002E05DDE6
:100390004946504600F0DAFC0028EDDAE969019898
:1003A0008847A00502D46FF00100A8E7E00725D137
:1003B000600613D5600502D5C8F1000000E0404694
:1003C00029680A1D2A600968220501D5087015E010
:1003D000220701D5088011E008600FE02868011DA0
:1003E00029600068210502D580F8008006E0210719
:1003F00002D5A0F8008001E0C0F8008038467EE712
:100400002DE9FF4F087883B09946FF2805D0491C95
:100410002D2804D00024002008E000200BE0012457
:10042000F9E700EB800003EB4000491C0B78FF2B41
:10043000F7D104B1404200230293147819461D46B7
:100440002D2C01D02B2C04D1521C2D2C13D0002488
:100450000294AA461478FF2C0FD00A25A3FB057836
:1004600001FB05814FF0000C03FB0C11521CE3193A
:100470004AEB0101EEE70124EAE7814453EA010077
:1004800002D019F5C87F06DA03980021C0E90011EF
:1004900007B0BDE8F08F0025AE4E2F46DFF8B882DA
:1004A000184600F077FDCDE90001B9F1000002DA4D
:1004B000C9F1000400E004460023A74A1AEB030B2D
:1004C00042EB045A12E0E00707D02A46334638468A
:1004D000414600F01EFA074688462A463346104633
:1004E000194600F016FA05460E466410002CEAD1B3
:1004F000DDE90001B9F1000F5A46534606DA00F073
:100500007AFA3A46434600F076FA05E000F001FA3E
:100510003A46434600F0FDF9029A0AB181F00041E3
:10052000039AC2E90001B3E72DE9FF4F1F468DB0E2
:10053000D7E901464FF0FF382E2045464FF000091D
:100540000B90B9696D1C0E988847396A82468847B6
:100550000028F6D1BAF1FF3F0AD024F4D064002E6F
:1005600011DDBAF12B0F08D0BAF12D0F0BD102E03B
:10057000404611B08DE744F48064B9696D1C0E9853
:1005800088478246761E6946600501D52D2000E029
:100590002B208DF8000001F1010B0DF1200809E07E
:1005A000B9696D1C0E98884782460F9844F4007410
:1005B000761E0560002E02DDBAF1300FF0D00B99E7
:1005C0008A453ED144F0800406E00F99681CA9F1E9
:1005D000010944F400740860B9696D1C761E0E9818
:1005E000884782463028F0D02BE00B998A4505D108
:1005F000200603D444F08004761E18E0504606F02E
:1006000007FB08B30DF11301761E44F400748B450B
:1006100008D2AAF130000BF8010B200607D5A9F18A
:10062000010003E0200602D409F101008146A00583
:1006300002D50F99681C0860B9696D1C0E9888472F
:100640008246002ED1DC53E0002E51DDBAF1650F59
:1006500002D0BAF1450F4BD1A00549D5B9696D1C3F
:1006600024F44074761E0E9888478246002E0CDDD6
:100670002B2804D0BAF12D0F07D144F48074B96946
:100680006D1C0E9888478246761EE00501D52D2107
:1006900000E02B2108F8011BCDF82C8021E00DF1A2
:1006A0002901761E44F4007488450CD2AAF130006A
:1006B00010F0FF0088F8000002D10B99884509D995
:1006C00008F1010806E0E00501D5244801E042F206
:1006D0000F708146B9696D1C0E98884782460F9845
:1006E0000560002E04DD504606F092FA0028D6D1AF
:1006F000F9690E988847FF208BF8000088F8000001
:100700000020069007904B466A4608A906A8FFF706
:1007100077FEA00502D46FF001002AE714F0240F41
:100720000AD0E00714D1DDE906123868031D3B60EA
:100730000068C0E900120BE0DDE9060100F082FA72
:100740000146E00704D13868021D3A600068016084
:1007500028460EE7000014400000F03FF1D8FFFFEC
:1007600080EA010210B502F00043400022D04A00A6
:100770001FD0010E01EB1261C0F35600C2F3560206
:1007800040F4000042F40002A0FB022000047F3984
:10079000140400D0401C50EA124001D44000491E0D
:1007A000C2B20C0604EBD010401C4008802A02D0D4
:1007B00003E0002010BD20F00100002900DA002035
:1007C000184310BD2DE9FE4F804681EA0300C00F9B
:1007D0000C46009021F0004123F00045B8EB0200E8
:1007E000A94105D24046214690461C460B4602468A
:1007F00023F00040104347D0270DC7F30A00C3F38E
:100800000A510290401A019040286BDAC3F313009A
:1008100040F4801B0098924620B10023D2EB030ADB
:1008200063EB0B0B01985946C0F14002504600F0B3
:100830006CFA06460D4650465946019A00F074FA85
:1008400010EB08006141002487EA115284EAE77343
:100850001A4340D0009A62B3019A012A4FEA075224
:1008600015DC001B61EB02014FF0004202EA075267
:10087000CDE90042001C41F5801132462B4600F0C4
:100880003BFB03B0BDE8F08F40462146F9E7001B73
:1008900061EB0201001C41F5801300185B41201838
:1008A000A2F5001747EB030140EAD570B6196D4178
:1008B00011E06D084FEA360645EAC0754FEA075267
:1008C000001B61EB0201001C41F5801149084FEA51
:1008D00030000019514132462B4603B0BDE8F04FBD
:1008E00000F0FBBA0098012240000023D0EB020286
:1008F00063EBE073009821464FEAE074B8EB000028
:1009000061EB0401E9E783F000435BE781F000411C
:1009100058E72DE9FE4F81EA030404F0004421F07A
:10092000004100944FF0000B23F0004350EA010413
:100930005ED052EA03045BD0C3F30A54C1F30A55F4
:100940002C44A4F2F3340194A0FB0254C1F313012C
:1009500041F48011C3F3130343F4801301FB0244F9
:1009600000FB034E840A970A44EA815447EA8357FE
:10097000A4FB076802958D0A05FB07854FEA932CB7
:1009800004FB0C542705029D4FEA065847EA163728
:10099000B5EB08056EEB070C870E920E47EA811740
:1009A00042EA8312A7FB0201B6EB0B0164EB0004E1
:1009B0002B0D43EA0C335E1844EB1C50DA465146CB
:1009C000E7FB0201C5F313044FEA0B3343EA145368
:1009D0004FEA0432019C43EA0603A4F10C0402949A
:1009E000009CCDE900B400F087FA03B0BDE8F08FB9
:1009F00000200146F9E72DE9F04D81EA030404F0F7
:100A0000004B21F0004514464FF0000A23F000414E
:100A100050EA050220D054EA01021DD0C5F30A575E
:100A20000246C5F31303C1F31300C1F30A5640F4A1
:100A3000801543F48013A7EB0608101BD64608F276
:100A4000FD3873EB050002D308F1010801E09218AC
:100A50005B41B8F1000F03DA00200146BDE8F08DDC
:100A600000204FF48011064684460EE0171B73EBFE
:100A7000050705D3121B63EB050306434CEA010C83
:100A800049084FEA300092185B4150EA0107EDD166
:100A900052EA030012D082EA040083EA0501084307
:100AA00005D0101BAB4106D20122002306E0002234
:100AB0004FF0004302E06FF0010253101AEB060002
:100AC0004CEB085110EB0A0041EB0B01BDE8F04D77
:100AD00000F003BA96230022114600F0D0B90EB5FB
:100AE000C10F80EAE0700844CA07002140F2334396
:100AF0008DE80E000A460B4600F0FEF903B000BD7B
:100B00000EB540F2334102910021CDE900110A46B1
:100B10000B4600F0F1F903B000BD00F0004220F0F8
:100B20000040C10DC0F3160040F400007F2901DA37
:100B300000207047962903DCC1F19601C84001E00E
:100B400096398840002AF4D04042704770B5C1F30E
:100B50000A5201F000450024C1F3130140F2FF33B3
:100B600041F480119A4201DA002070BD40F2334313
:100B70009A42A2F2334203DC5242FFF7F5FA00E058
:100B800090402C43F1D0404270BDC1F30A5210B5E1
:100B9000C1F3130140F2FF3341F480119A4201DAAC
:100BA000002010BD40F233439A42A2F2334203DCEC
:100BB0005242FFF7D9FA10BD904010BD00F000423C
:100BC00030F000400AD0C10D01F56071C0F316008D
:100BD00042EA0151C2084007114370470020014614
:100BE0007047000030B5041E71F1000404DB4FF0C3
:100BF0000044404264EB0101141E73F1000405DB64
:100C00001C464FF00043524263EB04038B4208BF83
:100C1000824230BD30B5041E71F1000404DB4FF098
:100C20000044404264EB0101141E73F1000405DB33
:100C30001C464FF00043524263EB0403994208BF45
:100C4000904230BD01F0004330B421F0004150EA41
:100C5000010206D00A0DA2F56072C1F31301002A49
:100C600002DC30BC00207047440F44EAC104C100DC
:100C7000E01830BC00EBC25000F0F8B830B50B46BD
:100C8000014600202022012409E021FA02F59D42BC
:100C900005D303FA02F5491B04FA02F52844151E90
:100CA000A2F10102F1DC30BD2DE9F05F0546002024
:100CB00092469B4688460646814640241BE02846CD
:100CC000414647462246FFF74FFA53465A46C01A56
:100CD000914110D311461846224600F016F82D1AFD
:100CE00067EB01084F4622460120002100F00DF875
:100CF00017EB00094E41201EA4F10104DFDC484639
:100D000031462A464346BDE8F09F202A04DB203ABC
:100D100000FA02F1002070479140C2F1200320FA4E
:100D200003F3194390407047202A06DBCB17203A83
:100D300041FA02F043EAE07306E041FA02F3D040E0
:100D4000C2F1200291400843194670473A2800D268
:100D5000303820F02002412A01D3A2F13700884226
:100D600001D34FF0FF3070470268114413780160DF
:100D700018467047D160044951610449116200214D
:100D80001161114600F042B9690D00080110000818
:100D9000426842B1016811F8013B23B1521EC0E91B
:100DA0000012184670470121C160881E70474268D2
:100DB0005AB1C368016843B983688B4205D0491EA4
:100DC000521CC0E90012002070474FF0FF307047FE
:100DD0000FB4002300B589B00CA900910B996FF0F6
:100DE0000042CB601E4B06931E4B07930423CDE9B4
:100DF00001321D4A089202466B460020FFF794FB21
:100E000009B05DF814FB70B586B006464FF0FF30B0
:100E10000091CDE90101002015460C4604903246B0
:100E2000694604A8FFF7D4FF02460498211825B1AB
:100E300008B1084600E020462860049800280DD03C
:100E4000002A02DD0098884208D0081B0094CDE9F2
:100E500001043246694604A8FFF7BAFF06B070BD28
:100E6000910D0008AF0D0008011000080029A8BF6F
:100E70007047401C490008BF20F00100704710B4C3
:100E8000B0FA80FC00FA0CF050EA010404BF10BC78
:100E9000704749B1CCF1200421FA04F411FA0CF1A5
:100EA00018BF012121430843A3EB0C01CB1D4FEADE
:100EB00000614FEA102042BF002010BC704700EBD9
:100EC000C35010440029A4BF10BC7047401C490007
:100ED00008BF20F0010010BC704710B5141E73F15C
:100EE000000408DA401C41F1000192185B411A43EA
:100EF00001D120F0010010BD2DE9F04D92469B4636
:100F000011B1B1FA81F202E0B0FA80F220329046DB
:100F1000FFF7FBFE04460F4640EA0A0041EA0B01D8
:100F200053465A46084313D0114653EA010019D0DC
:100F3000C8F140025046FFF717F905460E465046E5
:100F400059464246FFF7E1FE084305D0012004E080
:100F500020463946BDE8F08D0020054346EAE0769C
:100F60002C4337430A986305E40AA0EB08000022EB
:100F7000FD0A44EA47540A3002D500200146E9E759
:100F8000010510196941DDE9084500196941BDE80D
:100F9000F04DA2E70EB540F2334202920022CDE9B5
:100FA00000221346FFF7A8FF03B000BDC1F30A52A9
:100FB000C1F3130140F2FF3341F480119A4202DA87
:100FC00000200146704740F233439A42A2F2334276
:100FD00002DC5242FFF7C8B8FFF797BE064C074D38
:100FE00006E0E06840F0010394E8070098471034F9
:100FF000AC42F6D3FFF7A0F8B09D0008D09D0008E2
:10100000C0B24FF4F05100F097B900002DE9F34F52
:101010008BB04FF0000801F10C000C464FF0010BB3
:1010200046460DF1080A0190626901210198904736
:10103000051E2DD0252D2CD0216A8847C0B16269AC
:10104000012101989047216A88470028F7D1411E65
:1010500062690198904700E0761CA1690B98884767
:10106000216A88470028F7D1E1690B988847DBE7B8
:10107000A1690B9888470746A84201D1761CD3E79F
:10108000E1690B9888477F1C02D1B8F1000F6FD03F
:1010900046E1002762693D463946019890472A2873
:1010A00004D162690121019890470125DFF88492FB
:1010B0006269012101989047A0F130010A290AD202
:1010C0004F45E5DC07EB870100EB4107303FDFD4FC
:1010D00045F01005ECE7E90601D46FF000476C28F5
:1010E0000AD04C2814D0682815D06A280DD074284E
:1010F0001CD07A281AD01DE062690121019890471E
:101100006C2802D045F0040514E045F002050DE01E
:1011100045F020050AE0626901210198904768289E
:1011200002D045F0080505E045F40065626901213B
:1011300001989047C4E9015765283DD019DC58282B
:101140007AD00CDC452837D004DC252826D041286D
:1011500031D131E046282FD047282CD12CE05B2814
:1011600077D0612828D063287CD0642823D15AE026
:10117000D0E06F2848D008DC66281DD067281BD037
:10118000692821D06E2816D127E0702845D0732811
:1011900068D0752847D078280DD14DE0A1690B980B
:1011A0008847054625283FF469AFE1690B988847D1
:1011B0006D1C3FF46AAFB3E023466A466FF001004E
:1011C0000B99FFF7B1F99EE045F040006060A80779
:1011D00023464FF0000236D43EE0E8077FF447AFE5
:1011E0002068011D21600068290501D506701BE7F4
:1011F000290701D5068017E7A90703D5F117C0E92C
:10120000006111E706600FE745F040006060A80745
:1012100023464FF0080216D41EE040F60E0125EAE0
:101220000100606016E045F040006060A8072346BA
:101230004FF00A0207D40FE045F040006060A807B5
:1012400008D5234610226FF001000B99AFF3008000
:1012500059E007E0234610226FF001000B99FFF7D9
:1012600029F850E04FF000094F464B46632802D062
:101270005B2806D040E0E80601D40120A0600127E9
:101280003AE062690121019890475E2805D14FF04C
:1012900001096269494601989047216939B90021DD
:1012A0000A46534643F82120491C0829FADBB0B30B
:1012B000216969B9C11700EBD16253110AEB8301AF
:1012C00022F01F02821A01200B68904003430B603A
:1012D00062690121019890475D28E8D1B9F1000FBA
:1012E00009D00020514651F82020D24341F8202057
:1012F000401C0828F7DB02AB224600976FF0010084
:101300000B99AFF3008000280CDA401C08D1BBF128
:10131000000F05D04FF0FF300DB0BDE8F08FFFE7B4
:101320004046F9E7E90701D108F1010806444FF00A
:10133000000B79E6CCCCCC0C7F2801D9002208E048
:10134000064A02EB5002C007127800D1120902F0DF
:101350000F0201209040084070470000389C0008B0
:1013600070B5044600252068806800F00100F0B1E7
:101370002068806820F001002168886001F08AFD03
:1013800005460EE001F086FD401B022809D9A06A3F
:1013900040F01000A062E06A40F00100E06201202D
:1013A00070BD2068806800F001000028EAD10020AC
:1013B000F6E770B505466C6AA06A00F05000E0B927
:1013C000A06A40F40070A0622068806800F4602089
:1013D000B0F5602F0DD1207B58B9A06A20F4807041
:1013E000A062A06A00F4805018B9A06A40F0010021
:1013F000A062204600F02AFC03E0206A016B284628
:10140000884770BD70B505466C6AA06A40F0400020
:10141000A062E06A40F00400E062204600F018FCA0
:1014200070BD70B50446656A284600F010FC70BDBA
:1014300038B504460025002000902068806800F040
:10144000010080BB2068806840F00100216888604E
:10145000164800681649B0FBF1F0009002E00098D1
:10146000401E009000980028F9D101F013FD0546B8
:1014700013E001F00FFD401B02280ED9A06A40F0D6
:101480001000A062E06A40F00100E06200BF0020AE
:1014900084F8240000BF012038BD2068806800F077
:1014A00001000028E5D00020F6E7000050000020F1
:1014B00040420F0000BFFEE72DE9F04F89B007461C
:1014C00046254B2648E0284850F82500B84203D26C
:1014D0002E46681FC5B23FE0234850F82600B842A8
:1014E00003D93546701DC6B236E02C4630E01E49A1
:1014F000601C51F82000B84228D2084650F8240059
:10150000C01B1A4951F82410B0FBF1FB5846FFF7F5
:10151000E1FA8246A4F132085046FFF74FFB144A25
:10152000144BCDE90001FFF7F4F9CDE90401404681
:10153000FFF7D5FACDE90201DDE90423FFF742F90F
:10154000CDE90601FFF77EFB814603E0601CC4B2D3
:10155000B442CCDD00BF01E0B542B4DB00BF484679
:1015600009B0BDE8F08F000034970008B899000872
:101570009A9999999999B93F10B5024800F08CFF52
:1015800010BD0000E000002030B590F8405001246C
:10159000AC40C56B6C60046863604468102C04D177
:1015A0000468A2600468E16003E00468A160046864
:1015B000E26030BD7047704770B504460D46164670
:1015C0001848007808B1002070BD06F0CFF8012857
:1015D00004D10020134908700120F5E7324629465E
:1015E000204606F0D7F9012804D100200D490870E3
:1015F0000120E9E706F06EF8012804D1002009492E
:1016000008700120E0E70120064908700021064823
:10161000006800F00BF84FF47A7001F09DF900209B
:10162000D2E70000A20000202C00002002460AB9E8
:10163000012070479068506009B91068106100205F
:10164000F7E770B504460D46164604B10DB9012002
:1016500070BD182005F0E2F92060206808B902206A
:10166000F6E7284605F0DAF9216848612068406904
:1016700008B90220ECE7206805602068406921680D
:10168000886020684169681E08442168C860206835
:10169000806821684860206805610020D8E7F0B5BF
:1016A00004460E4615461F460CB90120F0BD3946CA
:1016B000204600F039F808B90420F7E760680078A0
:1016C0003070E1686068884203D135B1A06860601D
:1016D00003E015B16068401C60600020E6E7F0B5EB
:1016E00004460D4616461F460CB90120F0BD39468A
:1016F000204600F019F8B04201D20420F6E700209D
:101700000EE06168097805F8011BE26861689142A2
:1017100002D1A168616002E06168491C6160401CFF
:10172000B042EEDB0020E1E730B502460B462BB1BC
:10173000D468641C094DED6D611B03E0D468641C22
:101740001569611B5468081B002806DAD468641CFC
:101750005568641B95684D1B601930BD0000024040
:101760000021074AD1610749096941F00401054A8E
:1017700011611146096941F0400111617047000093
:10178000D8060020002002400021074AD161074905
:10179000096941F00201054A116111464861096970
:1017A00041F0400111617047D8060020002002403E
:1017B0000022054BDA61054A126942F00102034B2F
:1017C0001A61018070470000D80600200020024006
:1017D00000201E49C96801F0100139B11C49C969CE
:1017E00041F002011A4AD16140F010001749C9685E
:1017F00001F0040139B11649C96941F00101144AE7
:10180000D16140F004001149C96901F0010169B1D9
:101810000F49C96941F004010D4AD16100BF0B496C
:10182000C96921F00101094AD16100BF00BF40F23E
:101830000111884206D10549C96921F00101034A15
:10184000D16101E00149C86000BF7047002002403B
:10185000D806002070B5044601F01CFB054609E0DF
:10186000601C38B124B101F015FB401BA04201D926
:10187000032070BD1248C06800F001000028EFD1BD
:101880000F48C06800F0200020B100BF20200C49A4
:10189000C86000BF0A48C06800F0100048B9084896
:1018A000C06900F0010020B90548C06800F00400DC
:1018B00018B1FFF78DFF0120DBE70020D9E700001A
:1018C000002002402DE9F05F82464FF0000B00251A
:1018D00000260027A8460024A14605F0C9FD0546BC
:1018E00005B93EE0224805F0CFFD064606B938E0CE
:1018F000324620A1284605F0ABFD1F4805F0C4FD87
:10190000074607B92DE03A461CA1284605F0A0FD80
:101910001C4805F0B9FD8046B8F1000F00D120E069
:10192000424619A1284605F093FD05F0A1FD0446A5
:1019300004B916E0224616A1284605F089FD504656
:1019400005F0A2FD8146B9F1000F00D109E04A4639
:1019500011A1204605F07CFD284605F06FFE834668
:1019600000BF284605F0A2FD5846BDE8F09F0000E4
:101970007900002069640000830000206D657468B0
:101980006F6400009D00002076657273696F6E00C1
:10199000706172616D7300004441544100000000A9
:1019A0002DE9F04F89B004460D4616461F46DDE985
:1019B00014ABDDE912894FF496710948FEF703FC78
:1019C000DDE916102B4622468DE8C00FCDE9061042
:1019D0000449034804F0C4FF014809B0BDE8F08F92
:1019E00024080020349D0008F8B504460026002095
:1019F000009000BF94F82400012801D10220F8BD16
:101A0000012084F8240000BF2046FFF7A9FC064609
:101A1000002E62D1A06A20F4885040F00200A0623B
:101A2000022001F015FB30490968B1FBF0F04000DD
:101A3000009002E00098401E009000980028F9D124
:101A40002046FFF7F5FC2068806840F00800216818
:101A5000886001F01FFA054611E001F01BFA401BF7
:101A60000A280CD9A06A20F0020040F01000A06201
:101A700000BF002084F8240000BF0120BFE72068D9
:101A8000806800F008000028E7D12068806840F0F6
:101A900004002168886001F0FDF9054611E001F0BD
:101AA000F9F9401B0A280CD9A06A20F0020040F086
:101AB0001000A06200BF002084F8240000BF0120B5
:101AC0009DE72068806800F004000028E7D1A06A44
:101AD00020F0020040F00100A06200BF002084F866
:101AE000240000BF30468AE75000002038B5024687
:101AF00000230020009000BF92F82400012801D1AB
:101B0000022038BD012082F8240000BF4868072861
:101B100012D21068406B0C79641E04EB84051F24FC
:101B2000AC40A0430D796D1E05EB85050C68AC40FB
:101B300020431468606327E048680D2812D21068BB
:101B4000006B0C79E41F04EB84051F24AC40A04318
:101B50000D79ED1F05EB85050C68AC40204314683A
:101B6000206311E01068C06A0C790D3C04EB840519
:101B70001F24AC40A0430D790D3D05EB85050C6895
:101B8000AC4020431468E06208680A2812D3106849
:101B9000C0680C780A3C04EB44050724AC40A04321
:101BA0000D780A3D05EB45058C68AC402043146870
:101BB000E0600FE0106800690C7804EB440507242E
:101BC000AC40A0430D7805EB45058C68AC40204344
:101BD000146820610868102802D00868112827D1ED
:101BE000174C1068A0421ED11068806800F40000F5
:101BF000F0B91068806840F400001468A0600868BC
:101C0000102815D10F4800680F4CB0FBF4F000EB22
:101C100080004000009002E00098401E0090009874
:101C20000028F9D104E0906A40F02000906201237E
:101C300000BF002082F8240000BF184661E70000C2
:101C4000002401405000002040420F0070477047C0
:101C5000704700002DE9F0410446002700250026CA
:101C6000A84614B90120BDE8F081A06810B1207D1C
:101C700000B100BFA06A30B90020E06284F82400FF
:101C8000204600F097F82046FFF76AFB0746A06A57
:101C900000F01000002873D1002F7ED1A06A20F43C
:101CA000885040F00200A0623F4AD4E9000190420F
:101CB00008D1E069B0F5402F02D14FF4002002E0D6
:101CC000E06900E0E0690143207B41EA400006430F
:101CD000A068B0F5807F02D0A068012802D14FF43F
:101CE000807000E000200543207D012811D1207B79
:101CF00038B9A069401E4FF4006141EA4030054305
:101D000007E0A06A40F02000A062E06A40F0010015
:101D1000E0622068406820F46940284321684860F8
:101D20002068806821490840304321688860A068A5
:101D3000B0F5807F02D0A068012802D14FF48070F6
:101D400000E00020B0F5807F03D1208A401E4FEADA
:101D500000582068C06A20F4700040EA080021683A
:101D6000C8622068806812490840B04209D100204A
:101D7000E062A06A20F0020040F00100A06211E0E1
:101D80000BE0A06A20F0020040F01000A062E06AC0
:101D900040F00100E062012704E0A06A40F010007A
:101DA000A062012738465EE7003C0140FDF7E1FFF5
:101DB000FE0E1FFF10B586B004460020029003906F
:101DC000049005902C492068884253D100BF2B48CD
:101DD000806940F40070294988610846806900F4F0
:101DE0000070019000BF00BF00BF0846806940F04E
:101DF000100088610846806900F01000019000BF63
:101E000000BF00BF0846806940F0040088610846B2
:101E1000806900F00400019000BF00BF0F20029015
:101E20000320039002A9164800F07CFECF20029008
:101E30000320039002A9134800F074FE12481349CE
:101E40000860002048600021104881608021C16046
:101E50004900016189004161202181610021C16146
:101E600000F0E6FC08B1FFF7A6FB00BF07482062C0
:101E7000446200BF06B010BD0024014000100240C3
:101E8000001001400008014008000240E00000206E
:101E900070B50446002500BF94F82400012801D144
:101EA000022070BD012084F8240000BF2046FFF707
:101EB000BFFA0546002D77D1A06A40F20121884380
:101EC00040F48070A0623C492068884208D13B48B9
:101ED000006800F4702008B9012002E0002000E052
:101EE000012078B1A06A20F48010A06220684068C8
:101EF00000F4806000B3A06A20F4005040F48050E9
:101F0000A06219E0A06A40F48010A0622B49091F6A
:101F10002068884203D028492068884204D1274895
:101F2000006800F4806000E0002028B1A06A20F47E
:101F3000005040F48050A062A06A00F4805020B1AC
:101F4000E06A20F00600E06201E00020E06200BFED
:101F5000002084F8240000BFC01E216808602068AB
:101F6000806800F46020B0F5602F16D11249206817
:101F7000884208D11148006800F4702008B9012097
:101F800002E0002000E0012038B12068806840F4C1
:101F9000A000216888600CE006E02068806840F4BA
:101FA00080102168886004E000BF002084F82400CD
:101FB00000BF284675E700000028014004240140C6
:101FC0002DE9F04104460D46164600275749206882
:101FD000884203D056492068884205D15348001DE5
:101FE000006800F4702000E0002000287ED100BFCF
:101FF00094F82400012802D10220BDE8F0810120DC
:1020000084F8240000BF2046FFF712FA0746002F8D
:102010006DD1A06A40F60161884340F48070A062EF
:1020200043492068884209D14048001D006800F4F7
:10203000702008B9012002E0002000E0012078B102
:10204000A06A20F48010A0622068406800F48060DC
:1020500000B3A06A20F4005040F48050A06219E060
:10206000A06A40F48010A06230492068884203D002
:102070002F492068884205D12C48001D006800F4D3
:10208000806000E0002028B1A06A20F4005040F4F5
:102090008050A062A06A00F4805020B1E06A20F075
:1020A0000600E06201E00020E06200BF002084F84A
:1020B000240000BF1F48216A88621F48216AC86245
:1020C0001E48216A08636FF00200216808602068DA
:1020D000806840F4807021688860226802F14C01B9
:1020E00033462A46206A00F0E9FB01E01AE014E0DA
:1020F0002068806800F46020B0F5602F06D1206869
:10210000806840F4A000216888600CE02068806846
:1021100040F480102168886005E000BF002084F84A
:10212000240000E00127384667E700000024014052
:1021300000280140B3130008231400080514000808
:10214000F0B5034600BF5879012801D10220F0BD47
:102150000120587100BF022018711868046802F04D
:10216000100640F6FE70B0408443D1E9000640EA14
:10217000060502F0100005FA00F004431868046038
:102180001868006802F01007C026BE40B0431E6801
:1021900030601868006802F01007C026BE40B043E7
:1021A0001E6830600120187100BF0020587100BF08
:1021B00000BFCCE710B504460CB9012010BD207952
:1021C00020B900206071204600F008F8022020713C
:1021D00000202061012020710020EFE710B586B0BB
:1021E0000446002002900390049005901449206852
:1021F000884222D100BF1348C06940F00050114905
:10220000C8610846C06900F00050019000BF00BFDF
:1022100000BF0846806940F0040088610846806974
:1022200000F00400019000BF00BF302002900320A6
:10223000039002A9044800F075FC06B010BD000030
:1022400000740040001002400008014038B5044608
:10225000002000902068009029B902F10800009D3C
:102260002844009004E002F11400009D28440090EE
:1022700000980360002038BD10B5024600BF5079B9
:10228000012801D1022010BD0120507100BF0220A1
:1022900010711068006801F010040123A340184376
:1022A0001368186061B91068006800F03C003C28B1
:1022B00016D11068406840F00100136858600FE0C4
:1022C0001068006800F4701301F010043C20A04076
:1022D000834205D11068406840F0020013685860DE
:1022E0000120107100BF0020507100BF00BFCAE77D
:1022F00070B50446002594F82100022803D004207C
:10230000A0630125C1E02068006820F00E0021686C
:1023100008602068006820F00100216808605C49BE
:102320002068884252D95A4978392068884201D1B8
:10233000012047E0564964392068884201D11020C5
:1023400040E0534950392068884201D1801539E076
:102350004F493C392068884201D1801432E04C4911
:1023600028392068884202D14FF480302AE0484959
:1023700014392068884202D14FF4801022E0444989
:102380002068884201D140041CE04249206888420C
:1023900001D1012016E03F4914312068884201D163
:1023A00010200FE03B4928312068884201D1801578
:1023B00008E038493C312068884201D1801401E0AE
:1023C0004FF480303349091F086051E030497839B3
:1023D0002068884201D1012047E02D4964392068F6
:1023E000884201D1102040E02949503920688842B4
:1023F00001D1801539E026493C392068884201D155
:10240000801432E0224928392068884202D14FF4F2
:1024100080302AE01E4914392068884202D14FF4E6
:10242000801022E01A492068884201D140041CE053
:1024300018492068884201D1012016E0154914315D
:102440002068884201D110200FE01249283120680D
:10245000884201D1801508E00E493C31206888424D
:1024600001D1801401E04FF480300949803948607F
:10247000012084F8210000BF002084F8200000BF64
:10248000606B10B12046616B8847284670BD000024
:10249000800002400804024070B50446E06B056805
:1024A0002068066894F840100420884028400028DE
:1024B00075D006F004000028FAD02068006800F00B
:1024C000200028B92068006820F004002168086016
:1024D000D5492068884254D9D34978392068884240
:1024E00001D1042049E0D04964392068884201D1F3
:1024F000402042E0CC4950392068884201D1001583
:102500003BE0C9493C392068884202D14FF4804001
:1025100033E0C54928392068884202D14FF4802031
:102520002BE0C14914392068884202D14FF4800061
:1025300023E0BD492068884201D1C0041DE0BB49A9
:102540002068884201D1042017E0B849143120687E
:10255000884201D1402010E0B449283120688842E7
:1025600001D1001509E0B1493C312068884202D10F
:102570004FF4804001E04FF48020AC49091F08600F
:1025800054E0A94978392068884201D104204AE002
:10259000A54964392068884202D1402043E04CE0DC
:1025A000A14950392068884201D100153BE09E497D
:1025B0003C392068884202D14FF4804033E09A4988
:1025C00028392068884202D14FF480202BE09649B8
:1025D00014392068884202D14FF4800023E09249E8
:1025E0002068884201D1C0041DE0904920688842DB
:1025F00001D1042017E08D4914312068884201D1AF
:10260000402010E0894928312068884201D1001516
:1026100009E086493C312068884202D14FF480406D
:1026200001E04FF48020804980394860E06A00284A
:1026300002D02046E16A8847F4E094F84010022076
:1026400088402840002871D006F002000028FAD007
:102650002068006800F0200040B92068006820F081
:102660000A0021680860012084F821006E49206872
:10267000884254D96C4978392068884201D10220B7
:1026800049E0694964392068884201D1202042E04C
:10269000654950392068884201D140153BE06249C4
:1026A0003C392068884202D14FF4005033E05E4943
:1026B00028392068884202D14FF400302BE05A4973
:1026C00014392068884202D14FF4001023E05649A3
:1026D0002068884201D180041DE054492068884266
:1026E00001D1022017E0514914312068884201D1FC
:1026F000202010E04D4928312068884201D1401542
:1027000009E04A493C312068884202D14FF4005028
:1027100001E04FF400304549091F086054E0424988
:1027200078392068884202D102204AE057E03E49C9
:1027300064392068884201D1202042E03A4950396A
:102740002068884201D140153BE037493C39206878
:10275000884202D14FF4005033E0334928392068D1
:10276000884202D14FF400302BE02F491439206801
:10277000884202D14FF4001023E02B4920688842A0
:1027800001D180041DE029492068884201D102203E
:1027900017E0264914312068884201D1202010E03A
:1027A000224928312068884201D1401509E01F499B
:1027B0003C312068884202D14FF4005001E04FF4D0
:1027C000003019498039486000BF002084F820009B
:1027D00000BFA06A30B32046A16A884722E094F87F
:1027E0004010082088402840E0B106F00800C8B139
:1027F0002068006820F00E002168086094F84010FE
:1028000001208840E16B48600120A06384F821002A
:1028100000BF002084F8200000BF206B10B12046CC
:10282000216B884770BD0000800002400804024010
:102830000146002209B9012070471E4B08689842E2
:102840000BD21D4B0868C01A1423B0FBF3F08000B4
:10285000086419480838C8630AE0164B0868C01AAB
:102860001423B0FBF3F08000086412480838C863F2
:10287000022081F821000868026843F6F070824364
:10288000D1E901031843CB6818430B6918434B691E
:1028900018438B691843CB691843024308680260E8
:1028A00000208863012081F82100002081F82000A9
:1028B00000BFC1E708040240080002402DE9F041D2
:1028C00004460D4616461F464FF0000800BF94F818
:1028D0002000012802D10220BDE8F081012084F807
:1028E000200000BF94F8210001282CD1022084F898
:1028F00021000020A0632068006820F0010021680A
:1029000008603B46324629462046FEF73DFEE06A17
:1029100030B12068006840F00E00216808600BE0CC
:102920002068006820F004002168086020680068C2
:1029300040F00A00216808602068006840F001004B
:102940002168086006E000BF002084F8200000BF76
:102950004FF002084046BFE770B5044600F09AFA0F
:1029600006462546681C10B104480078054400BF9F
:1029700000F090FA801BA842FAD370BD4C000020F2
:102980002DE9F04104460E460127002500BF2648E8
:10299000007E012802D10220BDE8F08101202249F9
:1029A000087600BF2068022813D14CF25030FEF7A1
:1029B00051FF90BB0120FEF7D3FE4CF25030FEF7E2
:1029C00049FF07461948006920F0040017490861CB
:1029D00023E04CF25030FEF73DFFF0B94FF0FF30EE
:1029E0003060A56812E02846FEF7CEFE4CF250306B
:1029F000FEF730FF07460D48006920F002000B4942
:102A000008610FB1356007E005F50065D4E90210F3
:102A100001EBC020A842E6D800BF00BF0020024959
:102A2000087600BF3846B7E7D806002000200240ED
:102A30000348006940F080000149086100207047A8
:102A4000002002402DE9FE4F05468B46174698466A
:102A5000012600240020029000BF2448007E0128A7
:102A600002D10220BDE8FE8F01202049087600BF78
:102A70004CF25030FEF7EEFE064686BB012D02D129
:102A80000120029006E0022D02D10220029001E016
:102A90000420029000241EE02201B946C2464846A6
:102AA0005146FDF761FB80B20190022000FB04B0AB
:102AB00000900199FEF77CFE4CF25030FEF7CAFE02
:102AC00006460B48006920F001000949086106B17B
:102AD00004E0601CC4B202988442DDDB00BF00BF8A
:102AE00000200249087600BF3046BBE7D806002028
:102AF0000020024000200849096901F0800151B11D
:102B00000649054A5160064951601146096901F0BC
:102B1000800101B101207047002002402301674578
:102B2000AB89EFCD2DE9F847024600239C467BE1B7
:102B30004FF0010808FA03F4D1F8008008EA040015
:102B4000A0427DD1DFF8F4A2D1F80480A8EB0A09F5
:102B5000D0453AD014DCB8F1030F50D009DCB8F1FD
:102B6000000F31D0B8F1010F1CD0B8F1020F49D1DC
:102B700020E0B8F1110F18D0B8F1120F42D11EE0C9
:102B8000B9F5881F25D006DCB9F5803F20D0B9F50E
:102B9000801F37D11AE0B9F5001F18D0B9F5041F0E
:102BA00030D117E0D1F80CC02DE0D1F80C8008F13D
:102BB000040C28E0D1F80C8008F1080C23E0D1F8CF
:102BC0000C8008F10C0C1EE000BF00BF00BF00BF6E
:102BD00000BF00BFD1F80880B8F1000F02D14FF05C
:102BE000040C0BE0D1F80880B8F1010F03D14FF0CD
:102BF000080C146102E04FF0080C546103E04FF040
:102C0000000C00E000BF00BFFF2801D8904601E0A3
:102C100002F104084646FF2802D84FEA830803E081
:102C2000A3F108084FEA88084746D6F800804FF01D
:102C30000F0909FA07F928EA09080CFA07F900E070
:102C40007AE048EA0908C6F80080D1F8048008F064
:102C50008058B8F1805F6FD100BFDFF8E481D8F809
:102C6000188048F00108DFF8D891C9F81880C846E4
:102C7000D8F8188008F00108CDF8008000BF00BF28
:102C80004FEAB9384FEA930958F829504FEA837848
:102C90004FEA18794FF00F0808FA09F825EA0805F5
:102CA000DFF8A081424502D14FF0000824E0DFF8B0
:102CB0009881424502D14FF001081DE0DFF88C8178
:102CC000424502D14FF0020816E0DFF88481424508
:102CD00002D14FF003080FE0DFF87881424502D1BE
:102CE0004FF0040808E0DFF87081424502D14FF050
:102CF000050801E04FF006084FEA83794FEA197999
:102D000008FA09F848EA0505DFF850814FEA930907
:102D100048F82950D1F8048008F48038B8F5803F8D
:102D20000BD1DFF83C81D8F8008048EA0008DFF8D2
:102D30003091C9F800800AE075E0DFF82481D8F806
:102D4000008028EA0008DFF81891C9F80080D1F85F
:102D5000048008F40038B8F5003F0ED1DFF8008198
:102D600008F10408D8F8008048EA0008DFF8F0907D
:102D700009F10409C9F800800DE0DFF8E48008F1EA
:102D80000408D8F8008028EA0008DFF8D49009F198
:102D90000409C9F80080D1F8048008F48018B8F557
:102DA000801F0ED1DFF8B88008F10808D8F800803D
:102DB00048EA0008DFF8A89009F10809C9F800807E
:102DC0000DE0DFF89C8008F10808D8F8008028EAB8
:102DD0000008DFF88C9009F10809C9F80080D1F8E3
:102DE000048008F40018B8F5001F0ED1DFF87080D9
:102DF00008F10C08D8F8008048EA0008DFF8609075
:102E000009F10C09C9F800800DE0DFF8548008F1E1
:102E10000C08D8F8008028EA0008DFF8449009F18F
:102E20000C09C9F800805B1CD1F8008028FA03F86F
:102E3000B8F1000F7FF47CAEBDE8F88700001110F8
:102E40000010024000080140000C01400010014049
:102E50000014014000180140001C0140080001401E
:102E600000040140024693680B400BB1012000E0D2
:102E70000020704710B5C26821EA020302EA01048B
:102E800043EA0443036110BD0AB1016101E00B0490
:102E9000036170470148006870470000440000204B
:102EA00003480068034909780844014908607047ED
:102EB000440000204C00002010B50848006840F095
:102EC000100006490860032000F0A8F8002000F078
:102ED00007F800F02BF8002010BD00000020024091
:102EE00070B504460E4800784FF47A71B1FBF0F0EB
:102EF0000C490968B1FBF0F5284600F079FF08B1EC
:102F0000012070BD102C07D200222146501E00F077
:102F100047F80548046001E00120F2E70020F0E7EF
:102F20004C000020500000204800002008B500BFE1
:102F30001148806940F001000F49886108468069A6
:102F400000F00100009000BF00BF00BF0846C0694C
:102F500040F08050C8610846C06900F08050009081
:102F600000BF00BF00BF0549486820F0E06040F0A6
:102F70000070486000BF08BD001002400000014022
:102F800001460846002809DB00F01F0301229A4091
:102F900043099B0003F1E023C3F8002100BF704701
:102FA0002DE9F05F80460D461646002703F0ECFC45
:102FB000074639462A46334601F00700C0F1070AA2
:102FC000BAF1040F02D94FF0040A01E0C0F1070A78
:102FD000D14600F1040ABAF1070F02D24FF0000AFD
:102FE00001E0A0F1030AD4464FF0010A0AFA09FAF7
:102FF000AAF1010A0AEA020A0AFA0CFA4FF0010BD6
:103000000BFA0CFBABF1010B0BEA030B4AEA0B04C6
:103010002146404603F0C0FCBDE8F09F00BF00F031
:103020000702064B19684FF6FF031940044B0B4388
:1030300043EA0221014B196000BF70470CED00E02C
:103040000000FA05012001490862704700000E42A5
:103050002DE9F04385B0064642A30FCB01AC0FC467
:1030600044A0006800904FF00008002500270024CD
:10307000A146042E36D004DC012E3BD0022E6BD1AB
:103080005FE0082E32D0102E66D13B4844680068BD
:1030900000F0807000B301A8C4F38341475C04F4DE
:1030A000803070B134484068C0F340401DF8008063
:1030B00004F4803040B13148B0FBF8F000FB07F574
:1030C00002E02F4807FB00F52B48406800F4800021
:1030D000B0F5800F01D1A94603E068000321B0FBE1
:1030E000F1F93AE000F0D2F9814636E000F0CEF98D
:1030F000814632E02048046A04F44070B0F5807FD5
:1031000005D104F0020010B14FF4004918E004F4B6
:103110004070B0F5007F07D11748406A00F0020008
:1031200010B149F640490BE004F44070B0F5407F1F
:1031300006D11148006800F4003008B14FF224496C
:103140000BE000F093F90C494968C1F38131491C47
:103150004900B0FBF1F900E000BF00BF484605B0F0
:10316000BDE8F08302030405060708090A0B0C0DED
:103170000E0F1010010200000010024000127A0031
:1031800000093D00F8B5044600260025207800F02F
:10319000010000286BD000274348C06900F0805030
:1031A00070B900BF4048C06940F080503E49C861D6
:1031B0000846C06900F08050009000BF00BF0127A2
:1031C0003A48006800F48070B0B93848006840F4AC
:1031D000807036490860FFF75DFE064606E0FFF79F
:1031E00059FE801B642801D90320F8BD2F480068D0
:1031F00000F480700028F2D02B48006A00F440757B
:103200002DB3A08800F44070A84220D02648006A60
:1032100020F44075012026490860002008602248FB
:10322000056205F0010090B1FFF734FE064608E0A4
:10323000FFF730FE801B41F28831884201D903201C
:10324000D3E71948006A00F002000028F0D01648C1
:10325000006A20F440706168084313490862012F36
:1032600004D10846C06920F08050C86100BF2078B2
:1032700000F00200022807D10B48406820F44040CB
:10328000A168084308494860207800F01000102821
:1032900007D10548406820F480006169084302496D
:1032A00048600020A1E700000010024000700040CC
:1032B0004004424270B504460D460CB9012070BD71
:1032C0005A48006800F00700A8420ED2574800682C
:1032D00020F007002843554908600846006800F0C0
:1032E0000700A84201D00120E9E7207800F00200A1
:1032F00002281DD1207800F00400042805D14C4894
:10330000406840F4E0604A494860207800F00800D6
:10331000082805D14648406840F460504449486058
:103320004348406820F0F000A168084340494860E5
:10333000207800F0010078B36068012806D13C488D
:10334000006800F4003090B90120B8E760680228F6
:1033500006D13748006800F0007040B90120AEE7A0
:103360003348006800F0020008B90120A7E73048A0
:10337000406820F00300616808432D494860FFF76A
:1033800089FD064609E0FFF785FD801B41F2883183
:10339000884202D9032092E707E02548406800F000
:1033A0000C006168B0EB810FEDD12048006800F09F
:1033B0000700A8420ED91D48006820F007002843E6
:1033C0001A4908600846006800F00700A84201D0CA
:1033D000012074E7207800F00400042807D1144885
:1033E000406820F4E060E1680843114948602078B3
:1033F00000F00800082808D10D48406820F460500B
:10340000216940EAC1000A49486000F03FF80849D4
:103410004968C1F30311074A515CC8400649086076
:1034200006480068FFF75CFD002048E700200240E6
:10343000001002401C9700085000002048000020A7
:1034400001480068704700005000002000B5FFF7F9
:10345000F7FF04494968C1F30221034A515CC8409F
:1034600000BD0000001002402C97000800B5FFF7D7
:10347000E7FF04494968C1F3C221034A515CC840CF
:1034800000BD0000001002402C970008F0B585B088
:103490000FF26C0C9CE8E01001A8A0E8E0101CA55D
:1034A0002D68009500210022002300240020194DE2
:1034B000696801F00C05F5B1042D02D0082D19D171
:1034C00001E0154819E001ADC1F38346AC5D01F49C
:1034D000803555B10F4D6D68C5F340451DF8052089
:1034E0000D4D6543B5FBF2F302E00C4D04FB05F313
:1034F000184602E000BF084800BF00BF05B0F0BD9D
:1035000002030405060708090A0B0C0D0E0F101024
:10351000010200000010024000127A0000093D0084
:10352000F8B504460CB90120F8BD207800F0010080
:10353000002878D0F848406800F00C0004280CD02F
:10354000F548406800F00C00082811D1F2484068A6
:1035500000F48030B0F5803F0AD1EF48006800F4F5
:10356000003000285FD0606800285CD10120DBE7D4
:1035700000BF6068B0F5803F06D1E748006840F4BE
:103580008030E549086028E0606858B9E248006882
:1035900020F48030E04908600846006820F480206C
:1035A00008601AE06068B0F5A02F0BD1DA48006817
:1035B00040F48020D84908600846006840F4803014
:1035C00008600AE0D448006820F48030D2490860DE
:1035D0000846006820F48020086000BF606888B159
:1035E000FFF758FC054606E0FFF754FC401B642833
:1035F00001D9032098E7C848006800F4003000288B
:10360000F2D010E0FFF746FC054606E0FFF742FC6B
:10361000401B642801D9032086E7BF48006800F4F6
:1036200000300028F2D1207800F00200022857D1A3
:10363000B948406800F00C0050B1B748406800F04D
:103640000C00082818D1B448406800F4803098B9BC
:10365000B148006800F0020020B12069012801D0C3
:10366000012061E7AC48006820F0F800616940EA99
:10367000C100A949086033E02069E8B10120A749E9
:103680000860FFF707FC054606E0FFF703FC401B58
:10369000022801D9032047E79F48006800F0020094
:1036A0000028F2D09C48006820F0F800616940EAE8
:1036B000C1009949086013E0002098490860FFF7AD
:1036C000E9FB054606E0FFF7E5FB401B022801D9B0
:1036D000032029E79048006800F002000028F2D19A
:1036E000207800F0080008282DD1A069B8B1012089
:1036F0008B490860FFF7CEFB054606E0FFF7CAFBE3
:10370000401B022801D903200EE78348406A00F0DD
:1037100002000028F2D0012001F090FD13E000200B
:103720007F490860FFF7B6FB054606E0FFF7B2FBEE
:10373000401B022801D90320F6E67748406A00F0D2
:1037400002000028F2D1207800F00400042873D190
:1037500000277148C06900F0805070B900BF6E4802
:10376000C06940F080506C49C8610846C06900F0EB
:103770008050009000BF00BF01276A48006800F435
:103780008070B0B96748006840F48070654908608F
:10379000FFF780FB054606E0FFF77CFB401B642833
:1037A00001D90320C0E65F48006800F4807000285B
:1037B000F2D000BFE068012806D15748006A40F007
:1037C00001005549086227E0E06858B95248006A8C
:1037D00020F00100504908620846006A20F0040009
:1037E000086219E0E06805280BD14B48006A40F0F8
:1037F0000400494908620846006A40F00100086276
:103800000AE04548006A20F0010043490862084682
:10381000006A20F00400086200BFE068A0B1FFF772
:1038200039FB054609E0FFF735FB401B41F28831C3
:10383000884202D9032077E622E03748006A00F088
:1038400002000028EFD012E0FFF724FB054608E055
:10385000FFF720FB401B41F28831884201D9032049
:1038600062E62D48006A00F002000028F0D1012F26
:1038700005D12948C06920F080502749C86100BFA0
:10388000E069C8B32448406800F00C00082860D004
:10389000E069022848D1002020490866FFF7FAFABB
:1038A000054606E0FFF7F6FA401B022801D903207F
:1038B0003AE61948006800F000700028F2D1206A4A
:1038C000B0F5803F07D11448406820F40030A1686B
:1038D000084311494860D4E9080108430E49496882
:1038E00021F4741108430C49486001200B49086613
:1038F000FFF7D0FA054607E03DE0FFF7CBFA401BA3
:10390000022801D903200FE60348006800F0007088
:103910000028F2D02FE000000010024000004242D8
:103920008004424200700040002014490866FFF7FE
:10393000B1FA054606E0FFF7ADFA401B022801D9AF
:103940000320F1E50E48006800F000700028F2D175
:1039500011E0E069012800D1E6E50948466806F46F
:103960008031206A814204D106F47011606A81427C
:1039700001D00120D8E50020D6E500000000424239
:103980000010024070B5044600250CB9012070BD3E
:10399000607C20B900202074204600F05BF80220F3
:1039A0006074204600F060F918B1042060740120B2
:1039B000EDE7204601F061FC18B10420607401209D
:1039C000E5E72068406820F0070021684860A068AB
:1039D00028B11F48006820F001001D4908601C48FC
:1039E000001F006820F46070A16808431849091F8F
:1039F00008606068401C08B1656809E00120FFF7B5
:103A000027FB05461DB9042060740120BFE76D1E29
:103A10002068806820F00F0040EA15402168886027
:103A20002068C06865F30F002168C860204601F077
:103A300041FC18B1042060740120A8E70021E17363
:103A400001216173A1730120607400209FE70000D1
:103A5000306C004038B504460B492068884212D1CA
:103A6000FFF7F0FA00BF0948C06940F0006007495D
:103A7000C8610846C06900F00060009000BF00BF48
:103A800001200349086038BD0028004000100240B2
:103A90003C0442422DE9F04704460D46904600267C
:103AA0000027B14604B115B90120BDE8F08700BF79
:103AB000207C012801D10220F7E70120207400BFFB
:103AC00002206074B8F1000F06D1E978E1736978DB
:103AD0006173A978A1730BE0E87801F0C3FBE07390
:103AE000687801F0BFFB6073A87801F0BBFBA0739E
:103AF000A27B617BE07B01F020FC2073207B28709F
:103B0000204601F000FC06464FF46160B6FBF0F978
:103B1000B9F1180F2FD91820B9FBF0F000EB4000D5
:103B2000C000C0EB4011C1EB0020A6EB00163146EF
:103B3000204601F05BFC38B10420607400BF002017
:103B4000207400BF0120B0E7204601F0D0FB0746FB
:103B5000781C80B1B7420ED20B4807443946204644
:103B600001F02DFC38B10420607400BF00202074E7
:103B700000BF012099E70120607400BF002020747D
:103B800000BF00BF91E70000805101002DE9F04720
:103B900004460D4690460026002704B115B90120C1
:103BA000BDE8F08700BF207C012801D10220F7E7A3
:103BB0000120207400BF02206074B8F1000F0BD107
:103BC00028784FF4616148436978C1EB011100EB3B
:103BD0008100A978461812E0287801F043FB4FF4E1
:103BE000616100FB01F9687801F03CFBC0EB00105B
:103BF00009EB8009A87801F035FB09EB0006314696
:103C0000204601F0F3FB38B10420607400BF0020AF
:103C1000207400BF0120C3E72068406820F0050041
:103C200021684860204601F062FB0746781C80B19D
:103C3000B7420ED20B4807443946204601F0BFFB7D
:103C400038B10420607400BF0020207400BF012040
:103C5000A6E70120607400BF0020207400BF00BFF1
:103C60009EE700008051010070B5044600250CB9A4
:103C7000012070BD2068406820F00800216848607D
:103C8000FFF708F9054607E0FFF704F9401BB0F518
:103C90007A7F01D90320ECE72068406800F0080033
:103CA0000028F1D00020E4E710B504460CB901204B
:103CB00010BD606A38B96068B0F5827F00D105E058
:103CC0000021E16102E00021216161610021A16226
:103CD00094F8510028B9002084F85000204600F0E4
:103CE00043F8022084F851002068006820F040006A
:103CF00021680860A08800F48270218901F40441E1
:103D00000843A18901F400610843217C01F002010C
:103D10000843217D01F001010843218B01F400716A
:103D20000843217F01F0380108432021095D01F09B
:103D300080010843218D01F4005108432168086087
:103D40000421A06901EA1040216848602068C06928
:103D500020F400602168C86100206065012084F8BB
:103D600051000020A4E7000010B586B004460020F2
:103D700002900390049005901A49206888422FD140
:103D800000BF1948C06940F480401749C86108461F
:103D9000C06900F48040019000BF00BF00BF08462A
:103DA000806940F0080088610846806900F00800DA
:103DB000019000BF00BF4FF420400290022003900A
:103DC0000320059002A90948FEF7ACFE4FF480409D
:103DD000029000200390049002A90448FEF7A2FE7E
:103DE00006B010BD0038004000100240000C014039
:103DF00070B504462546681EB0F1807F01D30120CE
:103E00000FE0681E4FF0E02148610F214FF0FF30B6
:103E100002F0C2FD00204FF0E02188610720086118
:103E2000002070BD7047704710B50346002200BFE8
:103E300093F83C00012801D1022010BD012083F835
:103E40003C0000BF22F0FF00CC6840EA040222F4EC
:103E500040708C6840EA040222F480604C6840EABA
:103E6000040222F400600C6840EA040222F480504C
:103E70000C6940EA040222F400504C6940EA040252
:103E800022F48040CC6940EA04021868426400BF12
:103E9000002083F83C0000BF00BFCEE730B50246EB
:103EA0000B4600BF92F83C00012801D1022030BD32
:103EB000012082F83C0000BF022082F83D0010681B
:103EC00044681068816824F070041868044310681E
:103ED0004460144D1068A84213D0134D1068A842D6
:103EE0000FD01068B0F1804F0BD0104D1068A84271
:103EF00007D00F4D1068A84203D00E4D1068A8429D
:103F000005D121F0800158680143106881600120CB
:103F100082F83D0000BF002082F83C0000BF00BFD7
:103F2000C5E70000002C01400034014000040040BF
:103F300000080040000C004010B504460CB90120F8
:103F400010BD94F83D0028B9002084F83C002046BC
:103F500000F026F8022084F83D00211D206801F0C1
:103F60009DFB012084F8460000BF84F83E0001213B
:103F70003F200155402001554120015500BF00BFA1
:103F8000012084F84200432001554420015545207A
:103F9000015500BF012084F83D000020D0E700005B
:103FA00038B504462068B0F1804F16D100BF2F48C5
:103FB000C06940F001002D49C8610846C06900F0A1
:103FC0000100009000BF00BF002211461C20FEF738
:103FD000E7FF1C20FEF7D4FF47E025492068884210
:103FE00016D100BF2148C06940F010001F49C861C8
:103FF0000846C06900F01000009000BF00BF00221A
:1040000011463620FEF7CCFF3620FEF7B9FF2CE034
:1040100018492068884216D100BF1448C06940F092
:1040200020001249C8610846C06900F020000090D5
:1040300000BF00BF002211463720FEF7B1FF372036
:10404000FEF79EFF11E00C49206888420DD100BFA9
:104050000648806940F40050044988610846806938
:1040600000F40050009000BF00BF38BD00100240B7
:10407000001000400014004000340140014691F857
:104080003D00012801D001207047022081F83D0049
:104090000868C06840F001000B68D860164B0868DB
:1040A000984213D0154B086898420FD00868B0F1B9
:1040B000804F0BD0124B0868984207D0114B08680C
:1040C000984203D0104B086898420CD10868806869
:1040D00000F00702062A0CD00868006840F00100D2
:1040E0000B68186005E00868006840F001000B6884
:1040F00018600020C8E70000002C01400034014097
:104100000004004000080040000C00402DE9F04190
:1041100004460D4600BF94F83C00012802D102205D
:10412000BDE8F081012084F83C0000BF022084F843
:104130003D002068866826F0770626F47F462068D2
:1041400086602868502833D00CDC202850D004DC4E
:1041500000284BD0102851D149E0302849D04028C0
:104160004CD139E060282DD0702807D0B0F5805FA1
:1041700003D0B0F5005F41D10DE040E0D5E9021376
:104180006A68206801F0E9FA2068866846F07706D8
:104190002068866033E0D5E902136A68206801F080
:1041A000DCFA2068806840F480402168886026E05E
:1041B000EA686968206801F0C1FB5021206801F0BD
:1041C000D7FA1CE0EA686968206801F0CAFB602140
:1041D000206801F0CDFA12E0EA686968206801F011
:1041E000ADFB4021206801F0C3FA08E000BF00BF2A
:1041F00000BF2968206801F0BBFA00E000BF00BFE3
:10420000012084F83D0000BF002084F83C0000BF7E
:1042100000BF85E7704710B5044620680069C0F309
:104220004000D8B12068C068C0F34000B0B16FF062
:10423000020021680861012020772068806900F071
:10424000030018B12046FFF7E5FF05E0204600F027
:10425000D9F8204600F089F900202077206800690D
:10426000C0F38000D8B12068C068C0F38000B0B14E
:104270006FF00400216808610220207720688069BF
:1042800000F4407018B12046FFF7C4FF05E0204657
:1042900000F0B8F8204600F068F900202077206888
:1042A0000069C0F3C000D8B12068C068C0F3C00086
:1042B000B0B16FF008002168086104202077206801
:1042C000C06900F0030018B12046FFF7A3FF05E026
:1042D000204600F097F8204600F047F900202077AC
:1042E00020680069C0F30010D8B12068C068C0F32E
:1042F0000010B0B16FF0100021680861082020772D
:104300002068C06900F4407018B12046FFF782FFB2
:1043100005E0204600F076F8204600F026F900205F
:1043200020772068006900F0010058B12068C0685B
:1043300000F0010030B16FF00100216808612046F3
:1043400000F08EF920680069C0F3C01058B12068F1
:10435000C068C0F3C01030B16FF080002168086100
:104360002046FFF75FFD20680069C0F3801058B158
:104370002068C068C0F3801030B16FF04000216841
:104380000861204600F0A8F920680069C0F34010D9
:1043900058B12068C068C0F3401030B16FF0200001
:1043A000216808612046FFF73EFD10BD10B586B0BC
:1043B0000446002002900390049005900E49206866
:1043C000884217D100BF0D48806940F010000B49AA
:1043D00088610846806900F01000019000BF00BFAE
:1043E0004FF47070029002200390059002A90448D7
:1043F000FEF798FB06B010BD0034014000100240EB
:1044000000100140704770B504460D46164600BFC7
:1044100094F83C00012801D1022070BD012084F8ED
:104420003C0000BF36B1042E1BD0082E31D00C2E1C
:104430005ED145E02946206801F0A4F92068806932
:1044400040F00800216888612068806920F004003D
:10445000216888612068806929690843216888612A
:1044600047E02946206801F0C5F92068806940F4DA
:104470000060216888612068806920F4806021687C
:10448000886120688069296940EA01202168886183
:104490002FE02946206801F0EBF92068C06940F060
:1044A00008002168C8612068C06920F00400216804
:1044B000C8612068C069296908432168C86118E09B
:1044C0002946206801F010FA2068C06940F40060B5
:1044D0002168C8612068C06920F480602168C861D3
:1044E0002068C069296940EA01202168C86100E0AC
:1044F00000BF00BF00BF002084F83C0000BF00BF29
:104500008BE710B504460CB9012010BD94F83D00AE
:1045100028B9002084F83C00204600F025F802204D
:1045200084F83D00211D206801F0B8F8012084F8CE
:10453000460000BF84F83E0001213F200155402085
:1045400001554120015500BF00BF012084F8420001
:1045500043200155442001554520015500BF01204D
:1045600084F83D000020D0E77047704770B50446DE
:104570000D4615B994F83E000BE0042D02D13F2002
:10458000005D06E0082D02D14020005D01E04120E1
:10459000005D012801D0012070BD1DB9022084F802
:1045A0003E000EE0042D03D102213F20015508E01A
:1045B000082D03D102214020015502E002214120B3
:1045C000015501222946206801F0B6F81F492068EC
:1045D000884203D01E492068884201D1012000E0B2
:1045E000002028B12068406C40F4004021684864F5
:1045F00016492068884213D01549206888420FD098
:104600002068B0F1804F0BD012492068884207D053
:1046100011492068884203D01049206888420CD193
:104620002068806800F00706062E0CD0206800681D
:1046300040F001002168086005E02068006840F053
:104640000100216808600020A6E70000002C01405E
:10465000003401400004004000080040000C00400D
:1046600010B50446164920680968884227D11548C4
:104670000068B0F5167F05D212480068401C114949
:10468000086002E001201049087010480088401CB2
:104690000E49088008460088B0F5167F01DD1F200E
:1046A00008800B480088401C0949088009480078A8
:1046B00028B108460088032801DB03F04DFA10BD3D
:1046C000A401002074000020780000207000002069
:1046D0006E0000206C000020704770472DE9F04705
:1046E0000446206805682068C668206847694FF05E
:1046F0000008C14605F00F08B8F1000F0AD105F017
:10470000200038B106F0200020B1204601F052FE12
:10471000BDE8F087B8F1000F71D007F0010018B9BB
:1047200006F4907000286AD005F0010030B106F45C
:10473000807018B1E06B40F00100E06305F0040008
:1047400030B107F0010018B1E06B40F00200E06307
:1047500005F0020030B107F0010018B1E06B40F045
:104760000400E06305F0080048B106F0200010B92D
:1047700007F0010018B1E06B40F00800E063E06B67
:1047800068B305F0200028B106F0200010B12046E3
:1047900001F010FE20684069C0F38019E06B00F062
:1047A000080010B9B9F1000F22D0204601F038F905
:1047B0002068406900F04000B0B12068406920F0F6
:1047C000400021684861606B50B11848616B4863D4
:1047D000606BFDF78DFD10B1606B416B88470CE09D
:1047E0002046FFF77AFF08E02046FFF776FF04E057
:1047F0002046FFF772FF0020E06389E7FFE705F03E
:10480000800030B106F0800018B1204601F0A0FE13
:104810007EE705F0400030B106F0400018B12046B8
:1048200001F00EF974E700BF72E700000D5A0008AE
:1048300010B504460CB9012010BDA06900B100E01C
:1048400000BF94F8390028B9002084F838002046C9
:1048500000F028F8242084F839002068C06820F48B
:1048600000502168C860204601F0F4FD206800690E
:1048700020F49040216808612068406920F02A00F7
:10488000216848612068C06840F400502168C86011
:104890000020E063202084F8390084F83A000020EA
:1048A000CAE7000010B586B00446002002900390CD
:1048B000049005903C492068884237D100BF3B48AE
:1048C000806940F48040394988610846806900F475
:1048D0008040019000BF00BF00BF0846806940F0E3
:1048E000040088610846806900F00400019000BF60
:1048F00000BF48150290022003900320059002A9F2
:104900002B48FEF70FF94FF48060029000200390CF
:10491000049002A92648FEF705F900221146252039
:10492000FEF73EFB2520FEF72BFB3AE021492068ED
:10493000884236D100BF1D48C06940F480201B4921
:10494000C8610846C06900F48020019000BF00BF24
:1049500000BF0846806940F0080088610846806909
:1049600000F00800019000BF00BF0815029002206F
:1049700003900320059002A90F48FEF7D3F84FF4E7
:104980000060029000200390049002A90A48FEF7FC
:10499000C9F8002211462720FEF702FB2720FEF768
:1049A000EFFA06B010BD00000038014000100240D0
:1049B0000008014000480040000C014010B50346CB
:1049C00093F83A0020282FD101B10AB9012010BD77
:1049D00000BF93F83800012801D10220F7E7012039
:1049E00083F8380000BF99629A85DA850020D86381
:1049F000222083F83A0000BF002083F8380000BF6F
:104A00001868C06840F480701C68E06018684069ED
:104A100040F001001C6860611868C06840F0200028
:104A20001C68E0600020D2E70220D0E710B5044601
:104A30001249206888421FD1012211491148FFF70D
:104A4000BDFF0F4800781049096849690E4A12688D
:104A50001269C2F5967288540B4800680069401EBE
:104A600009490968086108480068006920B94FF4DD
:104A7000967005490968086110BD000000380140C2
:104A8000A1000020C40200202C0000202DE9F84FD6
:104A900004460E46174699464FF0000A94F839002E
:104AA00020285AD106B117B90120BDE8F88F00BF00
:104AB00094F83800012801D10220F6E7012084F89B
:104AC000380000BF0020E063212084F83900FEF7A1
:104AD000E1F98246A784E784A068B0F5805F04D13D
:104AE000206910B90025B04602E035464FF00008B5
:104AF00000BF002084F8380000BF1BE053460022AE
:104B000080212046CDF8009001F052FD08B103202D
:104B1000CBE745B9B8F80000C0F308002168486049
:104B200008F1020803E02878216848606D1CE08CD9
:104B3000401EE084E08C0028E0D153460022402152
:104B40002046CDF8009001F033FD08B10320ACE71A
:104B5000202084F839000020A7E70220A5E710B53F
:104B6000034693F83900202823D101B10AB9012066
:104B700010BD00BF93F83800012801D10220F7E7EB
:104B8000012083F8380000BF19629A84DA8400207B
:104B9000D863212083F8390000BF002083F8380053
:104BA00000BF1868C06840F080001C68E06000200A
:104BB000DEE70220DCE7704700BFFEE70EB500200D
:104BC0000090019002904448444908608115434890
:104BD000816001210173002101754FF46021C161E1
:104BE00000203E4948600A213C480161FDF732F847
:104BF00008B1FCF7E0FC0A2000900120019003209E
:104C0000029069463548FCF771FF08B1FCF7D3FC08
:104C10000B2000900220019069463048FCF766FFA7
:104C200008B1FCF7C8FC0C200090032001906946F5
:104C30002A48FCF75BFF08B1FCF7BDFC0D20009093
:104C40000420019069462548FCF750FF08B1FCF7A5
:104C5000B2FC002000900520019069461F48FCF737
:104C600045FF08B1FCF7A7FC012000900620019049
:104C700069461A48FCF73AFF08B1FCF79CFC022091
:104C800000900720019069461448FCF72FFF08B1F7
:104C9000FCF791FC032000900820019069460F4822
:104CA000FCF724FF08B1FCF786FC062000900920E1
:104CB000019069460948FCF719FF08B1FCF77BFC35
:104CC000072000900A20019069460448FCF70EFF77
:104CD00008B1FCF770FC0EBD00240140B0000020BC
:104CE0001CB50020009001900E480F49086008464E
:104CF000FDF760FA08B1FCF75EFC0020009002208E
:104D00000190002269460848FDF71AFA08B1FCF73D
:104D100052FC102269460448FDF712FA08B1FCF76C
:104D20004AFC1CBD007400402401002008B500BFEF
:104D30000A48406940F00100084948610846406956
:104D400000F00100009000BF00BF002211460B20C0
:104D5000FEF726F90B20FEF713F908BD00100240FC
:104D600000B585B00020019002900390049000BF30
:104D70005448806940F010005249886108468069B3
:104D800000F01000009000BF00BF00BF084680691F
:104D900040F0200088610846806900F02000009003
:104DA00000BF00BF00BF0846806940F00400886172
:104DB0000846806900F00400009000BF00BF00BFFB
:104DC0000846806940F0080088610846806900F064
:104DD0000800009000BF00BF002242F620413A4880
:104DE000FEF752F8002241F204013848FEF74CF871
:104DF00000224FF419413648FEF746F801224FF4DD
:104E000040713248FEF740F842F620400190012000
:104E10000290002003900220049001A92A48FDF787
:104E200081FE1020019000200290039001A92648E5
:104E3000FDF778FE41F2040001900120029000206D
:104E400003900220049001A92048FDF76BFE4FF467
:104E5000194001900120029000200390022004904C
:104E600001A91B48FDF75EFE4FF480500190002021
:104E700002900120039001A91348FDF753FE04207E
:104E80000190002002900120039001A91148FDF734
:104E900049FEF8200190002002900120039001A912
:104EA0000A48FDF73FFE4FF4407001901120029038
:104EB000002003900220049001A90448FDF732FE6F
:104EC00005B000BD0010024000100140000C014080
:104ED00000080140001401401CB500200190009022
:104EE0002148224908604FF0FF3048604FF480713C
:104EF0001E488160FEF746FD08B1FCF75CFB1A48CE
:104F00001A4908604FF0FF3048600021174881605F
:104F1000FEF738FD08B1FCF74EFB17208DF80400B2
:104F200005208DF8050000208DF80600012201A95A
:104F30000E48FEF72BFE08B1FCF73DFB01208DF873
:104F4000000012208DF8010016208DF802002020AC
:104F50008DF80300012269460448FEF79BFD08B165
:104F6000FCF729FB1CBD0000002800403801002090
:104F700010B50E480E4908604FF482704860002159
:104F80000B488160C160016141614FF40071816132
:104F90000021C1610162416281620A21C162FEF7A2
:104FA00083FE08B1FCF707FB10BD0000003800408D
:104FB0004C01002000B587B00020039004900590BC
:104FC0000690019002904FF080401549086041F62C
:104FD0001F40486000211248816042F20F71C16099
:104FE0000021016180218161FEF7A6FF08B1FCF775
:104FF000E2FA4FF48050039003A90948FFF786F8BE
:1050000008B1FCF7D8FA00200190029001A90448E9
:10501000FEF744FF08B1FCF7CEFA07B000BD000070
:10502000A40100201CB50020009001900E480F49FB
:10503000086041F61F40486000210C4881606321F0
:10504000C16080218161FEF777FF08B1FCF7B3FAF8
:1050500000200090019069460448FEF71FFF08B148
:10506000FCF7A9FA1CBD000000100040EC01002074
:105070001CB50020009001900E480F49086041F6D1
:105080001F40486000210C48816042F20F71C160EE
:1050900080218161FEF750FF08B1FCF78CFA0020F7
:1050A0000090019069460448FEF7F8FE08B1FCF74D
:1050B00082FA1CBD001400403402002000B595B0F7
:1050C000002011901290139014900F9010901C21BA
:1050D00008A8FBF778F820216846FBF774F83748F2
:1050E000374908600120486000213548816040F65A
:1050F0001601C16000210161416180218161FEF7DB
:105100001BFF08B1FCF757FA4FF48050119011A91A
:105110002B48FEF7FBFF08B1FCF74DFA2848FFF7D4
:10512000F0F908B1FCF747FA00200F9010900FA992
:105130002348FEF7B3FE08B1FCF73DFA6020089063
:10514000002009900A900B900C900D900E90002278
:1051500008A91B48FFF757F908B1FCF72CFA0422FD
:1051600008A91748FFF74FF908B1FCF724FA0822FD
:1051700008A91348FFF747F908B1FCF71CFA0C22FD
:1051800008A90F48FFF73FF908B1FCF714FA00200F
:10519000009001900290039004904FF4005005900D
:1051A0000020079069460648FEF73EFE08B1FCF76E
:1051B00002FA0348FFF7FAF815B000BD00340140C9
:1051C0007C02002010B50B480B4908604FF41650C4
:1051D0004860002108488160C16001610C21416183
:1051E00000218161C161FFF723FB08B1FCF7E3F9FE
:1051F00010BD000000380140C402002010B50B486B
:105200000B4908604FF4165048600021084881603F
:10521000C16001610C21416100218161C161FFF721
:1052200007FB08B1FCF7C7F910BD000000480040BB
:105230000403002000BFFEE77047704708B5084927
:105240000968C9084FF47A72B1FBF2F14143009149
:1052500000BF00BF00994A1E00920029F9D108BD85
:1052600050000020014600BF080900EB800042000A
:1052700001F00F001044C0B2704770B5044600251D
:10528000FDF708FE054607E0FDF704FE401BB0F5FC
:105290007A7F01D9032070BD2068406800F02000AB
:1052A0000028F1D02068406840F010002168486074
:1052B0000020F0E770B5044600252068406820F023
:1052C000100021684860FDF7E5FD054607E0FDF7A1
:1052D000E1FD401BB0F57A7F01D9032070BD206845
:1052E000406800F020000028F1D00020F6E70146D9
:1052F000002200230868006A82B20868406A83B20C
:1053000043EA0240704730B50146002200230024E2
:1053100000200D68AD69AAB20D68ED69ACB20D68E8
:10532000AD69ABB29A4205D00D68ED6963F31F45D4
:10533000284601E044EA024030BDF0B504460B4681
:105340000021002504F5FA61032B1BD2C3EBC30037
:1053500000EB03100926B0FBF6F01044001D4618C0
:10536000481E06EB90066427B0FBF7F0361A481E7D
:10537000BF00B0FBF7F030440726B0FBF6F706FBA2
:1053800017051AE0C3EBC30000EB03100926B0FBBE
:10539000F6F01044001D084400EB91006426B1FBB8
:1053A000F6F6801B4FF4C876B1FBF6F63044801E4B
:1053B0000726B0FBF6F706FB1705E8B2F0BD70B59F
:1053C00004460D4600262046FFF757FF08B1012688
:1053D0000AE0280C21680862A8B2216848622046C9
:1053E000FFF768FF00B10126304670BD70B5044676
:1053F0000D4600262046FFF740FF08B101260AE0CF
:10540000280C21688861A8B22168C8612046FFF78E
:1054100051FF00B10126304670BD000030B5034693
:105420000020064D5C1900BF05E0256841F82050BA
:10543000241D451CA8B29042F7D330BD00F80308E4
:1054400030B503460C46002100BF07E01D786554C7
:105450000DB9012030BD5B1C481C81B29142F5D3CF
:105460000020F7E770470000FEB505460A2731E047
:105470000020009001900290002117480068FCF77E
:10548000D5F82846FAF7AAFE86B24FF4FA733246E8
:1054900029461248FFF7FAFA4FF47A70FDF75CFAE2
:1054A00000210D480068FCF73FF904460CB1092CB7
:1054B00000D90FE0A2B20023694607480068FCF754
:1054C0000EF9022206A16846FAF7A6FE08B90020E6
:1054D000FEBD00BFCCE700002C000020C40200206D
:1054E0004F4B000070B504462046FAF777FE85B2B0
:1054F0004FF4FA732A4621460148FFF7C7FA70BDF8
:10550000C40200202DE9F04F89B004460D4616462E
:105510001F46DDE915ABDDF85090DDF8488017989F
:10552000CDE903ABCDF80890059013983B46324681
:105530002946CDE900802046FCF732FA0890089809
:10554000FCF7C0F907900798FFF7CCFF079801F028
:1055500037FA002009B0BDE8F08F00002DE9F041D6
:10556000044609486043C4F5805190FBF1F5284694
:10557000FBF7A2FF07460549FBF7F2F80646FBF7E3
:10558000CCFABDE8F0810000A086010000002041B7
:1055900010B5FDF785FC10BD00B595B028210BA80E
:1055A000FAF711FE142106A8FAF70DFE1821684635
:1055B000FAF709FE05200B904FF480300C90002084
:1055C0000D9001200E900F9002201290C1031391B4
:1055D0004FF4E01114910BA8FDF7A2FF08B1FBF7FF
:1055E000EAFF0F20069002200790002008904FF459
:1055F0008060099000200A90022106A8FDF75AFE5B
:1056000008B1FBF7D8FF032000904FF480700190A1
:105610004FF4404002906846FDF7B4FD08B1FBF737
:10562000CAFF15B000BD704710B50248FEF7F3FD84
:1056300010BD0000A401002010B500F007F80248DA
:10564000FEF7E9FD10BD0000EC01002002480088D3
:10565000401C0149088070471200002010B500F07E
:1056600007F80248FEF7D7FD10BD00003402002005
:1056700007480088401C0649088006480068401C0E
:105680000449086004480068401C034908607047EA
:1056900014000020180000201C00002010B5026833
:1056A000204B98420ED0204B98420BD0B0F1804F47
:1056B00008D01E4B984205D01D4B984202D01D4B7E
:1056C000984203D122F070024B681A43154B98425E
:1056D0000ED0154B98420BD0B0F1804F08D0134B31
:1056E000984205D0124B984202D0124B984203D1F7
:1056F00022F44072CB681A4322F080034C6943EADB
:10570000040202608B68C3620B688362054B984297
:1057100002D0054B984201D10B6903630123436119
:1057200010BD0000002C0140003401400004004086
:1057300000080040000C004030B501F01F050124B6
:1057400004FA05F3046A9C430462046A01F01F052D
:1057500002FA05F52C43046230BD30B50C46816871
:1057600021F47F4142EA032525432943816030BD6E
:105770000A46816821F0700142F0070319438160F5
:105780007047000030B5056A25F001050562026A20
:105790004368846924F0700424F003040D682C43EA
:1057A00022F002028D682A43104DA84200D103E086
:1057B0000F4DA84206D100BF22F00802CD682A434F
:1057C00022F00402094DA84202D0094DA84207D197
:1057D00023F4807323F400734D692B438D692B43AD
:1057E000436084614D684563026230BD002C014016
:1057F0000034014030B5056A25F010050562026AE3
:105800004368846924F4E04424F440740D6844EA55
:10581000052422F020028D6842EA0512124DA842AA
:1058200000D103E0114DA84207D100BF22F0800251
:10583000CD6842EA051222F040020B4DA84202D088
:105840000A4DA84209D123F4806323F400634D6913
:1058500043EA85038D6943EA8503436084614D68AB
:105860008563026230BD0000002C0140003401401D
:1058700030B5056A25F480750562026A4368C4691B
:1058800024F0700424F003040D682C4322F4007209
:105890008D6842EA0522124DA84200D103E0114D65
:1058A000A84207D100BF22F40062CD6842EA052277
:1058B00022F480620A4DA84202D00A4DA84209D1C2
:1058C00023F4805323F400534D6943EA05138D6993
:1058D00043EA05134360C4614D68C563026230BD8D
:1058E000002C01400034014030B5056A25F4805594
:1058F0000562036A4468C26922F4E04222F44072FD
:105900000D6842EA052223F400538D6843EA05330B
:10591000084DA84202D0084DA84204D124F4804486
:105920004D6944EA85144460C2614D6805640362B0
:1059300030BD0000002C01400034014030B50B4662
:105940001446026A056A25F001050562816921F0A5
:10595000F00141EA041122F00A021A438161026255
:1059600030BD30B50B461446056A25F010050562BA
:105970008169026A21F4704141EA043122F0A002F7
:1059800042EA03128161026230BD0000FEB503F0FD
:105990004BFD40BB4FF496711348FAF714FC1348C3
:1059A00001F0C6FD054612A1284601F0ABFD0646F2
:1059B00011A1304601F0A6FD044684B10A482169D0
:1059C000FAF721FC0E48011FA0F12802131FCDE9B0
:1059D000002102900B4A0C49034800F031FE284692
:1059E00001F064FD00BFFEBDE6040020F8060020C3
:1059F000706172616D730000444154410000000009
:105A0000D8040020200000200000002070B50546CA
:105A10006C6A0020E085E0842046FEF75EFE70BDE3
:105A20000168C96821F490710268D1600168496910
:105A300021F0010102685161202180F83A1070477D
:105A400010B504462068C06820F040002168C86096
:105A5000202084F839002046FFF7ADF8002010BD63
:105A60002DE9F0470024F7480078401CF5490870FC
:105A7000F548006800F02000002871D0F348007855
:105A8000401CF2490870F048001D0068F049087099
:105A9000F0480078002872D108460078EE49087076
:105AA0000846007831382A286AD2DFE800F0C5D5E8
:105AB000F6F4F3F2F1F0EF69696969696969EE5A20
:105AC0006969202E15B5EDECEBEAE9E8696A6978B9
:105AD000E7A5E6E56969693C4F20E04908700122C5
