:020000040800F2
:10000000D00700204501000847320008672C00088F
:100010004532000809080008E13E00080000000021
:100020000000000000000000000000001136000881
:10003000D708000800000000493200083D360008DB
:100040005F0100085F0100085F0100085F01000810
:100050005F0100085F0100085F0100085F01000800
:100060005F0100085F0100085F010008A1080008A7
:100070005F0100085F0100085F0100085F010008E0
:100080005F0100085F0100085F0100085F010008D0
:100090005F0100085F0100085F0100085F010008C0
:1000A0005F0100085F0100085F0100085F010008B0
:1000B0005F0100085F0100085F0100085F010008A0
:1000C0005F0100085F0100085F0100085F01000890
:1000D0005F010008C13E00085F010008D53E00082E
:1000E0005F0100085F0100085F0100085F01000870
:1000F0005F0100085F0100085F0100085F01000860
:100100005F0100085F0100085F0100085F0100084F
:100110005F0100085F010008B5360008C13600081D
:100120005F0100085F0100085F0100085F0100082F
:10013000DFF80CD000F0BEFA00480047813F00080D
:10014000D00700200648804706480047FEE7FEE744
:10015000FEE7FEE7FEE7FEE7FEE7FEE7FEE7FEE777
:10016000B136000831010008202A04DB203A21FAC8
:1001700002F00021704721FA02F3D040C2F12002C0
:100180009140084319467047D2B201E000F8012BB4
:10019000491EFBD270470022F6E710B513460A4607
:1001A00004461946FFF7F0FF204610BD80EA010221
:1001B00010B502F00043400022D04A001FD0010ECB
:1001C00001EB1261C0F35600C2F3560240F4000086
:1001D00042F40002A0FB022000047F39140400D086
:1001E000401C50EA124001D44000491EC2B20C0625
:1001F00004EBD010401C4008802A02D003E000200D
:1002000010BD20F00100002900DA0020184310BDC5
:100210002DE9FE4F804681EA0300C00F0C46009096
:1002200021F0004123F00045B8EB0200A94105D2BE
:100230004046214690461C460B46024623F00040AD
:10024000104347D0270DC7F30A00C3F30A510290A9
:10025000401A019040286BDAC3F3130040F4801B6E
:100260000098924620B10023D2EB030A63EB0B0BFC
:1002700001985946C0F14002504600F066F9064622
:100280000D4650465946019A00F06EF910EB0800F1
:100290006141002487EA115284EAE7731A4340D08F
:1002A000009A62B3019A012A4FEA075215DC001B3B
:1002B00061EB02014FF0004202EA0752CDE9004231
:1002C000001C41F5801132462B4600F0A5F903B021
:1002D000BDE8F08F40462146F9E7001B61EB0201C3
:1002E000001C41F5801300185B412018A2F500178F
:1002F00047EB030140EAD570B6196D4111E06D0876
:100300004FEA360645EAC0754FEA0752001B61EB1B
:100310000201001C41F5801149084FEA3000001924
:10032000514132462B4603B0BDE8F04F00F065B9AD
:100330000098012240000023D0EB020263EBE0733F
:10034000009821464FEAE074B8EB000061EB04012D
:10035000E9E783F000435BE781F0004158E72DE9CE
:10036000FE4F81EA030404F0004421F000410094B0
:100370004FF0000B23F0004350EA01045ED052EA34
:1003800003045BD0C3F30A54C1F30A552C44A4F20E
:10039000F3340194A0FB0254C1F3130141F4801122
:1003A000C3F3130343F4801301FB024400FB034E29
:1003B000840A970A44EA815447EA8357A4FB0768F2
:1003C00002958D0A05FB07854FEA932C04FB0C541C
:1003D0002705029D4FEA065847EA1637B5EB080590
:1003E0006EEB070C870E920E47EA811742EA8312E2
:1003F000A7FB0201B6EB0B0164EB00042B0D43EAF3
:100400000C335E1844EB1C50DA465146E7FB020100
:10041000C5F313044FEA0B3343EA14534FEA043293
:10042000019C43EA0603A4F10C040294009CCDE96C
:1004300000B400F0F1F803B0BDE8F08F00200146F1
:10044000F9E796230022114600F0A9B80EB5C10FB6
:1004500080EAE0700844CA07002140F233438DE887
:100460000E000A460B4600F0D7F803B000BD0EB5EB
:1004700040F2334102910021CDE900110A460B46BA
:1004800000F0CAF803B000BD00F0004220F00040C8
:10049000C10DC0F3160040F400007F2901DA0020EE
:1004A0007047962903DCC1F19601C84001E09639F6
:1004B0008840002AF4D040427047C1F30A5210B578
:1004C000C1F3130140F2FF3341F480119A4201DA83
:1004D000002010BD40F233439A42A2F2334203DCC3
:1004E0005242FFF741FE10BD904010BD00F00042A7
:1004F00030F000400AD0C10D01F56071C0F3160064
:1005000042EA0151C20840071143704700200146EA
:10051000704701F0004330B421F0004150EA01027D
:1005200006D00A0DA2F56072C1F31301002A02DCA5
:1005300030BC00207047440F44EAC104C100E018F9
:1005400030BC00EBC25000F021B8202A04DB203A76
:1005500000FA02F1002070479140C2F1200320FA16
:1005600003F3194390407047202A06DBCB17203A4B
:1005700041FA02F043EAE07306E041FA02F3D040A8
:10058000C2F1200291400843194670470029A8BFD4
:100590007047401C490008BF20F00100704710B4AC
:1005A000B0FA80FC00FA0CF050EA010404BF10BC61
:1005B000704749B1CCF1200421FA04F411FA0CF18E
:1005C00018BF012121430843A3EB0C01CB1D4FEAC7
:1005D00000614FEA102042BF002010BC704700EBC2
:1005E000C35010440029A4BF10BC7047401C4900F0
:1005F00008BF20F0010010BC704710B5141E73F145
:10060000000408DA401C41F1000192185B411A43D2
:1006100001D120F0010010BD2DE9F04D92469B461E
:1006200011B1B1FA81F202E0B0FA80F220329046C4
:10063000FFF78BFF04460F4640EA0A0041EA0B0130
:1006400053465A46084313D0114653EA010019D0C5
:10065000C8F140025046FFF787FD05460E4650465A
:1006600059464246FFF771FF084305D0012004E0D8
:1006700020463946BDE8F08D0020054346EAE07685
:100680002C4337430A986305E40AA0EB08000022D4
:10069000FD0A44EA47540A3002D500200146E9E742
:1006A000010510196941DDE9084500196941BDE8F6
:1006B000F04DA2E7064C074D06E0E06840F001036C
:1006C00094E8070098471034AC42F6D3FFF734FDA6
:1006D000BC470008DC47000870B504460068816824
:1006E000C943C9071CD1816821F00101816000F074
:1006F0009FFF05460FE000BF00F09AFF401B022855
:1007000009D9A06A40F01000A062E06A40F0010040
:10071000E062012070BD20688068C043C007EBD054
:10072000002070BD10B50146406A826A12F0500F79
:1007300005D0006A026BBDE8104008461047816A88
:1007400041F40071816201688968C1F3424107295F
:100750000CD1017B51B9816A21F480718162816A77
:10076000C90403D4816A41F00101816200F098F963
:1007700010BD10B5406A816A41F040018162C16AD2
:1007800041F00401C16200F08DF910BD10B5406A5E
:1007900000F087F910BD0000F8B500260446009669
:1007A00000688168C943C90728D0816841F0010108
:1007B0008160134813490068B0FBF1F000E0401E6F
:1007C00000900028FBD100F033FF054611E000BF88
:1007D00000F02EFF401B02280BD9A06A40F0100049
:1007E000A062E06A40F00100E06284F82460012029
:1007F000F8BD20688068C043C007E9D10020F8BD7B
:100800003400002040420F00FEE7000070B50246B1
:1008100046241F494B2000BF51F82450954203D273
:100820002046641FE4B206E051F8205095422CD9CE
:100830000446401DC0B28442EED3184670BD00BFCE
:1008400001EB84056D6895421DD251F824001149D1
:10085000801A51F82410B0FBF1F0FFF7F2FD323CA2
:10086000FFF744FE0C4A0D4BFFF779FD06460D4697
:100870002046FFF7EBFD32462B46FFF7C9FCFFF79A
:1008800048FE0346D9E7641CE4B28442D8D9D4E7D1
:10089000B84200083C4500089A9999999999B93F3E
:1008A000014800F00BBC00008803002030B590F830
:1008B00040500124AC40C56B6C60046863604368C1
:1008C000102B036803D099600068C26030BD9A6045
:1008D0000068C16030BD704770470000F8B5002562
:1008E0000446009590F82400012808D0012084F8DF
:1008F00024002046FFF7F0FE060002D04BE0022065
:10090000F8BDA06A20F4885040F00200A0620220E6
:1009100000F032FF22490968B1FBF0F0400000E02E
:10092000401E00900028FBD12046FFF735FF2068CD
:10093000816841F00801816000F07AFE074604E01A
:1009400000F076FEC01B0A2811D8206880680007D6
:10095000F6D42068816841F00401816000F068FEEF
:1009600007460EE000F064FEC01B0A2809D9A06A01
:1009700020F0020040F01000A06284F82450012012
:10098000F8BD206880684007ECD4A06A20F002001F
:1009900040F00100A06284F824503046F8BD000009
:1009A00034000020F8B50024009490F82420254657
:1009B000012A12D0012280F824204A681F23072A26
:1009C0000DD20668776B521E02EB820293409F4362
:1009D0000B6893401F43776319E00220F8BD066857
:1009E0000D2A0AD2376BD21F02EB820293409F433B
:1009F0000B6893401F43376309E0F76A0D3A02EB37
:100A0000820293409F430B6893401F43F7620A683A
:100A1000072306680A2A0AD3F7680A3A02EB420259
:100A200093409F438B6893401F43F76008E037690A
:100A300002EB420293409F438B6893401F43376110
:100A40000A68102A01D0112A20D1124B02689A425A
:100A500017D193681B0219D4936843F40003936081
:100A60000968102912D10C490C4A0968B1FBF2F14E
:100A700001EB8101490000E0491E00910029FBD1F2
:100A800004E0816A41F020018162012480F8245051
:100A90002046F8BD002401403400002040420F00F1
:100AA00070477047704700002DE9F04104004FF097
:100AB00000057FD0A06A002628B9E66284F8246089
:100AC000204600F081F82046FFF706FEA16AC9061D
:100AD00000D420B1A06A40F01000A0626AE0A16AD0
:100AE00021F4885141F00201A162334923688B420D
:100AF000E16904D1B1F5402F01D14FF40021277BEA
:100B00004FF4807C41EA470261680A43A16861456D
:100B100008D0012906D0002194F814E0BEF1010F9D
:100B200002D00AE06146F7E7C7B1A76A47F020079D
:100B3000A762E76A47F00107E7625F6827F4694741
:100B40000F435F60236899681C4F394011439960D7
:100B5000A16861450BD0012909D00CE0DFF860E005
:100B6000A7690EEB47370F4347F40061E5E7218A99
:100B70000D05A5F580152168CB6A23F470032B437E
:100B8000CB62216889680F4B1940914208D1E66217
:100B9000A16A21F0020141F00101A162BDE8F081EA
:100BA000A06A20F0020040F01000A062E06A40F06D
:100BB0000100E0620120F1E7003C0140FDF7E1FFA8
:100BC00000E0FFFFFE0E1FFF70B586B00025064651
:100BD00000950195029503950068214988423DD111
:100BE0002049886940F400708861886900F40070C9
:100BF0000490886940F010008861886900F0100056
:100C00000490886940F0040088618869032400F03A
:100C1000040004900F20CDE900046946124800F05A
:100C2000F9FB4F20CDE900046946104800F0F2FBC3
:100C3000104C0F48C4E900058020C4E90250400070
:100C40002061800060612020C4E90605204600F094
:100C500059FB08B1FFF740FE3462666206B070BD12
:100C60000024014000100240001001400008014033
:100C7000080002408803002070B5044690F8240064
:100C800001280DD0012084F824002046FFF784FDC0
:100C900002004FF0000005D084F82400104670BD1B
:100CA000022070BDA16A40F20123994341F4807192
:100CB000A1621F4D23681F49AB4218D10E6816F47C
:100CC000702F14D0A66A46F48016A6620E687605C8
:100CD00005D5A66A26F4005646F48056A662A66A92
:100CE000F6040AD5E66A26F00606E66206E0A66A7B
:100CF00026F48016A6625E68E9E7E06284F82400C4
:100D00006FF00200186020688368C3F34243072B2A
:100D100005D1A84208D1096811F4702F04D0816868
:100D200041F480118160B9E7816841F4A001F9E7DD
:100D300000280140042401402DE9F047894604467B
:100D40003B4900683B4F0E1D9046884201D0B84297
:100D500007D1306810F4702F03D001252846BDE874
:100D6000F08794F8240001280CD0012084F8240096
:100D70002046FFF711FD05004FF0000004D084F875
:100D80002400EBE70220EAE7A16A40F60162914302
:100D900041F48071A1622168B94218D1326812F41D
:100DA000702F14D0A16A41F48011A1623168490505
:100DB00005D5A16A21F4005141F48051A162A16AD4
:100DC000C9040AD5E16A21F00601E16206E0A26ADF
:100DD00022F48012A2624968E9E7E06284F8240004
:100DE000216A15488862216A1448C862216A144839
:100DF000086321686FF0020008602068816841F490
:100E000080718160216843464A464C31206A00F077
:100E1000B7FA20688168C1F342410729816803D08D
:100E200041F48011816099E741F4A001FAE70000E4
:100E30000024014000280140250700088D07000814
:100E40007307000870B54379012B20D00125457147
:100E5000022303710668346802F0100340F6FE7244
:100E60009A409443D1E900210A439A4022433260D8
:100E700002681468C02199408C43146002681368AA
:100E80008B431360057100214171084670BD02203B
:100E900070BD70B5040003D02079002510B105E0C5
:100EA000012070BD6571204600F008F80220207115
:100EB000256101202071002070BD000000B585B0C3
:100EC0000021009101910291039100680E4988422E
:100ED00018D10E48C16941F00051C161C16901F0EA
:100EE00000510491816941F0040181618069694682
:100EF00000F004000490302000900320019004488A
:100F000000F088FA05B000BD0074004000100240F7
:100F10000008014018B5046800940068104421B12D
:100F2000143000900360002018BD0830F9E770B558
:100F30004279012A1ED00122427102230371046802
:100F4000266801F0100302FA03F52E4326600029FB
:100F5000016811D00C6804F470153C249C40A54233
:100F600003D14B6843F002034B60027100214171D1
:100F7000084670BD022070BD0B68C3F383030F2BBE
:100F8000F3D14B6843F00103EEE700002DE9F05F79
:100F900090F821100024022903D004218163012448
:100FA00085E001680A6822F00E020A6001680A689A
:100FB00022F001020A603F4E3E4FB215DFF8F4C046
:100FC000DFF8F090DFF8ECA0DFF8E8B0DFF8E4E05D
:100FD0000168783F13011502ACF1640CA9F15009C6
:100FE000AAF13C0AABF1280BAEF1140E4FF48018B5
:100FF000B14227D9B9420ED0614512D049451DD022
:10100000514518D0594518D0714501D1424615E0D7
:10101000294EB14201D1012210E0274E1436B142CF
:1010200001D110220AE0244E2836B14206D0224ACD
:101030003C32914201D11A4600E02A461E49091F5E
:101040000A602BE0B94213D0614517D0494522D040
:1010500051451DD059451DD0714501D142461AE078
:10106000B14202D14FF0807215E0134EB14201D16E
:10107000012210E0104E1436B14201D110220AE0D4
:101080000D4E2836B14206D00B4A3C32914201D176
:101090001A4600E02A46074980394A60012180F853
:1010A0002110002180F82010416B01B188472046B3
:1010B000BDE8F09F80000240080402402DE9F05F87
:1010C000C16B0A6801680B68046C4FF0040808FAE9
:1010D00004F8844D844E854FDFF814C2DFF8149273
:1010E000DFF814A2DFF814B2DFF814E218EA020FF6
:1010F00065D05FEA437862D50A68920603D40A682D
:1011000022F004020A60DFF8F0814FF48062016887
:1011100008F1140813011402414524D9A9420DD045
:10112000B1420FD0B9421AD0614515D0494515D00A
:10113000514501D1120312E0594501D104220EE0BC
:10114000714501D140220AE06D4D1435A94206D007
:101150006B4A2832914201D11A4600E02246674983
:10116000091F0A6029E0A94213D0B14215D0B94243
:1011700020D061451BD049451BD0514502D14FF4C9
:10118000800217E0414502D14FF0806212E05945DC
:1011900001D104220EE0714501D140220AE0584DF0
:1011A0001435A94206D0564A2832914201D11A4636
:1011B00000E022464B4908394A60C16A71E04FF0AD
:1011C000020808FA04F818EA020F70D05FEA837880
:1011D0006DD50A68920606D40A6822F00A020A60EF
:1011E000012180F82110DFF810814FF400720168AE
:1011F00008F1140813011402414524D9A9420DD065
:10120000B1420FD0B9421AD0614515D0494515D029
:10121000514501D1120312E0594501D102220EE0DD
:10122000714501D120220AE0354D1435A94206D07E
:10123000334A2832914201D11A4600E022462F4912
:10124000091F0A6029E0A94213D0B14215D0B94262
:1012500020D061451BD049451BD0514502D14FF4E8
:10126000001217E0414502D14FF0007212E05945DB
:1012700001D102220EE0714501D120220AE0204D69
:101280001435A94206D01E4A2832914201D11A468D
:1012900000E02246134908394A60002180F82010F6
:1012A000816A00291CD0BDE8F05F0847FFE70825E8
:1012B000A540154214D01A0712D50A6822F00E0272
:1012C0000A6090F84020C36B012101FA02F25A60D3
:1012D000816380F82110002180F82010016BE0E785
:1012E000BDE8F09F080002401C00024030000240B0
:1012F00044000240580002406C00024008040240D2
:101300001C04024030B560B11A4B026814219A42A5
:1013100009D2194B1344B3FBF1F189000164174959
:101320000AE0012030BD134B5B421344B3FBF1F1E3
:10133000890001640F490839C163022180F8211036
:10134000136843F6F0718B43F0E901142143D0E9AF
:1013500002452C43214304692143446921438469A4
:101360002143194311600021416301224277017733
:10137000084630BD08040240F8FFFDBF00000240EF
:1013800070B5044690F82000002501280CD00120FB
:1013900084F8200094F821600020012E06D084F803
:1013A00020000225284670BD022070BD022684F868
:1013B0002160A0632068066826F0010606602046CA
:1013C000FFF774FAE06A00282068016802D041F053
:1013D0000E0106E021F0040101602068016841F07F
:1013E0000A0101602068016841F001010160D9E74C
:1013F00070B5044600F01CF90546601C02D0044894
:101400000078044400F014F9401BA042FAD370BDE8
:10141000280000202DE9F84FDFF8C891002409F1D9
:10142000040A0AF1040B23460F270BF1040ED1E046
:101430000125A54006EA0502AA4276D1DFF8A8C137
:101440004E68A6EB0C0866452BD00DDC032E34D07D
:1014500005DC36B3012E19D0022E2FD11BE0112E40
:1014600016D0122E2AD119E0B8F5881F19D006DC43
:10147000B8F5803F15D0B8F5801F1FD111E0B8F541
:10148000001F0ED0B8F5041F18D10AE0CB6815E094
:10149000CB681B1D12E0CB6808330FE0CB680C3320
:1014A0000CE08B682BB1012B4FF0080303D0456192
:1014B00004E0042302E0056100E00023FF2A01D8D4
:1014C000064601E000F104064FEA840501D9A5F1C2
:1014D0002005D6F8008007FA05FC28EA0C0803FA74
:1014E00005F548EA0508C6F800804D68ED0070D59E
:1014F0003E4DAE6946F00106AE61AD6924F00306CB
:1015000005F0010500953A4D06EB050CDCF8085096
:10151000A607360F07FA06F825EA0805DFF8D48093
:10152000404503D14FF0000825E052E0DFF8C880C5
:10153000404502D14FF001081DE0DFF8C080404572
:1015400002D14FF0020816E0DFF8B480404502D126
:101550004FF003080FE0DFF8AC80404502D14FF0B8
:10156000040808E0DFF8A080404502D14FF00508EC
:1015700001E04FF0060808FA06F848EA0508CCF83A
:1015800008804D68D9F80060ED034D4601D516433B
:1015900000E096432E604D68DAF80060AD035546D2
:1015A00001D5164300E096432E604D68DBF80060DD
:1015B000ED025D4601D5164300E096432E604D686E
:1015C000DEF80060AD02754601D5164300E0964393
:1015D0002E60641C0A681646E2407FF429AFBDE81D
:1015E000F88F0000000401400000111000100240BC
:1015F0000000014000080140000C014000100140C3
:101600000014014000180140001C0140806808409F
:1016100000D001207047C26821EA02030A4043EA71
:101620000241016170470AB1016170470904FBE79B
:101630000148806870470000280000200248816847
:10164000027811448160704728000020074810B5D7
:10165000016841F010010160032000F075F80020DE
:1016600000F006F800F024F8002010BD0020024031
:1016700070B50D4D04464FF47A712878B1FBF0F047
:101680000A490968B1FBF0F000F0A4FD48B9102C3C
:1016900007D200222146501E00F036F800206C6070
:1016A00070BD012070BD0000280000203400002023
:1016B0000C4808B5816941F001018161816901F03F
:1016C00001010091C16941F08051C161C06900F020
:1016D000805000900448416821F0E06141F00071C1
:1016E000416008BD0010024000000140002809DBF5
:1016F00000F01F02012191404009800000F1E0202C
:10170000C0F8001170470000F0B40E4B1B680C4687
:10171000C3F30223C3F10705042D00D90425191DC5
:10172000072901D2002300E0DB1E012606FA05F19D
:10173000491E214099409E40761E16403143F0BC20
:1017400002F0D8BB0CED00E0064900F00702086883
:101750004FF6FF03184040EA0220034A1043086096
:10176000704700000CED00E00000FA05014901207F
:101770000862704700000E4210B52CA401461DCC33
:1017800086B08DE81D002DA02D4C0068049000202F
:1017900004292FD00BDC01292FD0022928D100F0F9
:1017A00071F96168C1F38131491C49001EE00829C3
:1017B00020D010291CD161682268D20118D5C1F34C
:1017C0008342C9031DF8020009D5616804AAC1F368
:1017D0004041515C1B4AB2FBF1F1484301E01A4918
:1017E00048436168490203D440000321B0FBF1F093
:1017F00006B010BD00F056F9FAE7226AC2F30121E3
:10180000012903D1920701D5C803F1E7022905D1C7
:10181000626A920702D549F64040E9E70329E7D119
:1018200021688903E4D54FF22440E1E7020304056F
:10183000060708090A0B0C0D0E0F1010010200001C
:101840000010024000127A0000093D002DE9F84323
:1018500005460078354CC00754D0E0690026C0002A
:1018600008D4E06940F08050E061E069012600F0B2
:10187000805000902E480168C90512D40168804646
:1018800041F480710160FFF7D3FE074605E000BF19
:10189000FFF7CEFEC01B642823D8D8F80000C0058F
:1018A000F6D5206A10F4407021D0A98801F4407167
:1018B00081421CD0206A1F49012220F440700A6036
:1018C00000220A602062C00711D0FFF7B1FE074670
:1018D00041F2883808E000BFFFF7AAFEC11B41456E
:1018E00002D90320BDE8F883206A8007F4D5206A76
:1018F000696820F44070084320621EB1E06920F05E
:101900008050E0612878800705D56068A96820F4D8
:101910004040084360602878C00605D56068696962
:1019200020F48000084360600020DBE700100240E4
:1019300000700040400442422DE9F0470F46050088
:1019400061D0434E306800F00700B84209D23068D9
:1019500020F0070038433060306800F00700B842DC
:1019600051D128683B4C810712D5400703D56068E8
:1019700040F4E06060602878000703D5606840F4B8
:10198000605060606068A96820F0F0000843606003
:101990002878C00728D06868012810D0216802285C
:1019A00010D0890700292EDA616821F00301014374
:1019B0006160FFF73DFE804641F288390DE0216805
:1019C0008903EFE78901EDE7FFF732FEA0EB08019D
:1019D000494502D90320BDE8F0876068696800F0D6
:1019E0000C00B0EB810FEFD1306800F00700B84277
:1019F0000BD9306820F0070038433060306800F0C1
:101A00000700B84201D00120E5E72878400705D556
:101A10006068E96820F4E0600843606028780007A7
:101A200006D56068296920F4605040EAC100606012
:101A300000F038F86168084AC1F30311515CC840EE
:101A40000649086006480068FFF712FE0020C2E75A
:101A50000020024000100240A04200083400002094
:101A60002C0000200448054900684968044AC1F375
:101A70000221515CC8407047340000200010024031
:101A8000B04200080448054900684968044AC1F3A7
:101A9000C221515CC8407047340000200010024051
:101AA000B042000812A185B00FC98DE80F0014A044
:101AB000144A006804905168134801F00C03042B89
:101AC00010D0082B0ED1C1F38343C9031DF80300C6
:101AD0000AD5516804AAC1F34041515C0A4A5043F7
:101AE000B0FBF1F005B0704708494843FAE7000041
:101AF00002030405060708090A0B0C0D0E0F10104F
:101B0000010200000010024000127A0000093D00AE
:101B10002DE9F84F040070D02078C04DC00749D09F
:101B20006868C0F38100012807D06868C0F38100AD
:101B3000022809D16868C00306D52868800339D512
:101B400060680028E7D035E06068B0F5803F0BD0D2
:101B500010B1B0F5A02F11D0286820F48030286093
:101B6000286820F4802002E0286840F48030286053
:101B7000606890B1FFF75CFD06460AE0286840F413
:101B800080202860F0E700BFFFF752FD801B64282B
:101B900073D828688003F7D50CE0FFF749FD0646A7
:101BA00005E000BFFFF744FD801B6428F0D82868DB
:101BB0008003F7D420789A4E80074FF001094FF048
:101BC000000839D5686810F00C0F07D06868C0F3BA
:101BD0008100022809D16868C00306D428688007FC
:101BE00014D52069012808D110E02069B0B1C6F8E9
:101BF0000090FFF71DFD074605E00AE1FFF718FD1D
:101C0000C01B0228C4D828688007F7D528686169F6
:101C100020F0F80040EAC10028600DE0C6F800801E
:101C2000FFF706FD074604E0FFF702FDC01B022890
:101C300023D828688007F7D4207800072CD5794866
:101C4000A169D9B1C0F80090FFF7F2FC074604E0A3
:101C5000FFF7EEFCC01B02280FD8686A8007F7D593
:101C600071484FF4FA510068B0FBF1F0009000BFEA
:101C70000098411E0091FAD20EE080E0C0F800808A
:101C8000FFF7D6FC074604E0FFF7D2FCC01B022892
:101C900075D8686A8007F7D42078400760D5E8696E
:101CA0000027C00008D4E86940F08050E861E86986
:101CB000012700F0805000905C480168C90513D4EA
:101CC0000168834641F480710160FFF7B1FC8246F0
:101CD00006E000BFFFF7ACFCA0EB0A0064284ED87A
:101CE000DBF80000C005F5D5E06801280AD008B18E
:101CF000052813D0286A20F001002862286A20F005
:101D0000040002E0286A40F001002862E06841F225
:101D1000883B98B1FFF78CFC82460BE0286A40F0C4
:101D200004002862EEE700BFFFF782FCA0EB0A0187
:101D300059455AD8286A8007F6D50CE0FFF778FC99
:101D4000824605E0FFF774FCA0EB0A0159454CD828
:101D5000286A8007F6D41FB1E86920F08050E86156
:101D6000E06988B36968C1F38101022944D002287F
:101D7000C6F8608004D0FFF75BFC044638E034E02E
:101D8000FFF756FC074604E0FFF752FCC01B022891
:101D90002BD828688001F7D4206AB0F5803F05D1A0
:101DA0006868A16820F4003008436860D4E908013D
:101DB0000843696821F4741108436860C6F86090AC
:101DC000FFF736FC044606E025E000BFFFF730FCD5
:101DD000001B022809D828688001F7D51BE000BF46
:101DE000FFF726FC001B022802D90320BDE8F88F6C
:101DF00028688001F4D40EE00128F7D06868226AD0
:101E000000F48031914204D1616A00F4701088427C
:101E100001D00120EAE70020E8E7000000100240BE
:101E20000000424280044242340000200070004022
:101E300070B5040003D0607C002610B105E00120DD
:101E400070BD2674204600F043F8022060742046DE
:101E500000F010F9042578BB204601F0FFF958BBCB
:101E60002068416821F007014160A06820B117484F
:101E7000016821F0010101601448001F0168A26897
:101E800021F46071114301606068411C04D101209C
:101E9000FFF772FC80B1401E21688A6822F00F02B1
:101EA00042EA10428A602168CA6860F30F02CA6081
:101EB000204601F0EDF908B16574C0E7E673012032
:101EC0006073A0736074002070BD0000306C00402F
:101ED00008B50068084988420DD1FFF747FC07485C
:101EE000C16941F00061C161C069054900F000604D
:101EF00000900120086008BD00280040001002404A
:101F00003C0442422DE9F0410D4604003BD0C5B3EC
:101F1000207C01283AD04FF0010884F8108002207C
:101F20006074E87872B301F090F9E073687801F0BA
:101F30008CF96073A87801F088F9A073C2B2617B54
:101F4000E07B01F0D7F920732870204601F0C2F938
:101F50004FF46161B0FBF1F1002518292DD9182249
:101F6000B1FBF2F1A1EB011101EB4101C1EB011158
:101F700000EBC1163146204601F0FBF90427C8B931
:101F80000BE000E004E00120BDE8F0810220FBE767
:101F9000E07368786073A878CFE7204601F093F982
:101FA000411C0AD0B04208D206490144204601F043
:101FB000CCF910B167742574E5E784F811802574B5
:101FC0000020E1E7805101002DE9F0410D460400B9
:101FD00024D01DB3207C012823D04FF0010884F8C1
:101FE0001080022060742878EAB101F02EF94FF4D5
:101FF000616100FB01F6687801F027F9C0EB001081
:1020000006EB8006A87801F020F93518294620460D
:1020100001F0AFF90026042710BB0FE00120BDE856
:10202000F0810220FBE74FF4616148436978C1EB1E
:10203000011100EB8100A9784518E7E720684168A5
:1020400021F005014160204601F03DF9411C0AD014
:10205000A84208D206490144204601F076F910B1A1
:1020600067742674DAE784F8118026740020D6E7B6
:102070008051010070B504000AD02068416821F049
:1020800008014160FFF7D4FA05464FF47A7608E07C
:10209000012070BDFFF7CCFA401BB04201D90320EC
:1020A00070BD206840680007F4D5002070BD70B591
:1020B000040009D0606A002540B125616561A56210
:1020C00094F8510040B10CE0012070BD6068B0F59B
:1020D000827FF4D0E561F2E784F85050204600F0AA
:1020E0003FF8022084F851002068016821F0400187
:1020F0000160A088218900F4827001F40441084342
:10210000A18901F400610843217C01F00201084328
:10211000217D01F001010843218B01F40071084386
:10212000217F01F03801084394F8201001F080016C
:102130000843218D01F40051084321680860A0691B
:10214000042101EA1040216848602068C16921F437
:102150000061C1616565012084F85100002070BDF7
:1021600030B585B000240094019402940394006873
:102170001549884225D11548C16941F48041C161A2
:10218000C16901F480410491816941F008018161D4
:1021900080690F4D00F0080004904FF4204000903B
:1021A000022001900320039069462846FFF732F988
:1021B0004FF48040CDE90004694628460294FFF7B9
:1021C00029F905B030BD0000003800400010024081
:1021D000000C014010B5401EB0F1807F01D30120FA
:1021E00010BD4FF0E02460610F21601701F082FE06
:1021F0000020A06107202061002010BD70477047BB
:1022000010B590F83C20012A22D0012280F83C2011
:10221000CA688C6822F4407222434C6822F48062BF
:1022200022430C6822F4006222430C6922F480529B
:1022300022434C6922F400522243C969002322F44C
:1022400080420A4301684A6480F83C30002010BD97
:10225000022010BD70B590F83C20012A2CD001243A
:1022600080F83C40022280F83D2003685A689D684F
:1022700022F070060A6832435A60104B02689A4294
:102280000ED00F4B9A420BD0B2F1804F08D00D4BBD
:102290009A4205D00C4B9A4202D00C4B9A4204D180
:1022A000496825F080031943916080F83D40002182
:1022B00080F83C10084670BD022070BD002C014023
:1022C000003401400004004000080040000C0040C1
:1022D00010B5040003D094F83D0010B107E00120D0
:1022E00010BD002084F83C00204600F01FF80220BA
:1022F00084F83D00211D206801F0E8F9012084F8F0
:10230000460084F83E0084F83F0084F8400084F8DA
:10231000410084F8420084F8430084F8440084F8C3
:10232000450084F83D00002010BD000008B51A4AA1
:1023300001681A4891420ED1C16941F01001C16192
:10234000C069002200F01000009011463620FFF70F
:10235000DBF9362010E0124A914211D1C16941F0F7
:102360002001C161C069002200F0200000901146E8
:102370003720FFF7C9F93720BDE80840FFF7B6B9A5
:10238000084A914207D1816941F400518161806915
:1023900000F40050009008BD001000400010024002
:1023A000001400400034014090F83D10012901D094
:1023B00001207047022180F83D100168CA6842F090
:1023C0000102CA6000680E4988420ED00D49884259
:1023D0000BD0B0F1804F08D00B49884205D00B4993
:1023E000884202D00A49884204D1816801F007017D
:1023F000062903D0016841F0010101600020704707
:10240000002C01400034014000040040000800405E
:10241000000C004070B5044690F83C00012817D02D
:10242000012584F83C50022084F83D002068826831
:1024300022F0770222F47F4282600868502830D070
:102440000DDC20284DD005DC98B310283BD148E0A6
:10245000022070BD302844D0402834D139E06028B3
:1024600028D0702806D0B0F5805F2CD0B0F5005F82
:1024700029D10AE0CB68D1E90121206801F079F97E
:102480002068816841F0770109E0CB68D1E901213A
:10249000206801F06EF92068816841F48041816014
:1024A00011E0CA684968206801F038FA50212068B4
:1024B00007E016E0CA684968206801F040FA602128
:1024C000206801F060F984F83D50002084F83C0059
:1024D00070BDCA684968206801F020FA4021206870
:1024E000EFE7226801461046EBE7704770B50446F7
:1024F000006801694FF00005C943890715D4C16818
:10250000C943890711D4E91E0161012020772068A1
:1025100080698007204602D0FFF7E7FF04E000F063
:10252000BFF8204600F04EF9257720680169C943BD
:10253000490717D4C168C943490713D46FF0040190
:102540000161022020772068806910F4407F2046D6
:1025500002D0FFF7CAFF04E000F0A2F8204600F026
:1025600031F9257720680169C943090716D4C16884
:10257000C943090712D46FF00801016104202077D4
:102580002068C0698007204602D0FFF7AEFF04E054
:1025900000F086F8204600F015F9257720680169DB
:1025A000C943C90617D4C168C943C90613D46FF01B
:1025B00010010161082020772068C06910F4407F75
:1025C000204602D0FFF791FF04E000F069F82046B2
:1025D00000F0F8F8257720680169C943C90708D1D8
:1025E000C168C943C90704D1891E0161204600F0B2
:1025F00045F920680169C943090609D4C168C9437E
:10260000090605D46FF0800101612046FFF7F6FD51
:1026100020680169C943490609D4C168C94349060C
:1026200005D46FF040010161204600F028F92068D0
:102630000169C94389060BD4C168C943890607D417
:102640006FF0200101612046BDE87040FFF7D7BD63
:1026500070BD000000B585B000210091019102918C
:10266000039100680B49884212D10B48816941F0FF
:10267000100181618069694600F0100004904FF4F8
:10268000707000900220019003900448FEF7C2FE93
:1026900005B000BD003401400010024000100140B0
:1026A000704770B5044690F83C000D4601280AD0EA
:1026B000012084F83C0042B1042A18D0082A2AD00C
:1026C0000C2A4DD139E0022070BD206801F064F879
:1026D0002068816941F0080181612068816921F0E9
:1026E00004018161206881692A69114311E0206831
:1026F00001F082F82068816941F4006181612068FD
:10270000816921F480618161206881692A6941EAD7
:102710000221816124E0206801F0A4F82068C169E9
:1027200041F00801C1612068C16921F00401C16163
:102730002068C1692A69114311E0206801F0C6F8D8
:102740002068C16941F40061C1612068C16921F458
:102750008061C1612068C1692A6941EA0221C161C1
:10276000002084F83C0070BD10B5040003D094F83C
:102770003D0010B107E0012010BD002084F83C00AE
:10278000204600F01EF8022084F83D00211D20683C
:1027900000F09CFF012084F8460084F83E0084F895
:1027A0003F0084F8400084F8410084F8420084F837
:1027B000430084F8440084F8450084F83D0000207C
:1027C00010BD70477047000010B50446022249B1A1
:1027D00004290ED0082913D094F84100012816D0FE
:1027E000012010BD94F83E000128F9D184F83E2064
:1027F0000FE094F83F000128F2D184F83F2008E070
:1028000094F840000128EBD184F8402001E084F8DE
:1028100041200122206800F09FFF13492068134ADD
:10282000884201D0904203D1436C43F40043436497
:10283000206888420DD090420BD0B0F1804F08D074
:102840000B49884205D00B49884202D00A49884288
:1028500004D1816801F00701062903D0016841F025
:1028600001010160002010BD002C01400034014036
:102870000004004000080040000C00407047704712
:102880007047000070B5026804461068D16853694B
:1028900010F00F0F52D003F0010501F490762E4393
:1028A0005FD0C20705D0CA0503D5E26B42F0010232
:1028B000E263420705D5DA0703D0E26B42F0020279
:1028C000E263820705D5DA0703D0E26B42F0040227
:1028D000E263020707D501F020022A4303D0E26B2E
:1028E00042F00802E263E26B002A33D0800604D58E
:1028F000880602D5204601F00FFA20684069E16B96
:10290000C0F38010090700D428B3204601F031F845
:102910002068416949061AD5416921F040014161A9
:10292000606BA0B12D494163606BFEF72FFB00285F
:1029300010D0606B416BBDE870400847830610D52E
:102940008B060ED52046BDE8704001F0E5B9204663
:10295000FFF796FF70BD2046FFF792FF0020E0636F
:1029600070BD03062BD50B0629D594F83900212814
:10297000F6D1A068B0F5805F01D12069B0B1206ABE
:10298000411C2162216800784860E08C401E0004F0
:10299000000CE084E4D12068C16821F08001C160AE
:1029A0002068C16841F04001C16070BD206A0088A4
:1029B000C0F308005060206A801C2062E5E74006F2
:1029C000F3D54806F1D5D168204621F04001D16009
:1029D000202184F8391000F045F970BD63390008F2
:1029E00070B5040004D094F83900002510B106E059
:1029F000012070BD84F83850204600F023F82420D0
:102A000084F839002068C16821F40051C160204673
:102A100001F0C8F92068016921F490410161206842
:102A2000416921F02A0141612068C16841F40051E7
:102A3000C160E563202084F8390084F83A00002062
:102A400070BD000070B586B000240094019402941B
:102A5000039403682E482D4E022103220515B3422C
:102A600026D1836943F480438361836903F48043FF
:102A70000493836943F0040383618069254E00F069
:102A8000040004900802CDE9000103926946304633
:102A9000FEF7C0FCCDE90054694630460294FEF7CB
:102AA000B9FC002211462520FEF72EFE252028E045
:102AB000194EB34227D1C36943F48023C361C3696C
:102AC00003F480230493836943F0080383618069DE
:102AD000CDE9005100F00800CDE903200F4D694613
:102AE0002846FEF797FCE814CDE90004694628461D
:102AF0000294FEF78FFC002211462720FEF704FE09
:102B00002720FEF7F3FD06B070BD0000003801403D
:102B1000001002400008014000480040000C014045
:102B200090F83A30202B22D1F9B1F2B190F8383038
:102B3000012B1CD081628285C2850021C1632222C3
:102B400080F83A2080F838100168CA6842F4807230
:102B5000CA6001684A6942F001024A610068C168BE
:102B600041F02001C1600020704701207047022021
:102B7000704770472DE9F843044690F839001F4626
:102B800016460D4620284CD1C5B1BEB194F8380088
:102B9000012846D0012084F838004FF00008C4F81E
:102BA0003C80212084F83900FEF742FDA68481464E
:102BB000E684A068B0F5805F03D004E00120BDE8A2
:102BC000F883206928B12E465FF0000584F838802C
:102BD0000EE00026FAE78021204601F03FF9A0B977
:102BE000AEB116F8010B21684860E08C401EE0840D
:102BF000E08C4B464FF0000200970028EBD14FF0DD
:102C00004001204601F02AF930B10320D7E735F81A
:102C1000020BC0F30800E6E7202084F8390000200A
:102C2000CDE70220CBE790F83930202B18D1A9B19D
:102C3000A2B190F83830012B12D001628284C28494
:102C40000021C163212280F8392080F83810006803
:102C5000C16841F08001C1600020704701207047C9
:102C6000022070477047FEE72DE9F04701221D4E14
:102C700081465702002439463046FEF7D4FC4FF413
:102C80008078002241463046FEF7CDFCBA4600254A
:102C90004746012239463046FEF7C5FC052001F0C3
:102CA00059F96006040E51463046FEF7AFFC08B1F4
:102CB00044F00104002239463046FEF7B4FC0320FC
:102CC00001F048F96D1CEDB2082DE2D3B9F1000F07
:102CD00004D000F0D1F82046BDE8F08700F0AAF853
:102CE000F9E70000000C014070B50122104D5402BC
:102CF00021462846FEF797FC012216023146284657
:102D0000FEF791FC0A2001F025F900222146284611
:102D1000FEF789FC0A2001F01DF900223146284601
:102D2000FEF781FCBDE870400A2001F013B90000F5
:102D3000000C014070B5142001F00CF9124D4FF455
:102D40008074002221462846FEF76DFC012001F028
:102D500001F96600002231462846FEF764FC012096
:102D600001F0F8F8012221462846FEF75CFC0A2013
:102D700001F0F0F8012231462846FEF754FCBDE888
:102D800070400A2001F0E6B8000C01402DE9F04740
:102D90000024274D06464FF48077A0462246394648
:102DA0002846FEF740FC4FF40079300601D5012299
:102DB00000E0002249462846FEF735FC052001F0D8
:102DC000C9F8012239462846FEF72DFC052001F0FE
:102DD000C1F8002239462846FEF725FC032001F001
:102DE000B9F87006641C060EE4B2082CDDD301228B
:102DF0004C4649462846FEF716FC0122394628462D
:102E0000FEF711FC052001F0A5F821462846FEF743
:102E1000FDFB012800D18046002239462846FEF7F6
:102E200002FC1E2001F096F84046BDE8F087000045
:102E3000000C014070B50F4D4FF480740022214604
:102E40002846FEF7F0FB002261002846FEF7EBFB68
:102E5000052001F07FF8012221462846FEF7E3FB1A
:102E6000052001F077F821462846BDE87040002291
:102E7000FEF7D9BB000C014070B50F4D4FF48074C4
:102E8000002221462846FEF7CEFB012251022846A9
:102E9000FEF7C9FB052001F05DF801222146284616
:102EA000FEF7C1FB052001F055F821462846BDE894
:102EB00070400022FEF7B7BB000C01402DE9FE4335
:102EC00000242D48009401942A4902940160891538
:102ED00081600125057304754FF00908C0F8108062
:102EE0004FF460214460C161FDF7DEFD0A20032636
:102EF0008DE8610069462048FDF754FD0B2002274C
:102F0000CDE9000769461C48FDF74CFD0C20CDE9D2
:102F1000000669461848FDF745FD0D200090042085
:102F2000019069461448FDF73DFD0520CDE90040BC
:102F300069461148FDF736FD0624CDE9005469467F
:102F40000D48FDF72FFD0720CDE9007069460A48BE
:102F5000FDF728FD0820CDE9006069460648FDF729
:102F600021FDCDE9004869460348FDF71BFDBDE89A
:102F7000FE830000002401403C000020094808B501
:102F8000416941F0010141614069002200F0010006
:102F9000009011460B20FEF7B7FBBDE808400B2060
:102FA000FEF7A4BB001002402DE9F04F85B00024CD
:102FB00044480094019402940394816941F0100103
:102FC0008161816901F010010491816941F0200162
:102FD0008161816901F020010491816941F004015E
:102FE0008161816901F004010491816941F0080166
:102FF00081618069DFF8D0A000F0080042F620452A
:103000000490002229465046FEF70DFB41F20407CA
:10301000002239462D48FEF706FBDFF8B4B04FF426
:103020001948002241465846FEF7FDFA4FF4407910
:10303000012249462548FEF7F6FA009502260125A9
:103040000396CDE9015469465046FEF7E3F9102096
:10305000CDE90004694650460294FEF7DBF900977B
:103060000396CDE9015469461848FEF7D3F9CDF827
:1030700000800396CDE9015469465846FEF7CAF927
:1030800028038DE8310069465046FEF7C3F9042055
:103090008DE8310069460F48FEF7BCF9F8208DE84D
:1030A000310069460948FEF7B5F901AA1120CDF8AB
:1030B000009082E8510069460448FEF7ABF905B07C
:1030C000BDE8F08F0010024000100140000C0140EC
:1030D00000080140001401402DE9FC4100251A4C74
:1030E000184E019500956F1EB0152660C4E9017059
:1030F0002046FEF79DFE2660C4E901752046FEF7D6
:1031000097FE17208DF8040005208DF805008DF836
:103110000650012201A92046FEF756FF01208DF836
:10312000000012208DF8010016208DF802002020EA
:103130008DF80300012269462046FEF7E3FEBDE854
:10314000FC81000000280040800000200B480A4954
:103150004FF4007201604FF4827141600021816080
:10316000C1600161C0E90512C16101624162816211
:103170000A21C162FEF79BBF003800409400002086
:1031800010B596B000240F941094119412941394D7
:103190001C2168461494FCF7FEFF202107A8FCF7C9
:1031A000FAFF2748254901600121C0E9011440F6D2
:1031B0001601C0E903148021C0E90541FFF788F832
:1031C0004FF480500F900FA91D48FFF723F91C48BA
:1031D000FFF7CAFA139413A919481494FFF73AF8A1
:1031E0006020CDE900040294039404940594002225
:1031F000694613480694FFF754FA042269461048BA
:10320000FFF74FFA082269460D48FFF74AFA0C22E9
:1032100069460B48FFF745FA0794089409944FF460
:1032200000500A94CDE90B4007A905480E94FEF71B
:10323000E7FF0348FFF70EFA16B010BD0034014057
:103240007C010020FEE770477047010901EB810116
:1032500000F00F0000EB4100C0B2704770B50446AB
:10326000FEF7E6F905464FF47A7606E0FEF7E0F958
:10327000401BB04201D9032070BD20684068800621
:10328000F4D52068416841F010014160002070BD14
:1032900070B504460068416821F010014160FEF7F6
:1032A000C7F905464FF47A7607E000BFFEF7C0F98C
:1032B000401BB04201D9032070BD206840688006E1
:1032C000F4D5002070BD0168086A496A89B241EAF4
:1032D00000407047006881698AB2C1698BB2816918
:1032E00089B28A4203D0C06961F31F40704743EA44
:1032F00002407047F0B56424C1EBC1030927A50063
:10330000072603EB01130329B3FBF7F100F5FA607D
:10331000114401440AD2401EB0FBF4F201EB9001CB
:10332000B0FBF5F0891A0844001D08E0B0FBF4F288
:1033300001EB9001B0FBF5F0891A0844801CB0FB4A
:10334000F6F106FB1100C0B2F0BD70B50D460646A1
:103350000024FFF783FF48B93168280C0862316800
:10336000A8B248623046FFF793FF00B1012420461F
:1033700070BD70B50D4606460024FFF76FFF48B9D3
:103380003168280C88613168A8B2C8613046FFF7FF
:103390007FFF00B10124204670BDF0B500231C461C
:1033A00040F231160FE0055D6B4008251F0602D57F
:1033B00086EA430300E05B006D1EDBB215F0FF05FB
:1033C000F4D1641CE4B28C42EDD3934201D00120CD
:1033D000F0BD0020F0BD000038B505460020F52402
:1033E0000090FFF781FC8020FFF7D0FC18B9204641
:1033F000FFF7CCFC08B1082038BD0120FDF7F8FF2D
:10340000FFF772FC8120FFF7C1FC0128F5D00020F6
:10341000FFF72AFC8DF800000020FFF725FC8DF84F
:1034200001000120FFF720FC8DF80200FFF782FC6D
:10343000BDF800009DF8022044BA02216846FFF75B
:10344000ACFF0028D8D124F0030143F2D402514349
:10345000024A02EB1141296038BD0000A8FDFFFFC0
:1034600038B505460020F3240090FFF73DFC80208E
:10347000FFF78CFC18B92046FFF788FC08B108203C
:1034800038BD0120FDF7B4FFFFF72EFC8120FFF7C8
:103490007DFC0128F5D00020FFF7E6FB8DF8000049
:1034A0000020FFF7E1FB8DF801000120FFF7DCFBB6
:1034B0008DF80200FFF73EFCBDF800009DF80220E9
:1034C00044BA02216846FFF768FF0028D8D124F0EB
:1034D000030144F2A4425143024A02EB1141296024
:1034E00038BD0000B3EDFFFF20F0030043F2D4012C
:1034F0004843024901EB104070470000A8FDFFFF60
:1035000020F0030044F2A4414843024901EB10407B
:1035100070470000B3EDFFFFF0B5FF23002440F239
:1035200031160FE0055D6B4008251F0602D586EABF
:10353000430300E05B006D1EDBB215F0FF05F4D124
:10354000641CE4B28C42EDD3934201D00120F0BD63
:103550000020F0BD2DE9FC410E460746FFF7C4FBF5
:103560008820FFF713FC38B92C20FFF70FFC18B99F
:103570000620FFF70BFC10B10120BDE8FC81FFF72E
:10358000D9FB1020FDF734FFFFF7AEFB8920FFF7D2
:10359000FDFBF8B90020FFF767FB8DF80000002065
:1035A000FFF762FB8DF801000020FFF75DFB8DF84F
:1035B00002000020FFF758FB8DF804000020FFF701
:1035C00053FB8DF805000120FFF74EFB8DF8060038
:1035D000FFF7B0FBBDF800009DF8022045BABDF82A
:1035E0000400022144BA6846FFF796FF18B928463E
:1035F000FFF786FF38609DF80620022101A8FFF73B
:103600008BFF18B92046FFF76FFF30600020B4E74A
:1036100070470000074910B54143C0F5805091FB49
:10362000F0F0FDF7F3F80449FCF7C0FDBDE81040E9
:10363000FCF72ABFA086010000002041FDF7FEBF75
:1036400030B595B028216846FCF7A5FD14210AA8DD
:10365000FCF7A1FD18210FA8FCF79DFD0121052015
:1036600000240090CDE902414FF480300190022502
:103670000491CDE907504FF4E01009906846FEF739
:1036800047FA0F20CDE90A056802CDE90C40022176
:103690000AA80E94FEF750F903200F90E80110904D
:1036A0004FF4404011900FA8FEF7D0F815B030BD90
:1036B000704700000148FEF719BF0000EC00002031
:1036C0000148FEF713BF000034010020F0B5026886
:1036D0001C4B1D4D1D4E1E4F1E4C4FF0804C9842F2
:1036E00009D0A04207D0604505D0A84203D0B0421F
:1036F00001D0B84204D122F0700E4A6842EA0E02AC
:10370000984209D0A04207D0604505D0A84203D016
:10371000B04201D0B84203D122F44075CA682A43AE
:103720004D6922F080022A4302608A68C2620A68F8
:103730008262984201D0A04201D10969016301214E
:103740004161F0BD002C0140000400400008004031
:10375000000C00400034014010B501F01F030121AE
:10376000046A99408C430462016A9A4011430162E1
:1037700010BD10B5846842EA032224F47F440A4352
:103780002243826010BD826822F070020A4342F038
:103790000701816070470000F0B5026A22F0010263
:1037A0000262036A42688469124E24F073050C6851
:1037B0002C4323F002058B682B430D4DA84201D00A
:1037C000B04205D123F00807CB683B4323F0040344
:1037D000A84201D0B04205D14D6922F44072154390
:1037E0008A692A4342608461496841630362F0BD8B
:1037F000002C014000340140F0B5026A22F01002B2
:103800000262026A436884690D6824F4E64444EA6B
:1038100005248D6822F0200242EA05120F4D104E59
:10382000A84201D0B04206D1CF6822F0800242EA1D
:10383000071222F04002A84201D0B04207D14D69E0
:1038400023F4406343EA85038D6943EA85034360BB
:103850008461496881630262F0BD0000002C014070
:1038600000340140F0B5026A22F480720262026AFA
:103870004368C46922F4007224F073050C68124E88
:103880002C438D6842EA05220E4DA84201D0B04279
:1038900006D1CF6822F4006242EA072222F4806255
:1038A000A84201D0B04207D14D6923F4405343EA06
:1038B00005138D6943EA05134360C4614968C16318
:1038C0000262F0BD002C01400034014030B5026AB4
:1038D00022F480520262046A4268C3690D6823F4CC
:1038E000E64343EA05238D6824F4005444EA053492
:1038F000084DA84202D0084DA84204D14D6922F4D7
:10390000804242EA85124260C361496801640462F0
:1039100030BD0000002C01400034014010B5036AA6
:10392000046A24F001040462846924F0F00444EA87
:10393000021423F00A020A438461026210BD10B52A
:10394000036A23F0100303628369046A23F470435B
:1039500043EA023224F0A00343EA011182610162CA
:1039600010BD10B5406A0021C185C184FEF788FFF3
:1039700010BD0168CA6822F49072CA6001684A6981
:1039800022F001024A61202180F83A1070470000BD
:103990002DE9F05FD54C2078401C2070D448006899
:1039A00080067DD56078401C6070D148001D00689D
:1039B0000027C0B2E0702179DFF83893DFF838A330
:1039C0004FF04F083F2604F1200521B1012968D0AE
:1039D000022967D034E1607147281ED00FDCC74947
:1039E000A0F1310011287DD2DFE800F0272B2D3324
:1039F0003537393BA0A0A0A0A0A0A0A03F00012186
:103A000048380F286ED2DFE800F0167B7B7B7D9173
:103A100091919191917B0B7B7B0085F800806DE00B
:103A2000A08A000A2870A08A09E0B049B448203171
:103A3000FFF7F9F87BE0A18B06E0888812E0687058
:103A400005E008890EE08989080A28706970022259
:103A5000EBE7088A06E0888A04E0088B02E0888B9E
:103A600000E0088C010A2970E9E7FF202870802116
:103A70004F464846FDF7CAFD18B9287800F0FE0009
:103A8000287040213846FDF7C1FD18B9287800F0AC
:103A9000FD00287020213846FDF7B8FD38B902E056
:103AA00022E131E098E0287800F0FB002870102136
:103AB0003846FDF7ABFD18B9287800F0F7002870FC
:103AC00008213846FDF7A2FD18B9287800F0EF006C
:103AD000287004218B48FDF799FD28B9287800F05B
:103AE000DF0000E022E028704FF480515046FDF7DF
:103AF0008DFD18B9287800F0BF002870012294E7E6
:103B000021719DE0217111E0A07161794C2960D093
:103B100006DC49295DD04A295BD04B2906D158E003
:103B2000532906D0552954D0562952D02771A67052
:103B300086E0C0074FF4006B01D0012200E00022B4
:103B400059465046FDF76FFDA0794FF4806180071C
:103B500001D5012200E000225046FDF764FDA07966
:103B6000DFF8A4A140074FF4004101D5012200E095
:103B700000225046FDF757FDA079000701D501222C
:103B800000E000224FF480515046FDF74CFDA07933
:103B9000C00601D5012200E0002259465046FDF73B
:103BA00042FDA0794FF48071800601D5012200E02A
:103BB00000225046FDF737FDA079400601D50122CD
:103BC00000E0002204214846FDF72DFD85F8008025
:103BD0002EE00220207133E0494AE071483A94F81F
:103BE00005C0452112684FF4FA63BCF14C0F71D047
:103BF00009DCBCF1490F4ED0BCF14A0F55D0BCF1E5
:103C00004B0F1DD15BE0DFF80491DFF804A14FF406
:103C10007A72BCF1550F03D0BCF1560F10D124E0DD
:103C2000A37900EB032080B22081904211D9297042
:103C30002E492771A670012220313148FEF7F3FF8B
:103C4000BDE8F05F29492E480122891C4030FEF76B
:103C500067BFFCF70CFC4A465346FCF780FBFCF7B9
:103C60002CFC00220346114611E0A37900EB03204F
:103C700080B260819042DAD8FCF7F9FB4A4653469D
:103C8000FCF76DFBFCF719FC0022034610212148CC
:103C9000FDF740F99AE794F806C000EB0C2080B2DB
:103CA000A0819842C3D8506390E794F806C000EB17
:103CB0000C2080B2E0819842B9D8906386E794F8EE
:103CC00006C000EB0C2080B220829842AFD8D063AF
:103CD0007CE7FFE794F806C000EB0C2080B260821E
:103CE0009842A4D8106471E7BDE8F09F000000205E
:103CF00000380140000C0140001001406403002026
:103D0000C40100200014014000080140E17A14AE13
:103D1000476110406C00002010B590F83A1022293D
:103D200001D0022010BD82684FF480539A4201D125
:103D3000016921B1816A9A421BD04AB10AE0026846
:103D4000816A5268C2F308020A80816A891C08E00D
:103D5000026972B10268526802F07F020A70816AD9
:103D6000491C8162C18D491E0904090CC18503D01B
:103D700016E002685268F1E70168CA6822F0200282
:103D8000CA600168CA6822F48072CA6001684A6920
:103D900022F001024A61202180F83A10FEF7E9FE84
:103DA000002010BD70B5044600680169E26821F486
:103DB0004051114301612169A068084361690843CA
:103DC0002168CA6841F20C639A430243CA602068C2
:103DD0004169A26921F44071114341611E49206883
:103DE000884202D1FDF74EFE01E0FDF73BFE00EBFD
:103DF000C00101EB0012606864218000B2FBF0F3A7
:103E0000B3FBF1F36FF018067343B2FBF0F5B2FBAE
:103E1000F0F605EB8305322303EB0515B5FBF1F551
:103E2000B6FBF1F605F0F00505EB0615B2FBF0F672
:103E3000B2FBF0F0B0FBF1F06FF01802504306EB6C
:103E4000800003EB0010B0FBF1F0216800F00F00E0
:103E50002844886070BD0000003801402DE9F04121
:103E6000984617460E460446069D1DE0681C1BD06A
:103E70002DB1FDF7DDFBA0EB0800A84214D92068A6
:103E8000C16821F4D071C1602068416921F001014D
:103E90004161202084F8390084F83A00002084F839
:103EA00038000320BDE8F0812068006836EA000091
:103EB00004D00020B842D9D00020F3E70120F9E770
:103EC00010B5FFF765FDBDE810400148FEF7DABC0C
:103ED000C40100200148FEF7D5BC00000402002008
:103EE000FEE70000014A024900F023B8653F0008E0
:103EF000380000200907090E002804DB00F1E0204B
:103F000080F80014704700F00F0000F1E02080F806
:103F1000141D704702E008C8121F08C1002AFAD118
:103F200070477047002001E001C1121F002AFBD139
:103F300070472DE9F04116460F460446002503E080
:103F40003946B047641C6D1C20780028F8D12846FB
:103F5000BDE8F081002101E0491C89B2B1EBC00F3E
:103F6000FAD3704708B505238DF800000122694691
:103F70000248FEF7FFFD002008BD0000C40100203C
:103F80001CB5FDF763FBFFF75BFBFFF70DF8FEF7D2
:103F9000F5FFFEF793FFFFF707F8FEF78FFF00240A
:103FA000AE490094AC48019408600846FCF771FFE4
:103FB0000220CDE9004000226946A848FCF742FFF4
:103FC00010226946A548FCF73DFFFFF7BFF8FFF751
:103FD000D7F8A449A2484FF41645086008460C26B5
:103FE00045608460C460046146618461C461FEF719
:103FF000F7FC9C499C484031086008464560846055
:10400000C460046146618461C461FEF7E9FCFEF7A7
:10401000B5FFFFF761F8914800948030934941F66D
:104020001F450194C0E900156321C0E90241846184
:10403000FEF74EF989480094694680300194FEF7F6
:1040400009F988480094903889490194C0E900151D
:1040500042F20F71C0E902418461FEF739F98148EB
:104060000094694690380194FEF7F4F87B4880305C
:10407000FEF79AF97B489038FEF796F979480021C7
:104080004838FEF7A1FB774804214838FEF79CFB2F
:10409000744808214838FEF797FB72480C214838CD
:1040A000FEF792FB6F48483801684C6302684FF492
:1040B000C871916302684FF47A78C2F83C80006856
:1040C0004FF4FA6101646B4E4FF4005700223946F9
:1040D0003046FDF7A8FA4FF4006900224946304601
:1040E000FDF7A1FA002231153046FDF79CFA624D2A
:1040F0000022B9002846FDF796FA0022A9142846A6
:10410000FDF791FA002249462846FDF78CFA002275
:10411000A9152846FDF787FA002204215748FDF724
:1041200082FA012256494F48FEF7FAFC4B483038D4
:10413000FCF7A2FD49483038FCF7D0FB6420FDF7BE
:1041400057F9484990228031A1F50270FCF7F4FD3F
:104150000A20FDF74DF900214048FCF7E8FE102148
:104160003E48FCF7E4FE464D0022AD1E23462C815E
:104170006C8111463948FCF7CDFE6B890022102175
:104180003648FCF7C7FE1420FDF732F93DA0FFF7D3
:10419000A9FEBA462746414CB14651464846FDF76E
:1041A0003AFA00204FEA070144F82010401C80B280
:1041B0000928F9D32B49002011F1800100EBC0023E
:1041C000236831F8126001EB4202334423605688C1
:1041D0006368401C334463609688A36880B23344AC
:1041E000A360D688E36810283344E3601689236906
:1041F0003344236156896369334463619689A369B3
:104200003344A361D689E3693344E361128A236AA4
:104210001A442262D2D3002054F82010090944F82D
:104220002010401C80B20928F6D3208880B2FFF706
:10423000F1F9A88212481630FFF712F918B91048A0
:104240001A30FFF7C9F80E491A31081FFFF782F933
:104250004046FDF7CDF8A0E7007400406C00002058
:1042600000380140C4010020004800400010004018
:10427000001400400010014000080140000C014003
:10428000020000200A0D424547494E2050756D70CE
:104290002E2E2E2E2E2E0A0D00000000640300206C
:1042A00000000000000000000102030406070809E6
:1042B00000000000010203041847320088702F003C
:1042C000D8C82C00204C2A0060FA2700C8CB250053
:1042D00058C0230028D421003807200088591E0028
:1042E00048C31C00A83C1B0090C91900D0711800DD
:1042F000982D1700E8FC1500D8DB140050CE1300F1
:1043000068D0120038DE1100A8FB1000E820100071
:10431000C8550F0040930E0070DC0D002C300D00CE
:10432000488D0C00C4F30B0074620B0058D90A00CE
:1043300044570A0043DA0900E863090030F4080032
:10434000548A08005426080067C70700906D0700CC
:10435000681807008CC70600FC7A0600C430060007
:1043600074EA0500A8A7050060680500382C050060
:1043700030F30400E4BC04005489040080580400B5
:10438000A0290400B4FC0300BCD103001BA9030056
:1043900070820300545D03002C3A0300F8180300F8
:1043A000F0F8020078DA020090BD02006FA102006E
:1043B000E0860200186D0200E0540200D43D0200C5
:1043C000902702007812020028FE0100A0EA0100F6
:1043D00044D801004CC6010080B5010018A50100B9
:1043E00078950100A0860100407801008A6A0100EA
:1043F000605D0100CC500100BA4401000C3901009D
:10440000E02D01002C230100F0180100180F01001D
:10441000AE0501009EFC0000F2F30000A0EB0000DE
:104420009EE30000E1DB00006CD4000046CD0000FC
:1044300070C60000D5BF000082B900006AB300005A
:104440008DAD0000EEA7000080A20000449D00009A
:10445000309800004E9300009E8E0000208A0000DD
:10446000CA8500009C810000967D0000B87900009C
:10447000F875000056720000DC6E0000766B0000DC
:10448000386800001865000016620000285F000010
:10449000585C0000A6590000085700007D54000039
:1044A00008520000A64F0000584D0000284B0000A5
:1044B00002490000F0460000F244000008430000FA
:1044C000284100005C3F00009A3D0000E23B0000F4
:1044D000483A0000AE38000028370000A23500003E
:1044E00030340000D232000074310000203000006F
:1044F000E02E0000A02D00006A2C0000482B0000D8
:10450000262A00000E2900000028000000270000D5
:10451000032600000C2500001E24000036230000A6
:10452000552200007C210000A8200000DB1F0000B5
:10453000141F0000531E0000981D0000A848000032
:10454000F8430000AC3F0000603B0000DC37000097
:104550005834000038310000182E0000F82A0000FE
:10456000A0280000102700001C2500006022000089
:104570006C200000781E0000E81C0000F41A000007
:104580006419000038180000A8160000E0150000AB
:104590005014000074130000481200003A1100008B
:1045A0004A1000005A0F0000880E0000B60D0000EF
:1045B000020D0000800C0000D50B00002C0B000049
:1045C000960A0000000A00007E090000FB080000B7
:1045D0008408000016080000A80700006C0700000F
:1045E00008070000AE0600005406000004060000A4
:1045F000B40500006E05000028050000E20400007C
:10460000B00400007E0400004C0400001004000010
:10461000DD030000B6030000840300005203000025
:10462000340300000C030000E4020000D00200008C
:10463000A7020000940200006C0200004E0200007D
:104640003A0200001C02000008020000F401000011
:10465000D6010000CC010000AE010000A401000062
:10466000900100007C010000700100005F0100006B
:104670005101000042010000350100002B01000043
:104680001E0100001201000006010000FC000000F5
:10469000F1000000E8000000DE000000D50000008E
:1046A000CD000000C6000000BE000000B700000002
:1046B000AF000000A9000000A10000009C00000065
:1046C000960000008F0000008B00000086000000B4
:1046D000820000007D0000007800000073000000F0
:1046E0006F0000006B000000670000006300000026
:1046F000600000005D00000059000000570000004D
:1047000053000000500000004D0000004B0000006E
:104710004800000045000000430000004100000088
:104720003E0000003D0000003B000000380000009B
:1047300037000000350000003300000031000000A9
:10474000300000002E0000002D0000002C000000B2
:1047500029000000290000002700000027000000B9
:1047600025000000230000002300000022000000BC
:1047700020000000200000001F0000001D000000BD
:104780001D0000001C0000001B00000019000000BC
:1047900019000000180000001700000017000000BA
:1047A00016000000150000001500000014000000B5
:1047B000130000001300000012000000DC47000896
:1047C000000000203C000000143F000818480008CA
:1047D0003C00002094070000243F00080000000077
:1047E00000000000000000000000000000000000C9
:1047F00000000000000000000000000000000000B9
:104800000000000001000000100000000000000097
:084810000024F4000000000088
:0400000508000131BD
:00000001FF
